:020000040800F2
:100000000000022081AE0008996700089B67000885
:100010009D6700089F670008A167000800000000B6
:10002000000000000000000000000000A3670008BE
:10003000A567000800000000A7670008A96700087E
:10004000D1AE0008D1AE0008D1AE0008D1AE000894
:10005000D1AE0008D1AE0008D1AE0008D1AE000884
:10006000D1AE0008D1AE0008D1AE0008D1AE000874
:10007000D1AE0008D1AE0008DD670008ED670008CA
:10008000D1AE0008D1AE000831650008D1AE00083D
:10009000D1AE0008D1AE0008D1AE0008D1AE000844
:1000A000D1AE0008D1AE0008AD670008D1AE00089F
:1000B000D1AE000805650008D1AE0008D1AE000839
:1000C000D1AE0008D1AE0008D1AE0008FD6700082F
:1000D0000D680008D1AE0008D1AE0008D1AE00080E
:1000E000D1AE0008D1AE0008D1AE0008D1AE0008F4
:1000F000D1AE0008D1AE0008D1AE0008D1AE0008E4
:10010000D1AE0008D1AE0008D1AE0008D1AE0008D3
:10011000D1AE0008D1AE0008D1AE0008D1AE0008C3
:1001200045680008D1AE0008CD6700085568000892
:10013000D1AE00080000000000000000D1AE0008B1
:10014000D1AE0008D1AE0008D1AE0008D1AE000893
:10015000D1AE0008D1AE0008BD6700081D680008D8
:10016000D1AE0008D1AE0008D1AE0008D1AE000873
:10017000D1AE0008D1AE0008000000000000000071
:08018000D1AE0008D1AE000869
:1001C0000348044B834202D0034B03B118477047E6
:1001D000F8010020F8010020000000000548064951
:1001E0000B1AD90F01EBA301491002D0034B03B145
:1001F00018477047F8010020F801002000000000B7
:1002000010B5064C237843B9FFF7DAFF044B13B15E
:100210000448AFF300800123237010BDF8010020D3
:1002200000000000D4AE000808B5044B1BB104491F
:100230000448AFF30080BDE80840CFE700000000AD
:10024000FC010020D4AE0008002101F079B900BF04
:10025000014B1868704700BF0000002070B50D4EBC
:100260000D4D761BB61006D0002455F8043B013422
:100270009847A642F9D1094E094D761B0AF02AFE8D
:10028000B61006D0002455F8043B01349847A64226
:10029000F9D170BDF4BB0008F4BB0008F8BB00083E
:1002A000F4BB0008844641EA000313F003036DD158
:1002B000403A41D351F8043B40F8043B51F8043B29
:1002C00040F8043B51F8043B40F8043B51F8043B30
:1002D00040F8043B51F8043B40F8043B51F8043B20
:1002E00040F8043B51F8043B40F8043B51F8043B10
:1002F00040F8043B51F8043B40F8043B51F8043B00
:1003000040F8043B51F8043B40F8043B51F8043BEF
:1003100040F8043B51F8043B40F8043B51F8043BDF
:1003200040F8043B51F8043B40F8043B51F8043BCF
:1003300040F8043B403ABDD2303211D351F8043B6F
:1003400040F8043B51F8043B40F8043B51F8043BAF
:1003500040F8043B51F8043B40F8043B103AEDD21E
:100360000C3205D351F8043B40F8043B043AF9D26F
:10037000043208D0D2071CBF11F8013B00F8013B42
:1003800001D30B8803806046704700BF082A13D34F
:100390008B078DD010F003038AD0C3F10403D21A67
:1003A000DB071CBF11F8013B00F8013B80D331F89B
:1003B000023B20F8023B7BE7043AD9D3013A11F81B
:1003C000013B00F8013BF9D20B7803704B78437086
:1003D0008B78837060467047830730B548D0541ED1
:1003E000002A3FD0CAB2034601E0013C3AD303F8E9
:1003F000012B9D07F9D1032C2DD9CDB245EA052556
:100400000F2C45EA054536D9A4F1100222F00F0C55
:1004100003F1200EE6444FEA121C03F1100242E9F8
:10042000045542E9025510327245F8D10CF101022F
:1004300014F00C0F03EB021204F00F0C13D0ACF10C
:10044000040323F003030433134442F8045B934290
:10045000FBD10CF003042CB1CAB21C4403F8012BED
:100460009C42FBD130BD64461346002CF4D1F9E721
:1004700003461446BFE71A46A446E0E70EB410B59B
:10048000044683B008B183695BB106ABA168059AE5
:100490000193204602F0B6FF03B0BDE8104003B060
:1004A000704701F0E9FBF0E70FB410B50A4B1C6888
:1004B00082B00CB1A3695BB105ABA168049A01934A
:1004C000204602F09FFF02B0BDE8104004B0704724
:1004D000204601F0D1FBEFE7000000202DE9F041BC
:1004E0000E460746002833D083697BB384682F4BC0
:1004F0009C4237D02E4B9C423FD02E4B9C4208BF93
:10050000FC68A3891B0731D523697BB33578B046D6
:100510003DB934E023685A1C22601D7018F8015F51
:100520006DB3A368013B002BA360F3DAA669B34265
:1005300029462246384601DB0A2DEBD101F0C6F8E8
:100540000130EBD14FF0FF30BDE8F08101F094FBBA
:10055000BB69BC68002BCAD1384601F08DFB134B38
:100560009C42C7D17C68A3891B07CDD4214638465D
:1005700001F010F90028C9D0E4E7BC68C1E7A3681E
:10058000013B002BA36009DA22460A21384601F01C
:100590009DF80130D6D00A20BDE8F08123680A22F8
:1005A000591C21601A701046BDE8F08188AF000820
:1005B00068AF000848AF0008024B01461868FFF713
:1005C0008DBF00BF000000202DE9F04F1C462DED2F
:1005D000048B9D4B1B689FB00025824618468846B9
:1005E00007921A95089303F0CBFA00218346002066
:1005F000CDE90401CDF864804246174612F8013B6C
:100600002D2B2FD8DFE813F0A4002E002E002E0093
:100610002E002E002E002E002E00B400B400B400D8
:10062000B400B4002E002E002E002E002E002E004E
:100630002E002E002E002E002E002E002E002E004A
:100640002E002E002E002E00B4002E002E002E00B4
:100650002E002E002E002E002E002E002E000E0446
:100660002E00040400220992302B00F08380002227
:100670000C922F2B1C4640F24D854FF00009384656
:100680004E464D4612E00130082D1990C8BF09EBC7
:1006900089090478C6BF03EB4903A3F13009A2F12D
:1006A00030062F2C05F10105234674DD06EB86028A
:1006B000392C03EB4202E6DD08995A4603F0CEFAE4
:1006C0000346002835D1199A11465A44199211F857
:1006D0000B40002D40F0A985302C40F06185C2F11F
:1006E00001015318013219921478302CF9D0A4F179
:1006F0003102082A00F24383A4F1300E199C03F161
:10070000010B0023012527460A9306EB86060EEB14
:1007100046060023621C19926478A4F1300109296D
:1007200000F2F18201338E46002940F0D284199CF8
:10073000F0E70023652C0A959B469E4601D0452C88
:1007400036D1002D40F085800C9A1A4340F080800D
:10075000079B9FED3B8B13B1079BC3F80080B0EE66
:10076000480AF0EE680A1FB0BDEC048BBDE8F08FBC
:10077000199242E77B7803F0DF03582B00F08D8459
:10078000013719973B78302BFAD0002B00F0D3803B
:1007900001220C926DE708995A4603F05FFA03466E
:1007A000002800F0DB800A954FF0000B5B46DE4628
:1007B00000220D92002D00F098800A9A1346002A1C
:1007C00008BF2B4630460A9305F002F80B46024656
:1007D000CDE904230D9B102DA3EB0B032C46A8BFE2
:1007E0001024092D0C9314DD184B03EBC40353E9BB
:1007F000122305F067F8024648469046894604F001
:10080000E7FF02460B464046494604F0A5FECDE907
:1008100004010F2D00F3AB800C9B002B00F03484FF
:100820000C9B40F38283162B40F3F1840C9AC5F1A4
:100830002503934280F204850C9B2C1B1C449CE0F6
:100840000000000000000000A8B00008C8B00008C8
:100850000025DDF8648008F10102199298F8014042
:100860002B2C00F089822D2C00F01D820022089292
:10087000A4F13002092A00F21182302C05D1199A14
:10088000013219921478302CFAD0A4F13102082ADE
:100890008ED819990D914A1C1992A4F130004C7808
:1008A0002F2C09DC00F044BC013219929CF8014065
:1008B0002F2CA1F1300006DD00EB8001392C94468D
:1008C00004EB4101F0DD0D99521A082A40F33084FF
:1008D00044F61F620D92089A002A3FF46BAF0D9AFE
:1008E00052420D92002D7FF468AF0C9A134322D12F
:1008F000BEF1000F7FF42CAF692C00F0318400F3BF
:100900005283492C00F02C844E2C7FF421AFB8493F
:1009100019A801F053FD00283FF41AAF199B1B786A
:10092000282B00F07185B34803F0AAF8B0EE408A96
:10093000F0EE608A01E09FEDAA8B079A0AB1199B3D
:100940001360099B002B3FF40AAF18EE901A18EEC3
:10095000102A01F1004343EC182B00E7199A0A957D
:1009600002EB0B01199112F80B409B46D5E60C9B4C
:100970002C1B1C44002C40F31B8314F00F000AD0E6
:100980009D4901EBC001DDE90423D1E9000104F038
:1009900099FFCDE9040134F00F0340F07082002389
:1009A00008930A9A00962B463946504601F05CFFA0
:1009B0001190002800F06B830D9BABEB03000C9BA8
:1009C000002BB4BF024600224FF0000823EAE37375
:1009D0000D921093C346119C5046616801F08EFE43
:1009E0008146002800F0478122699DED048B023288
:1009F000920004F10C010C30FFF754FCB0EE480AF1
:100A0000F0EE680A1CAA1BA9504602F0D7FA1A9009
:100A1000002800F01D810121504601F0CFFF8346E0
:100A2000002800F028811B9B002BC0F217810D9A33
:100A3000109D9E18089A1C9C9B1A23446F4A013BE8
:100A40009342C4F1360480F2B080D21A1F2AA4EB7C
:100A5000020400F31C81012393400A930027089BA2
:100A600025443444A6421D443346A8BF2346AB4226
:100A7000A8BF2B46002B02DDE41AED1AF61A0D9BD7
:100A8000002B00F3C580002C00F3D9800C9B002BB9
:100A900000F3E880002D00F3F080002E08DD5946B9
:100AA0003246504602F0BEF88346002800F0E3804C
:100AB0001A994A46504602F04BF98046002800F049
:100AC000DA800023C268C36059460E9202F01EF914
:100AD0000028C0F2758400F0E5835946404602F0D4
:100AE000D5FA55EC104B10EE100A00224FF080435F
:100AF000294605F063F900285BD00E9B002B00F01F
:100B0000DD80059B0F933E4B3D4D0022CDE90A232E
:100B100000243C4F0F9A3C4B02EA07069E4200F02D
:100B2000F880089B8BB1B6F1D46F0ED82EA3D3E911
:100B300000232046294605F041F9002840F087812E
:100B40000B9B03F1D6639B1B0B93DDE90A01B0EE0F
:100B5000480AF0EE680ACDE9040102F09FF9DDE9E8
:100B6000040153EC102B04F0ADFE53EC182B04F0F1
:100B7000F3FCCDE904010A91089B2BB9214B0A9A99
:100B800013409E4200F004811A99504601F0F6FD90
:100B90004946504601F0F2FD5946504601F0EEFD3F
:100BA0004146504601F0EAFD15E7012300270A936C
:100BB00055E7164B20462946002204F083FE0E9B83
:100BC00004460D46002B76D101F100431290139399
:100BD000059B0F93DDE91223CDE90A2399E700BFB6
:100BE00000000000000000000000C0FFFFFFDF4128
:100BF000C0BA0008B0B90008C8B0000802FCFFFF86
:100C00000000F03F0000F07F0000E07F0000E03FC8
:100C100059461A46504601F095FF834658B301469F
:100C20001A9A504601F0E0FE28B30E901A995046E9
:100C300001F0A4FD0E9B1A93002C7FF727AF1A99A1
:100C40002246504601F0EEFF1A9000287FF41EAFB6
:100C500022239FEDBF8BCAF80030C4E0109A0D9E8E
:100C6000D51AE7E64946109A504601F06BFF8146D7
:100C700000287FF40FAF1A98EAE749462A46504603
:100C800001F0D0FF814600287FF407AFF3E7B84FAB
:100C9000FF1A012303FA07F70A93E0E60022CDF8D2
:100CA00064800D9286E50122089208F102021992F1
:100CB00098F80240DCE5CDE9124589E7DDE9041248
:100CC000002940F0B280C2F313030F92002B40F0D2
:100CD000B280A84B00222046294605F065F800287E
:100CE00040F0A782A44B20462946002204F0EAFDEA
:100CF00001F1004304460D4616901793DDE91623D3
:100D0000CDE90A2305E7652C4FF0010E3FF4A1ADB4
:100D100015E5A2F1547305939DED047BDDE90A010D
:100D2000B0EE470AF0EE670AB0EE479AF0EE679A27
:100D3000CDE9040102F0B2F8DDE9040153EC102B17
:100D400004F0C0FD53EC192B04F006FC8B4B0F4054
:100D50009F42CDE9040175D918EE902A03F154732E
:100D60009A4203D118EE103A013384D0844A4FF0EE
:100D7000FF33CDE9043207E70022089295E7652C9E
:100D800000F00A81452C00F007814FF0010EACE520
:100D90002046294605F0CEF804F066FD0B460246D3
:100DA0002946204604F0D6FB049C0E9F27430A9C4C
:100DB000C4F3130657EA060304460D4600F0AC8060
:100DC00065A3D3E9002304F0EFFF48B964A3D3E996
:100DD00000232046294605F005F800283FF4D4AE4C
:100DE0009DED048B1A980146504601F0C7FC494618
:100DF000504601F0C3FC5946504601F0BFFC119922
:100E0000504601F0BBFC4146504601F0B7FC94E56A
:100E1000012309937A1C19927B78002B3FF498AC3C
:100E2000174621E400230993F4E7DDE904120129C0
:100E300000F086810F92534B4E4D0022CDE90A23DC
:100E4000002466E601F154730A93059394E629465B
:100E5000204604F0E7FF012838BF012004F0B8FC69
:100E60000E9B04460D46002B40F0778101F10043B4
:100E700014901593DDE91423CDE90A2360E6B3F558
:100E80009A7F00F304811C11102B3F4B089340F311
:100E9000D7829846DDE904234FF0000CE14614F0B8
:100EA000010F104619464FEA640409F1010907D001
:100EB000D8E9002304F006FD4FF0010C02460B4672
:100EC000012C08F10808EAD1BCF1000F01D0CDE9EE
:100ED0000423089B03EBC909059BA3F154730593F5
:100EE000DDE90423D9E9000104F0ECFC274BCDE94E
:100EF00004010B400A4626498B4200F2C880A1F546
:100F000080118B4240F23B821D4A4FF0FF33CDE906
:100F100004320023089344E513A3D3E9002304F02B
:100F200043FF00283FF430AE5AE71633FFF61FADFB
:100F30000D9BABEB030A174B03EBCA03DDE904017E
:100F4000D3E9002304F0E8FD41EC180BF5E400BF01
:100F5000000000000000F07F9535A094FFFFDF3F08
:100F600035E5AF350000E03F9535A094FFFFCF3F5A
:100F7000E2FBFFFF0000F03F0000E03FFFFF9F7C2F
:100F8000FFFFEF7F0000F0BFB8B100080000F07F66
:100F90000000A07CC8B0000800220A9293464FF0DF
:100FA000010EFFF7D1BB6E2C3FF4B1ACFFF7D0BB05
:100FB0003FF4F5AC644214F00F020AD0B24B03EBDD
:100FC000C203DDE90401D3E9002304F0A5FDCDE966
:100FD000040124113FF4E3AC1F2C3EDC14F0100399
:100FE00018BF6A230893DDE90423DFF8B4824FF0C9
:100FF000000C14F0010F1046194607D0D8E9002361
:1010000004F060FC4FF0010C02460B46641008F13E
:101010000808EED1BCF1000F01D0CDE90423089BF4
:1010200093B1DDE90401C1F30A52C2F16B03002B55
:101030000ADD1F2B40F330820020342B049040F354
:1010400036824FF05C730593DDE904010022002332
:1010500004F0A0FE00283FF4A4AC22239FED848B73
:10106000CAF8003069E41C9B04931B9B03F23342D3
:101070001D9B23F4801343EA02530593290742BFC3
:10108000059B43F0004305939DED048B55E422231B
:101090009FED798BCAF800304FE4099B01931AAB9E
:1010A00002940093794A1BAB19A9504600F09AFEAE
:1010B00010F0070405463FF43EAC062C73D1079BA5
:1010C0009FED6B8B0137002B3FF449AB1F60FFF79F
:1010D00046BB6A1C012B199C9B44104615D02B441F
:1010E00003F1FF3C03E0460094450DD001322B464E
:1010F000082B154606EB8600F5D9102ADCBF09EB54
:1011000089094FEA4909EFE7981C082D3EDC05469E
:10111000FFF7FBBA08995A46384602F09FFD0028AF
:101120006BD000231D460A9399461E46FFF73CBB31
:1011300044F61F629042A8BF10460D90FFF7CBBB4C
:10114000DDE904120F92002A7FF475AE22239FED91
:10115000488B1A98CAF8003045E6CDE9144589E66F
:101160004B4919A801F02AF900283FF4F1AA199B6C
:101170004849013B19A8199301F020F910B9199BAE
:10118000013319939FED3C8BFFF7D7BB1028DCBFD1
:1011900009EB890901EB490905460023FFF7BABAB3
:1011A0000023FFF7A4BA1A9A3AB135211CA801F01E
:1011B000BBFF1A99504601F0E1FA013C042C3FF6BE
:1011C0005DAF01A353F824F067100008F111000887
:1011D000EB110008DD110008671000084FF0FF3325
:1011E0006FF00040CDE9043048E72B4B059345E70D
:1011F0001C9B04931D9B059340E7199A13465A4480
:10120000199213F80B4006468146FFF765BA0C9811
:101210001D4901EBC001DDE90423D1E9000104F01F
:1012200051FB41EC180BFFF788BB0A958346FFF78B
:1012300074BA9FED137B194D8DED167B00245DE58F
:10124000114CC5F10F0504EBC501DDE90423D1E91B
:10125000000104F037FB0C9B5D1B04EBC504D4E9D3
:10126000002304F02FFB41EC180BFFF766BB00BF17
:101270000000000000000000000000000000F07FFF
:10128000000000000000E0BFC8B00008F8AE000891
:10129000B4BA0008B8BA00080000F07F0000E03FD0
:1012A00020AF00080E9B002B70D0DDE90445954B64
:1012B000C5F3130199422A463FD0002F00F0B880B1
:1012C000DDE904231F421C4623D0B0EE480AF0EEAD
:1012D000680A0E9B002B00F0B68001F0DFFD089B32
:1012E00051EC100B6BB1C4F30A54C4F16B04002C25
:1012F00007DD240504F17F53002203F5401304F0B9
:10130000E1FA02460B4651EC180B04F025F941ECCA
:10131000180B089B7BB151EC180B7B4B002204F09F
:10132000D1FA41EC180B18EE902A0346134304BF80
:101330002223CAF800301A9855E5089B0499002B1F
:1013400000F0B280714B2B40B3F1D46F00F2AC804F
:101350001B0DC3F16B034FF0FF3000FA03F399420A
:10136000ABD16B4B9A4200F0C780684B134003F53A
:1013700080130593002304939DED048BC9E702F1CC
:101380005473059300230893FFF70BBBDDE90412A8
:10139000C2F313030B4314468FD1089B002B40F07C
:1013A000A0805A4B2340A3F580136FEA13536FEAD2
:1013B000035305934FF0FF3304939DED048BA8E78F
:1013C000DDE904010E9B0343A3D1C1F313030C46D3
:1013D000002B9ED121F000431B0D1B05B3F1D66FEE
:1013E00097D9D8F814301BB9D8F81030012B90DDFC
:1013F00041460122504601F015FC5946804601F055
:1014000085FC002885DDC8E7424919A81CAA00F020
:10141000F1FF05287FF487AA1D9B43F0FF4343F4A7
:10142000E00305931C9B04939DED048BFFF785BAA5
:10143000DDE904010A9B03423FF46BAF0C4644E72D
:101440004FF0000945E501F029FD089953EC102BF8
:10145000B9B3C4F30A54C4F16B04002C0CDD2405A9
:10146000194604F17F530E9A03F5401310EE100A4B
:1014700004F028FA02460B4651EC180B04F06AF807
:1014800002460B4643EC182B0022002304F082FC9A
:1014900000283FF440AF59E64FF0FF3202FA03F361
:1014A000049A1A400492CFE54FF0FF3357E74FF00C
:1014B000FF33C2F14B0203FA02F202EA0103059381
:1014C000C2E551EC180B04F045F802460B4643EC1C
:1014D000182B0022002304F05DFC00283FF42BAF02
:1014E00034E60A4B2340B3F1D66F3FF75CAFB3F15C
:1014F0005C7F3FF710AF29E601317FF436AFFFF78D
:10150000BABB00BFFFFF0F00000050390000F07FA2
:10151000FFFFEF7F0CAF0008014BFFF755B800BF8E
:101520006800002010B4054C8446134620685DF81E
:10153000044B0A466146FFF747B800BF0000002091
:1015400010B4054C054B84460A4620685DF8044BF0
:101550006146FFF739B800BF000000206800002096
:101560002DE9F041DFF8A880044613462DED028BEB
:101570000A46D8F800002146FFF726F855EC104B34
:1015800010EE102A10EE100A2B46294604F034FC07
:1015900050BB2046294604F065FC08EE100ADFED3A
:1015A000197AB0EEC87AB4EE677AF1EE10FA15DD6A
:1015B00025F00047144B4FF0FF322046394604F027
:1015C0001BFC38B9104B4FF0FF322046394604F06F
:1015D000F5FB18B1D8F8003022221A60B0EE480AA4
:1015E000BDEC028BBDE8F081002D084804DA02F062
:1015F00061FAB1EE408AF1E7BDEC028BBDE8F04143
:1016000002F058BAFFFF7F7FFFFFEF7FB0B90008FD
:10161000000000202DE9F041DFF8AC80264B0446A5
:101620000A462DED028B2146D8F80000FEF7CCFFCC
:1016300055EC104B10EE102A10EE100A2B462946DE
:1016400004F0DAFB50BB2046294604F00BFC08EE00
:10165000100ADFED1A7AB0EEC87AB4EE677AF1EECE
:1016600010FA15DD25F00047154B4FF0FF322046EC
:10167000394604F0C1FB38B9114B4FF0FF32204618
:10168000394604F09BFB18B1D8F8003022221A60CA
:10169000B0EE480ABDEC028BBDE8F081002D094890
:1016A00004DA02F007FAB1EE408AF1E7BDEC028BF2
:1016B000BDE8F04102F0FEB968000020FFFF7F7F27
:1016C000FFFFEF7FB0B9000800000020F8B50D461D
:1016D0001446064608B1836943B3254B9C422AD081
:1016E000244B9C4229D0244B9C4208BFF468A38918
:1016F000A269A2601A0722D5236903B3226861692F
:10170000D31AEDB299422F4629DD0133A168013980
:10171000A160511C2160157062699A4216D0A3899C
:10172000DB0701D50A2D11D03846F8BD00F0A4FA28
:101730000F4B9C42D4D17468D9E7B468D7E72146EF
:10174000304600F027F838B92369D7E721463046FC
:1017500000F02CF90028E7D04FF0FF37E4E72146EE
:10176000304600F023F90028F6D122680123CDE7A6
:1017700088AF000868AF000848AF000810B4044CF8
:1017800003460A4620685DF8044B1946FFF79EBFE2
:10179000000000203C4B70B51D6806460C460DB19C
:1017A000AB69E3B1394B9C421FD0394B9C424DD0C1
:1017B000384B9C4208BFEC68B4F90C3018079AB259
:1017C00019D5216911B312F001002FD00020A060BB
:1017D00060694042A06100292ED0002070BD2846DB
:1017E00000F04AFA294B9C42DFD16C68B4F90C3006
:1017F00018079AB2E5D4D1063ED5520728D42169FC
:1018000043F00803A3819AB20029DCD102F42070CE
:10181000B0F5007FD7D02146304600F0C1FEB4F9C4
:101820000C3021699AB212F00100CFD1950758BF50
:101830006069A0600029D0D1120658BF0846CDD5F6
:1018400043F04003A3814FF0FF3070BDAC68B3E7B5
:10185000616B51B104F14402914204D0304601F071
:10186000D1FCB4F90C300022626321690022C4E982
:10187000001223F02403C3E7092243F0400332603F
:101880004FF0FF30A38170BD0000002088AF00083A
:1018900068AF000848AF00088B891A072DE9F041AE
:1018A0000C4680463FD44A68002A58DDE66A002E7E
:1018B00052D00022D8F80050C8F8002013F480520B
:1018C00051D10123216A4046B047431C5ED0A38911
:1018D000E66A5F0705D56368C01A636B0BB1236CBA
:1018E000C01A216A024600234046B047411C3CD141
:1018F000D8F80030002B38D01D2B01D0162B4DD13D
:1019000023690022C4E90032616BC8F8005019B3A2
:1019100004F14403994202D0404601F073FC0020D8
:101920006063BDE8F0810E69B6B10D680E609A077C
:101930000CBF4B690023AD1B8B600BE02B4632467E
:10194000216AA76A4046B847B0F1000CA5EB0C0528
:10195000664413DD002DF1DC0020BDE8F0810A6C47
:10196000002AA3DCF8E7606DB3E700236360236916
:101970002360A389DB04C7D56065C5E7A38943F06D
:1019800040034FF0FF30A381BDE8F081D8F800306C
:10199000002B9CD01D2B06D0162B04D0A38943F01E
:1019A0004003A381D9E7C8F80050D5E738B50B69E3
:1019B000BBB10D46044608B18369B3B10D4B9D42DE
:1019C00011D00D4B9D4213D00C4B9D4208BFE568D2
:1019D000B5F90C302BB129462046BDE83840FFF759
:1019E0005BBF002038BD6568F2E700F045F9E5E728
:1019F000A568EDE788AF000868AF000848AF0008A9
:101A000038B540B303690446E3B1174B1D680DB107
:101A1000AB69CBB1154B9C420FD0154B9C4221D0EA
:101A2000144B9C4208BFEC68B4F90C3053B121460A
:101A30002846BDE83840FFF72FBF6C68B4F90C307A
:101A4000002BF4D1002038BD284600F015F9074BD3
:101A50009C42E2D1F1E7084B08491868BDE83840DC
:101A600000F04AB9AC68DFE70000002088AF00084A
:101A700068AF000848AF0008F0AE0008AD190008D4
:101A800000207047014900F037B900BFAD190008C8
:101A90000020704770B568224D1E02FB05F50E460A
:101AA00005F1740101F010FC044640B100210C3036
:101AB000C4E90016A06005F16802FEF78DFC20461F
:101AC00070BD00BF274B2DE9F0411E68B369074682
:101AD00053B348364FF00408D6E90134013B04D52E
:101AE0001EE05A1C04F168041AD0B4F90C50013BF2
:101AF000002DF6D11C4B6566C4E90055C4E90253BC
:101B0000C4E90455A5610822294604F15C00FEF7EA
:101B100063FCC4E90D55C4E912552046BDE8F081C7
:101B200035682DB12E46D7E7304600F01FF8D0E7D4
:101B30004FF4D671384601F0C7FB044668B1056022
:101B4000C0F804800C302946A06025464FF4D072BE
:101B5000FEF742FC34602E46BEE70C2330603B604B
:101B6000DBE700BFF0AE00080100FFFF2DE9F84FF2
:101B7000344B35491A68816290424FF00003C0E946
:101B80001233036504BF012383610546FFF79AFF03
:101B900068602846FFF796FFA8602846FFF792FF87
:101BA0006F68E86000240423C7E902430822214645
:101BB000C7E90044C7E904447C66BC6107F15C00E6
:101BC000FEF70AFCDFF88CB0AE68DFF88CA0DFF817
:101BD0008C90DFF88C801D4BC7F828A0C7E9087BE4
:101BE000C7F82C90C7F830800822F360C6E900449B
:101BF000C6E904447466B460B461214606F15C0031
:101C0000FEF7EAFBC6E9086BC6E90AA9C6F8308008
:101C1000EE680F4BF360C6E90044C6E904447466FD
:101C2000B460B4612146082206F15C00FEF7D4FBE3
:101C30000123C6E9086BC6E90B98C6F828A0AB617A
:101C4000BDE8F88FF0AE0008851A00080900010011
:101C500012000200C13A0008E93A0008293B0008D6
:101C6000493B0008024B0349186800F045B800BF23
:101C7000F0AE0008AD190008836903B976E7704734
:101C8000704700BF704700BF704700BF704700BF7C
:101C9000024B0349186800F00FB800BF0000002095
:101CA000811A0008024B0349186800F005B800BF0C
:101CB00000000020911A00082DE9F041884600F14B
:101CC00048070026D7E90154013D0FD4A389012B11
:101CD00005F1FF3506D9B4F90E300133204601D0A5
:101CE000C04706436B1C04F16804EFD13F68002F26
:101CF000E8D13046BDE8F0812DE9F8430746884633
:101D000000F148064FF00009D6E90154013D11D415
:101D1000A389012B05F1FF3508D9B4F90E30013341
:101D2000214603D03846C04749EA00096B1C04F13C
:101D30006804EDD13668002EE6D14846BDE8F88348
:101D40002DE9F0410469B4EB611F2FDD00F1140EA1
:101D50004E1111F01F0C0EEB84050EEB86032BD0F9
:101D60005EF8262004339D4222FA0CF1CCF12008C3
:101D700018D977461A6802FA08F20A4347F8042B82
:101D800053F8041B9D4221FA0CF1F3D8A41BA300C5
:101D9000053B9B0801330EEB83044EF82310C9B1B9
:101DA000043417E0416174460029F9D1002303612E
:101DB00000234361BDE8F0819D4288BF00F110021D
:101DC000F4D953F8041B42F8041F9D42F9D8A41B10
:101DD0000EEB8404A4EB0E039B1074450361E7D063
:101DE000BDE8F0812DE9F04FAE4C2DED028B24685B
:101DF0008BB008EE100A204689460392079304949C
:101E000001F0BEFED9F800302118024611F801BCDD
:101E10009978302940F0E5816FF00100C01A033352
:101E200000EB030A1C4613F8011B3029F8D0DFF839
:101E3000788218F80130002B00F0F7802378002713
:101E400018F803303D4626462BB116F8013F18F826
:101E50000330002BF9D104990292304601F0FEFEC6
:101E6000029A0190002800F09680002D40F09680A4
:101E70003378019503F0DF03502B354600F098804E
:101E8000C9F80060002F40F0B0802B1B013B072BEE
:101E9000394604DD5B10072B01F10101FADC18EE75
:101EA000100A059200F02AFC059A0290002800F022
:101EB0007182029BAC4203F11406069680F0E78122
:101EC0000027C2F10103B946059310E0202F00F06E
:101ED00097803946043715F8013C18F80330554609
:101EE00003F00F038B40A54249EA030916D915F800
:101EF000013C5B4505F1FF3AE8D1059B5344A34201
:101F0000E4D3184604990992089301F0A7FEDDE98D
:101F100008320028DAD11D46A542E8D846F8049BCD
:101F2000069BF61A029BB6101E61484600F0F6FCAE
:101F3000039B76011C68301AA04200F3B780C0F200
:101F40002F810027039B019A9B689342C0F29381E3
:101F50000399019A4B68934240F384809D1AAC42E6
:101F600000F3C480CA68022A00F0C681032A00F088
:101F7000BE81012A00F0A28118EE100A029900F039
:101F8000FDFB5025169A0023284613600BB0BDECCC
:101F9000028BBDE8F08F002D00F01181AD1BAB006E
:101FA0000193337803F0DF03502B35467FF468AF9D
:101FB0006B782B2B00F0F2802D2B6ED06E1C002046
:101FC00018F803104B1E182B65D8737818F80330D7
:101FD0001039013633BB00B14942019BC9F800609A
:101FE0000B440193002F3FF450AFBAF1000F14BF20
:101FF0000025062528460BB0BDEC028BBDE8F08F0E
:10200000002146F8049B0427894664E701EB81011F
:1020100003EB4103A3F1100116F8013F18F8033058
:10202000002BD8D0192BF1DDD5E704990192204679
:1020300001F014FE019A002876D1A15C18F8013055
:10204000A518002B72D030292C4605D114F8013F79
:10205000302BFBD018F80330B3FA83F77F094FF029
:10206000010AF0E6012557B1039BDB68022B65D01E
:10207000032B67D0012B00F0888045F01005169BDC
:10208000029A1A60079B019A1A6028460BB0BDECB1
:10209000028BBDE8F08F2E46F2E60120AB78AE1C35
:1020A0008EE700BFA8B00008A8AF0008029D061B7D
:1020B0003146284601F066F8074678B1721E531182
:1020C0000699012751F8231002F01F0307FA03F3C2
:1020D0000B4203D0BA4200F3E4800227019B02982E
:1020E000334431460193FFF72BFE2BE76E1E002F82
:1020F00040F0CB80002E40F0CE807311069A0298FB
:1021000052F8232006F01F06012303FA06F61642B2
:10211000294618BF47F00207FFF712FE039B5B68D2
:102120000193641B02259EE72178254601F0DF011B
:10213000502900F0BF80C9F8005056E7179BC3F143
:1021400001031793179B002B97D0029BDDF8189083
:102150001E6900214B464FEA860809EB860003E022
:10216000984243F8041C40D91F4653F8042BB2F19F
:10217000FF3FF5D00132022D3A6000F0C28014F02A
:102180001F0440F0E180212579E7BA077FF575AF9C
:10219000069B1B681F43FB07D7D46EE700207DE733
:1021A000DDE90131221A9B1A18EE100A019300F0A2
:1021B00039FD03461433029006930027C2E6B35C50
:1021C00018F80310B018064600293FF453AE16F86D
:1021D000013F18F803100029F9D1801B81000191FB
:1021E00048E69C1C4FF0000A21E6029B9B689E4239
:1021F00080F28E803346029901EB830201330B613A
:10220000022D4FF0010151617BD09E42B7DA002BC5
:1022100040F3A780029A09EB8303516902F1180089
:1022200083424FEA510140F2AF804C46026841EAD6
:10223000C27144F8041B50F8041B83424FEA510159
:10224000F4D8029A9B1A193B9B08013349F82310D2
:1022500009EB8303002940F09B800299A3EB09025C
:1022600092104B450A617FD0039B019A9B68013213
:102270009342019287DA029918EE100A00F07EFA72
:10228000169A00231360A325B4E6012735E7069EBE
:102290004FF0000942E60298314600F073FF07460E
:1022A0002BE7B11E284600F06DFF00283FF415AF64
:1022B000032713E700230193012779E6AC427FF45B
:1022C0005BAE012C08D00298611E00F05BFF002875
:1022D0003FF452AE039B5B6807990B60029B069923
:1022E00001221A610A60169A6225136082E6179A23
:1022F000002A3FF441AEEFE7179A002A7FF43CAE84
:10230000EAE7039B1B68013BA34231D02225B6E6D6
:10231000029B596818EE100A013100F0EFF90746E8
:1023200000283DD002990B6902339A000C310C3021
:10233000FDF7B8FF029918EE100A00F01FFA07F136
:1023400014093B69029756E7C844C4F1200458F8C1
:10235000040C00F0E3FAA042BFF615AF029B1B6924
:1023600055E7029A00231361029A002353617BE729
:10237000631104F01F0459F823200123A3401342E2
:102380000CBF222521257AE6C9F800104B4669B119
:10239000043362E7074B0848029ADE2101F0CCFCC7
:1023A000044B05483A46842101F0C6FC029B1961A2
:1023B000DAE700BFC4BA0008D8BA000810B404684D
:1023C00009E014F8013FA3F1410CBCF1190F98BFCB
:1023D0002033934209D111F8012B002AF1D10134A5
:1023E000046001205DF8044B704700205DF8044B49
:1023F000704700BF2DE9F04F096885B04B1111F00F
:102400001F01029002EB8303039140F08E801D1F99
:102410000193029B01991C68002341F8043C6178F8
:102420000134002900F09780DFF87091A846AC468F
:102430009A461E460EE0202900F28B80B24506DA4D
:10244000C44501D2072B5BDD624551D3082314F844
:10245000011FA1B119F801000028ECD00133082BAD
:1024600006F101063ADCDCF80010090100F00F006B
:102470000843CCF8000014F8011F0029EAD1002E0F
:1024800069D0E04501D9072B73DD624551D2111F98
:10249000634653F8040B41F8040F9D42F9D2A5EBB3
:1024A0000C0323F00303691C04330CF1010C614598
:1024B00038BF04231344002143F8041B9D42FBD280
:1024C000019B53F8043C2BB9AA4248D055F8043D6F
:1024D000002BF9D0052005B0BDE8F08F6245B6D2DB
:1024E00000234CF8043C1946ACF1040C0123BDE771
:1024F0000023ACF104084CF8043CB246C446A6E7FD
:10250000C3F108018900DCF80030C1F1200E6046FB
:102510008B46416801FA0EF73B43036021FA0BF347
:1025200040F8043F4045F4D38EE7191D01911D4644
:102530006FE7039B002BC3D0039B0198C3F12001DD
:102540004FF0FF33CB4050F8041C0B4040F8043CE4
:10255000B9E7292909D0042005B0BDE8F08F01238F
:1025600005202B6005B0BDE8F08F029901340C60A6
:1025700085E7C3F108039B00DCF80010C3F12007D6
:102580006446666806FA07F00143216026FA03F103
:1025900044F8041FA045F4D877E700BFA8AF0008AF
:1025A000F0B58B890C46990797B007D504F147031E
:1025B0000122C4E90432236017B0F0BDB4F90E1053
:1025C000002905462DDB6A4601F010FC002827DBB8
:1025D000019E06F470464FF48067A6F50056B6FAE1
:1025E00086F639462846760900F06EFE30B3A38998
:1025F0001A4AAA6243F08003C4E90407A381206059
:10260000002ED9D0B4F90E10284601F07DFD002827
:10261000D2D0A38923F0030343F00103A381CBE7C6
:10262000A38913F0800F14BF40274FF48067394609
:102630002846002600F048FE0028D8D1B4F90C3016
:102640009A05B9D423F0030304F1470243F00203CF
:102650000121C4E90421A3812260ADE7851A0008A5
:1026600070B50C46B1F90E10002996B016461D46FD
:1026700013DB6A4601F0BAFB00280EDB019901F476
:102680007041A1F50051B1FA81F14FF4806349091D
:1026900000202960336016B070BDB4F90C30002200
:1026A0001B062A6004D540230020336016B070BD9D
:1026B0004FF480630020336016B070BD10B4034C3B
:1026C000D4F8E440A4465DF8044B6047680000205D
:1026D00082B049B15AB16BB113780B601278101EF9
:1026E00018BF012002B0704701A9002AF3D110469B
:1026F00002B070476FF00100F4E700BF70B5466AA2
:1027000005460C465EB1F368A3B153F82400E8B166
:10271000026843F824200023C0E9033370BD102071
:1027200001F01AFD06466862E8B10023C0E90133F2
:102730000360C36021220421284600F055FD6B6A26
:10274000F060DB68002BE0D1002070BD012101FAB0
:1027500004F6721D9200284600F046FD0028F3D0D2
:10276000C0E90146D7E7034B03483246662101F032
:10277000E3FA00BF24BB00083CBB000870B5456A03
:1027800004460E464DB13EB1636A7268DB6853F889
:102790002200306043F8226070BD102001F0DCFCA4
:1027A0000246606220B1C0E901550560C560EAE7F4
:1027B000024B03488A2101F0BFFA00BF24BB000886
:1027C0003CBB0008F0B50C69064683B00D4601F12C
:1027D000140E0020DEF800101FFA81FC02FB0C33FF
:1027E0004FEA134C090C02FB01CC01309BB203EB06
:1027F0000C4384424EF8043B4FEA1C43EADC3BB1F5
:10280000AA68A24207DD05EB8402013453612C6102
:10281000284603B0F0BD6968019301313046FFF7E7
:102820006DFF019B0746A0B12A6901930232920015
:1028300005F10C010C30FDF735FD294630463D46CB
:10284000FFF79CFF05EB8402019B536101342C616F
:10285000DEE7034B03483A46B52101F06DFA00BFAD
:10286000C4BA00083CBB00082DE9F8430C462849CF
:102870001F46164603F1080281FB0231092F4FEA79
:10288000E2730546C3EB610339DD4FF0010C002113
:102890004FEA4C0C634501F10101F9DC2846FFF7D2
:1028A0002DFF014668B3089B4361092E4FF00103D9
:1028B000036112DC0A340926B7420BDDBE1B264435
:1028C00014F8013B0A22303B2846FFF77BFFA64263
:1028D0000146F5D10846BDE8F88304F10909C84668
:1028E000344418F8013B0A22303B2846FFF76AFFC0
:1028F000A0450146F5D1A6F108044C44DCE70021CF
:10290000CCE70A46034B0448CE2101F015FA00BF7C
:10291000398EE338C4BA00083CBB0008030C1B0422
:10292000D3B90004102310F07F4F04BF0002083316
:1029300010F0704F04BF0001043310F0404F04BF8B
:1029400080000233002805DB10F0804F03F1010303
:1029500008BF2023184670470023E4E7036813F0FC
:102960000702014607D0DA071FD4980721D55B0874
:102970000B600120704798B2A0B11046DAB20AB9D4
:1029800008301B0A1A0704BF1B0904309A0704BF4A
:102990009B080230DA0703D45B0800F1010006D07F
:1029A0000B6070471B0C1020E8E7002070472020C8
:1029B00070479B080B600220704700BF10B50C46A3
:1029C0000121FFF79BFE024618B10123C0E9043440
:1029D00010BD034B03484FF4A07101F0ADF900BFE7
:1029E000C4BA00083CBB00082DE9F04F0E69156918
:1029F000AE4285B08846144605DB2A462346354656
:102A00000C4616469846A3686168AF19BB42B8BF2A
:102A10000131FFF773FE0190002800F08780019BD1
:102A200003F1140909EB870AD14505D24B46002270
:102A300043F8042B9A45FBD808F1140808EB860BE1
:102A400004F11403D8451A4603EB85055FD22B1B0E
:102A5000153B23F0030304331534A54238BF042388
:102A6000CDE902A7AC461F46924605E0000C29D1ED
:102A7000C34509F1040948D958F8040B85B2002D63
:102A8000F4D056464C46002356F8040B216882B217
:102A90001FFA81FE05FB02EE000C0A0C734405FBD5
:102AA000002202EB13429BB243EA0243B44544F8CE
:102AB000043B4FEA1243E7D849F8073058F8040CB2
:102AC000000CD5D0D9F80030544619464D460022A6
:102AD0002688090C00FB06110A449BB243EA024314
:102AE00045F8043B54F8046B2968360C8BB200FBA4
:102AF000063303EB1243A4454FEA1342E8D8C3451B
:102B000049F8073009F10409B6D8DDE902A7002F1A
:102B100002DC05E0013F03D05AF8043D002BF9D058
:102B2000019B18461F6105B0BDE8F08F034B0448B8
:102B3000019A40F25D1101F0FFF800BFC4BA00082D
:102B40003CBB00082DE9F04112F0030382B01446AB
:102B500007462DD10E46A4101CD07A6A8AB3956818
:102B6000002D39D0E3074FF0000806D4641011D0CF
:102B7000286898B10546E307F8D531462A46384615
:102B8000FFF732FF3146034638461E46FFF7F6FD93
:102B90006410EDD1304602B0BDE8F0812A462946E6
:102BA0003846FFF721FF2860C0F800800546E2E7BD
:102BB000013B184A52F823200023FFF703FE064684
:102BC000C9E7102001F0C8FA02467862E0B100239C
:102BD000C0E901330360C360012138460192FFF769
:102BE0008DFD019A054640B1012340F27121C0E9F3
:102BF0000431002390600360B4E7074B07482A467E
:102C00004FF4A07101F098F8054B04484FF4D771C8
:102C100001F092F8B8B00008C4BA00083CBB000844
:102C200024BB00082DE9F0470D4691462F69AB689B
:102C3000496807EB62177C1C9C4280464FEA621A87
:102C400004DD5B009C4201F10101FADC4046FFF724
:102C500055FD064600284DD0BAF1000F00F11400D2
:102C60000EDD0AF105024FEA820C034606EB8202F2
:102C7000002143F8041B9342FBD1ACF11403184428
:102C8000296905F1140319F01F0903EB810129D00B
:102C9000C9F1200E84464FF0000A1A6802FA09F2C0
:102CA00042EA0A024CF8042B53F8042B994222FA08
:102CB0000EFAF2D84B1B153B23F00303043305F146
:102CC0001502914238BF0423BAF1000F18BF2746FE
:102CD00040F803A0404637612946FFF74FFD3046D4
:102CE000BDE8F087043853F8042B40F8042F9942CC
:102CF000F9D8EFE7034B0448324640F2D91101F00E
:102D00001BF800BFC4BA00083CBB00080B6984462E
:102D10000069C01A16D10CF1140C14310CEB8302AB
:102D200010B401EB830301E0944508D252F8044D3E
:102D300053F8041D8C42F7D005D24FF0FF305DF8F8
:102D4000044B7047704701205DF8044B704700BF8B
:102D50002DE9F84F0F691369FF1A002F0E469046B0
:102D60007AD101F11405143202EB830205EB8303DF
:102D700001E09D4273D253F8041D52F8044DA14264
:102D8000F7D064D37168FFF7B9FC8146002872D090
:102D90003569D8F81020C76008F1140E06F1140048
:102DA00009F1140A06F1100C0EEB820200EB850704
:102DB000564600215EF8044B5CF804BFA3B211FA3A
:102DC0008BF1CB1A210CC1EB1B4101EB23419BB2D0
:102DD00043EA0143724546F8043B4FEA2141E9D8F2
:102DE000A2EB0804153C08F11508424524F003063F
:102DF00006F1040638BF0426304424F0030238BF2D
:102E0000002287425244B24416D95646044654F82A
:102E1000043B11FA83F10A1402EB134289B241EA2E
:102E20000243A74246F8043B4FEA2241EFD87A1EFC
:102E3000101A20F00302524423B952F8043D013D18
:102E4000002BFAD0C9F810504846BDE8F88F334639
:102E500001274646984695E7F9DB002792E70021CF
:102E6000FFF74CFC814668B101220023C9E9042325
:102E70004846BDE8F88F074B07484A464FF41071A3
:102E800000F05AFF034B04484A4640F2322100F05A
:102E900053FF00BFC4BA00083CBB000882B08DEDF0
:102EA000000B154B019A1340A3F15073002B05DD65
:102EB0000020194641EC100B02B070475B42B3F1A1
:102EC000A07F4FEA235208DA4FF40023002043FA90
:102ED00002F141EC100B02B07047143A1E2ADABF1F
:102EE0004FF0004323FA02F201220021104641EC88
:102EF000100B02B0704700BF0000F07FF8B5046906
:102F000000F1140606EB8404271F54F8045C2846DD
:102F1000FFF704FDC0F120030A280B6031DDBE423B
:102F20001BD20B3854F8081C23D0C0F1200C85406C
:102F300021FA0CF72F43A4F1080547F07F53AE4266
:102F400043F4401336D2814054F80C0C20FA0CF0B4
:102F50000843024643EC102BF8BD0B3808D005FAA5
:102F600000F040F07F53002043F440130246F1E7A5
:102F7000014645F07F5343F440130A4643EC102BBF
:102F8000F8BDC0F10B0C25FA0CF1BE4241F07F53A5
:102F900038BF54F8081C00F1150034BF21FA0CF1B9
:102FA000002105FA00F043F4401340EA010243EC2B
:102FB000102BF8BD01FA00F00246CBE72DE9F043F3
:102FC000884683B0012157EC106B1546FFF796FB3E
:102FD000044600284FD0C7F30A59C7F31303B9F1C9
:102FE000000F01D043F48013002E019324D06846D3
:102FF0000096FFF7B3FC002839D0DDE90013C0F1DB
:10300000200203FA02F20A43C34062610193002BDB
:1030100014BF02220122A3612261B9F1000F16D070
:10302000A9F233430344C0F13500C8F800302860EA
:10303000204603B0BDE8F08301A8FFF78FFC019B99
:103040006361012220302261B9F1000FE8D104EB65
:103050008203A0F23240C8F800001869FFF75EFC56
:10306000C0EB42102860204603B0BDE8F083009B0F
:103070006361019BCBE7034B0348224640F20A31D0
:1030800000F05AFEC4BA00083CBB00082DE9F0432A
:1030900083B00E4669460746FFF730FF01A9304668
:1030A00055EC104BFFF72AFF3B693169591ADDE9EE
:1030B0000023D31A03EB4113002B51EC100B0DDD51
:1030C00005EB03594D4602460B462046294602F0C1
:1030D00023FD41EC100B03B0BDE8F083C3EB0333D9
:1030E00001EB03573946EEE7172870B506460CDDAD
:1030F0000A490B4D0020002422462B4602F0E2FB39
:10310000013EF9D141EC100B70BD064B03EBC0063C
:10311000D6E9040141EC100B70BD00BF0000F03F88
:1031200000002440B8B000080139491101F1010C38
:10313000116902F1140303EB81018B4200EB8C0C4B
:1031400016D210B5A0F1040E53F8044B4EF8044FFC
:103150009942F9D88B1A153B23F003030433184422
:10316000844504D9002340F8043B8445FBD810BDB6
:10317000844505D9002340F8043B8445FBD87047BB
:10318000704700BF03694A11934200F1140009DA45
:1031900000EB830302E053F8042DCAB98342FAD846
:1031A0000020704711DD11F01F010ED010B450F84F
:1031B000224000EB820324FA01F202FA01F18C4270
:1031C0000CD001205DF8044B704700EB8203E5E76B
:1031D0000120704753F8042D002AF2D18342F9D818
:1031E00000205DF8044B704738B502FB01F5294615
:1031F00000F06AF8044618B12A460021FDF7ECF801
:10320000204638BD002958D030B551F8043C83B071
:10321000002BA1F10404B8BFE418019001F07CF880
:10322000284A0198136833B1A3420DD9216804EBF1
:10323000010C63452FD06360146003B0BDE83040DB
:1032400001F06CB8A34210D81A465B68002BF9D184
:10325000116802EB010C644519D02FD363605460F0
:1032600003B0BDE8304001F059B8116802EB010C21
:10327000A44516D022D8216804EB010C6345EDD19A
:103280001D685B682944C4E900135460D5E72368CE
:1032900019441160D1E71D685B682944C4E9001333
:1032A000CAE7246821445418A3421160C5D1D3E968
:1032B00000432144C2E90013BFE770470C230360B9
:1032C000BBE700BF14020020F8B5CD1C25F00305B4
:1032D00008350C2D38BF0C25002D064623DBA942EE
:1032E00021D8254F01F018F83A6822B3144603E0BC
:1032F00063682246FBB11C4623685B1BF8D40B2B8A
:1033000015D8636894420CBF3B605360304601F0AF
:1033100005F804F10B00231D20F00700C21A01D0AC
:103320001B1AA350F8BD0C2333600020F8BD2360A6
:103330001C442560EAE77968C9B12946304600F0A7
:10334000A7FB431C0CD0C41C24F00304A04205D0EE
:10335000211A304600F09CFB013001D02560D5E7F2
:103360000C233046336000F0D9FF0020F8BD304612
:1033700000F08EFB7860E0E7140200209368013BC8
:10338000002B936011DA10B49469A34209DB0A2977
:1033900007D01368581C1060197008465DF8044B7C
:1033A00070475DF8044BFEF791B91368581C106024
:1033B00019700846704700BF9BB1F8B51344064624
:1033C0000F46541E5D1E01E0AC4208D014F8011FE8
:1033D0003A463046FFF7D2FF431CF5D1F8BD002036
:1033E000F8BD0020704700BF936810B5144613B9AC
:1033F0005360184610BD00F00FFD0023C4E90133EF
:1034000010BD00BF2DE9F04F88469FB015461C4601
:10341000814618B18369002B00F0A280924B984539
:1034200000F0A480914B984500F0B180904B9845F6
:1034300008BFD9F80C80B8F80C30180740F19D800F
:10344000D8F81030002B00F0988000230B932978D7
:10345000884E059420238DF8313030238DF832309A
:103460000127002974D02C460B4604E014F8013FD4
:10347000002B00F08F80252BF8D1B4EB050B40F02A
:103480008C802378002B63D000234FF0FF32CDE9EE
:103490000723069309938DF85B301C93013404E0F5
:1034A000069A07FA03F3134306932546052214F8F8
:1034B000011B304600F064FE831B0028F0D1069B00
:1034C000D90644BF20228DF85B2029781A0744BF13
:1034D0002B228DF85B202A2970D1059A11680432BD
:1034E00000290592C0F29B800991697801352E2947
:1034F00076D0614C0322204600F042FE38B1069B94
:10350000001B402404FA00F003430693013515F82C
:10351000011B5A488DF83010062200F031FE0028B9
:1035200000F08380564B002B6DD005AA0092554BBE
:10353000424606A94846AFF300800390039B01333F
:1035400006D00B9B039A297813440B9300298AD148
:10355000B8F80C305B0617D40B981FB0BDE8F08F9D
:10356000FEF78AFB404B98457FF45CAFD9F80480A6
:10357000B8F80C3018073FF563AF41464846FEF7F0
:1035800009F900283FF461AF4FF0FF30E5E7D9F8C3
:10359000088050E7B4EB050BDAD0AA46C5F1010567
:1035A00003E0934536D91AF8011F42464846FFF713
:1035B000E5FE013005EB0A02F3D1C9E7A1F13002C3
:1035C000092A94D8099B15F8011F03EB830302EB2A
:1035D0004303A1F13002092AF5D92E29099388D194
:1035E00069782A292BD1059BA9781A680792043398
:1035F000002A05F102000593B8BF4FF0FF330546DE
:10360000B8BF079375E7059B073323F0070308331B
:10361000059396E70B9A23785A440B9232E7494276
:1036200043F00203099106935FE705AA0092154B48
:10363000424606A9484600F0CBF803907EE7A1F188
:1036400030020023092A079305F101053FF651AF27
:1036500015F8011F03EB830302EB4303A1F13002D2
:10366000092AF5D9079344E788AF000868AF000836
:1036700048AF000870BB000878BB00087CBB00089E
:1036800000000000B933000810B4054C844613460E
:1036900020685DF8044B0A466146FFF7B3BE00BFE1
:1036A000000000202DE9F84F92461F460A698B68FA
:1036B000DDF828909A42B8BF1A46CAF8002091F85F
:1036C00043300C46064613B10132CAF80020226886
:1036D00091065DD5DAF800300233CAF8003022686E
:1036E00012F0060F11461ED1E168CB1A002BD8BF8D
:1036F000114618DD04F1190B4FF0000805E0E568EC
:10370000DAF80030ED1A45450CDD01235A463946FA
:103710003046C847013008F10108F0D14FF0FF30C2
:10372000BDE8F88F216894F84330003B18BF0123AF
:103730008A060AD5E1185A1C302081F84300224439
:1037400094F8451082F84310023304F143023946DD
:103750003046C8470130E1D0236803F00603042B4C
:103760001DD0A3682269934225DD4FF000089B1A03
:1037700098441A34002501E045451CDA012322460D
:1037800039463046C847013005F10105F4D1C5E797
:1037900012F0060F12D0003B18BF0123D5E7DAF86C
:1037A0000030E1682269C91AA368934221EAE178EE
:1037B000DDDC0029DDDC0020BDE8F88FE168DAF807
:1037C0000030CB1A002BD8BF114693DCABE700BF0B
:1037D0002DE9F0470C4684B09046227E0C990746AE
:1037E000994604F14300002A33D0A2F15803DDB218
:1037F000202D67D8202B65D8DFE813F0DE006400A9
:103800006400640064006400640064006400640098
:103810006400A3006E0064006400640064006E0035
:10382000640064006400640021007F00C000640044
:103830006400AE0064007F0064006400E50023685B
:103840001A0640F104810B6862691D1D0D601B683A
:103850001A60002382462361CDF80090434603AAF4
:1038600021463846FFF71EFF013020D0236952461B
:1038700041463846C847013019D02368E068039EA6
:103880009B0719D5831B002B16DD04F1190A0025AF
:1038900004E0E068039E831BAB420DDD012352462A
:1038A00041463846C847013005F10105F1D14FF0D6
:1038B000FF3004B0BDE8F087B042B8BF304604B076
:1038C000BDE8F087012384F84220236104F1420A15
:1038D000002384F84330BFE723681A0602D45E064B
:1038E00000F1C1800D682A6804350D601546002A74
:1038F0006BDBDFF884C10A2610E023681D0640F167
:103900009C800B681D1D0D601D68DFF86CC16F2A5F
:103910000CBF08260A26002384F843306268A260A0
:10392000002A7FDB236823F004032360002D5BD192
:10393000002A79D18246082E65D0A0EB0A002061CA
:103940008AE70B680122186804330B6004F1420A0D
:1039500084F842002261BBE70B686268181D0860AA
:10396000D3F800A00021504600F00AFC002800F027
:103970008180A0EB0A0060602061A9E7236843F022
:10398000200323607822DFF8F4C084F845200A6819
:10399000151D0D601D0643D4590641D51588DE0757
:1039A00044BF43F020032360002D44D1236823F05B
:1039B000200323601026AEE7582384F84530DFF853
:1039C000B8C02368E3E72368DCE76268A2602D21C2
:1039D000002AC5F1000584F8431002DB23F004033C
:1039E0002360DFF894C00A268246B5FBF6F306FB97
:1039F00013512A461CF801100AF8011DB2421D4657
:103A0000F3D2082E99D12368D90796D56268236925
:103A10009A4292DC30230AF8013C0AF1FF3A8CE723
:103A20001568BCE7002DDFD19CF8003084F84230E7
:103A300004F1420A7FE710266DE713F0400F0B6890
:103A400003F104050D600CBF1D681D885DE713F0D0
:103A5000400F0B68626903F104050D601B6814BF19
:103A60001A801A60F5E60A68B2F9005004320A605A
:103A70002A463CE760687FE784BB000898BB0008E3
:103A80009FED010B704700BF000000000000F87FB1
:103A900038B5074D0022044608462A6005F042F872
:103AA000431C00D038BD2B68002BFBD0236038BDF1
:103AB0001C0200209FED010A704700BF0000C07F7C
:103AC00010B50C46B1F90E1000F052FC002803DBD3
:103AD000636D0344636510BDA38923F48053A38100
:103AE00010BD00BF002070472DE9F0410C46B1F930
:103AF0000C101F46CB05054616460BD421F4805109
:103B0000A1813B46B4F90E1032462846BDE8F0418B
:103B100000F0FCB8B4F90E100223002200F006FBFE
:103B2000B4F90C10EAE700BF10B50C46B1F90E105D
:103B300000F0FCFAA389421C0EBF23F4805343F427
:103B400080536065A38110BDB1F90E1000F01AB961
:103B50000000000000000000000000000000000065
:103B60000000000000000000000000000000000055
:103B70000000000000000000000000000000000045
:103B800090F800F06DE9024520F007016FF0000C9D
:103B900010F0070491F820F040F049804FF0000445
:103BA0006FF00700D1E9002391F840F000F1080020
:103BB00082FA4CF2A4FA8CF283FA4CF3A2FA8CF358
:103BC0004BBBD1E9022382FA4CF200F10800A4FABF
:103BD0008CF283FA4CF3A2FA8CF3E3B9D1E9042313
:103BE00082FA4CF200F10800A4FA8CF283FA4CF34A
:103BF000A2FA8CF37BB9D1E9062301F1200182FA04
:103C00004CF200F10800A4FA8CF283FA4CF3A2FA09
:103C10008CF3002BC6D0002A04BF04301A4612BA17
:103C2000B2FA82F2FDE8024500EBD2007047D1E91A
:103C3000002304F00305C4F100004FEAC50514F0A9
:103C4000040F91F840F00CFA05F562EA05021CBF7A
:103C500063EA050362464FF00004A9E7A2B330B55A
:103C600040EA0104A40784460B462AD09CF80000D1
:103C70000C7884422FD1012A0DD0E64660B11EF89F
:103C8000010F11F8014F6FEA0E03A042134422D135
:103C90001CEB0303F2D1002030BD0468194653F831
:103CA000045BA4F1013EAC4284462EEA040E00F10E
:103CB00004000BD1043A84461946ECD01EF0803F34
:103CC000E9D1032AE9D8D1E7104670479CF80000F3
:103CD0000C78A042D1D0001B30BD00BF10B4034C03
:103CE000D4F8E040A4465DF8044B6047680000202B
:103CF00049B1FF2A02D80A70012070478A23036065
:103D00004FF0FF3070470846704700BF38B50C468B
:103D1000084D8446114620461A4600232B6064460F
:103D200004F044FF431C00D038BD2B68002BFBD0AF
:103D3000236038BD1C02002000B50B4C25681446DA
:103D4000EE681A4685B003460D464CB1074900950A
:103D5000CDE901143046064900F034F800F01EFBAE
:103D600004490C46F3E700BF00000020ACBB00088C
:103D7000BCBB0008B0B9000808B513460022FFF725
:103D8000DBFF00BF38B5074D0022044608462A6015
:103D900004F01AFF431C00D038BD2B68002BFBD069
:103DA000236038BD1C0200200CB400B583B004AB06
:103DB00053F8042B0193FFF725FB03B05DF804EBE8
:103DC00002B070470EB410B583B005AB064C53F883
:103DD000042B019301462068FFF714FB03B0BDE8F4
:103DE000104003B0704700BF0000002070B50C46C3
:103DF000084D03460026204611461C462E6004F05E
:103E0000E6FE431C00D070BD2B68002BFBD0236066
:103E100070BD00BF1C0200209368002B00F085805D
:103E20002DE9F04FB1F90C300C461907804683B0EC
:103E3000174698B225D523691BB310F002033D68DD
:103E40002DD04FF0000ADFF8BCB25646B9465E45A9
:103E50003346524628BF5B464046002E52D0216A68
:103E6000A76AB847002856DDD9F808301B1A8244E3
:103E7000361AC9F80830002BE9D1002003B0BDE89C
:103E8000F08F21464046FDF785FC002840F0368142
:103E9000B4F90C303D6898B210F00203D1D110F0A3
:103EA000010944D14E46009746B38205D4F808B0C4
:103EB00040F18380B3455A4600F2B28010F4906F0F
:103EC00040F0BF8020680192494600F0A9F9A3683C
:103ED000019AA3EB0B012368A1601344B24623604F
:103EE0000026009B9868A0EB0A00D1449860002847
:103EF000C3D0B4F90C0080B2002ED6D1D5E900961B
:103F00000835D1E7D5E900A60835A0E721464046A7
:103F1000FDF74CFD80B3B4F90C3043F040034FF093
:103F2000FF30A38103B0BDE8F08F002070471E462C
:103F3000AA46994618461D46009756B388B34A4686
:103F4000D4E904132068B24228BF3246884205D91A
:103F5000A16803EB010B5A4500F3A680934263DC92
:103F6000216AA76A2A464046B847B0F1000BD2DD65
:103F7000B9EB0B09CAD00120009A9368A3EB0B039D
:103F80005D44A6EB0B069360002B3FF476AF002E4A
:103F9000D4D10AF1080353E902569A460833002E99
:103FA000F9D032460A21284600F0EAF8002800F04D
:103FB0009C800130A0EB0509C1E720682369984285
:103FC00016D86369B34213D86FF00042B24228BFDB
:103FD0003246216A92FBF3F2A76A02FB03F34046E2
:103FE0004A46B847B0F1000A95DDA6EB0A0678E725
:103FF000B345DA4628BFB2465246494600F010F9AA
:10400000A3682268A3EB0A035244A3602260002B3A
:10401000EBD121464046FDF7C9FC0028E5D07AE700
:104020002068B34632464EE72946019200F0F8F880
:10403000019AA3689B1AA3602368134423609346E4
:1040400096E723682169A3EB010B636903EB430A3D
:104050000AEBDA7A0BF101034FEA6A0A334453455B
:10406000524684BF9A46524643052CD511464046D7
:10407000FFF72AF900283BD05A4621690190FCF746
:1040800011F9A289019B22F4906242F08002A28180
:1040900003EB0B002361AAEB0B03C4F814A0A3608D
:1040A0002060B34632460EE729465A4600F0B8F87B
:1040B00023685B44236021464046FDF777FC0028D7
:1040C0003FF456AF27E7404600F02AF903460028A0
:1040D000DED121694046FFF795F8B4F90C300C2287
:1040E00023F08003C8F8002017E7721C914627E7E9
:1040F0000C22B4F90C30C8F800200EE74FF0FF3066
:10410000BCE600BF00FCFF7F38B5074D0022044627
:1041100008462A6004F060FD431C00D038BD2B68BF
:10412000002BFBD0236038BD1C02002038B50C46A4
:10413000084D8446114620461A4600232B606446EB
:1041400004F04CFD431C00D038BD2B68002BFBD085
:10415000236038BD1C020020024B01461868FFF79F
:10416000B3B800BF00000020024B01461868FFF7FB
:1041700049B800BF0000002000000000000000005F
:1041800001F0FF01102A2BDB10F0070F08D010F808
:10419000013B013A8B422DD010F0070F42B3F6D10C
:1041A000F0B441EA012141EA014122F007047FF025
:1041B00000070023F0E80256083C85EA010586EA7C
:1041C000010685FA47F5A3FA87F586FA47F6A5FAB8
:1041D00087F68EB9EED1F0BC01F0FF0102F00702C4
:1041E00032B110F8013B013A83EA010313B1F8D16F
:1041F0000020704701387047002D06BF3546033850
:10420000073815F0010F07D1013015F4807F02BF88
:10421000013015F4C03F0130F0BC0138704700BFD9
:1042200088420DD98B1883420AD900EB020CBAB12F
:10423000624613F801CD02F801CD9942F9D17047D9
:104240000F2A0ED8034602F1FF3C4AB10CF1010CD3
:10425000013B8C4411F8012B03F8012F6145F9D182
:10426000704740EA01039B0750D1A2F1100370B5DB
:1042700001F1200C23F00F0501F1100E00F11004E4
:10428000AC441B095EF8105C44F8105C5EF80C5CF2
:1042900044F80C5C5EF8085C44F8085C5EF8045C6A
:1042A00044F8045C0EF1100EE64504F11004E9D167
:1042B000013312F00C0F01EB031102F00F0400EBBD
:1042C000031327D0043C24F003064FEA940C1E4449
:1042D0001C1F8E465EF8045B44F8045FB442F9D1BB
:1042E0000CF1010402F0030203EB840301EB8401EF
:1042F00002F1FF3C4AB10CF1010C013B8C4411F876
:10430000012B03F8012F6145F9D170BD02F1FF3C8B
:1043100003469BE72246EBE7704700BF704700BFAC
:10432000F8B51446F9B1CAB106460D4600F03EF89C
:10433000A04202D32F463846F8BD21463046FEF74C
:10434000C3FF07460028F6D022462946FBF7AAFFFE
:1043500030462946FEF756FF3846F8BD2746FEF799
:1043600051FF3846F8BDBDE8F8401146FEF7ACBF36
:1043700038B50C46084D8446114620461A4600239F
:104380002B60644604F002FC431C00D038BD2B684F
:10439000002BFBD0236038BD1C02002008B506208E
:1043A00000F0A2F8012004F0EBFB00BF51F8040C70
:1043B0000028A0F10400BCBF0B58C018704700BF14
:1043C00038B5446C0CB1002038BD80210546FEF79D
:1043D0007BFF0246686430B1031F7C3243F8044F10
:1043E0009342FBD1EFE74FF0FF3038BD1F29F8B5FE
:1043F000054608D8466C0C4617464EB156F82400C0
:1044000046F82470F8BD162303604FF0FF30F8BD66
:104410008021FEF759FF0646686440B1031F00F192
:104420007C05002143F8041F9D42FBD1E6E74FF0D5
:10443000FF30F8BD1F2938B5054620D8426C0C4620
:104440006AB152F8213053B1012B16D0591C10D04B
:104450000025204642F824509847284638BD284673
:1044600000F0F8F8224601462846BDE8384000F042
:10447000DBB816230360012038BD002038BD1623A9
:1044800003604FF0FF3038BD1F292AD8426C38B581
:104490000C46054682B152F8243002EB84024BB13F
:1044A000591C19D0012B15D00025204615609847BE
:1044B000284638BD012038BD8021FEF705FF0246A1
:1044C000686458B1031F00217C3043F8041F9842F0
:1044D000FBD1E0E7032038BD022038BD4FF0FF30AC
:1044E00038BD4FF0FF30704738B5144B1F281D689A
:1044F0001FD86A6C044662B152F820304BB1012BD0
:1045000015D0591C0FD0002542F820509847284656
:1045100038BD284600F09EF8224601462846BDE8F0
:10452000384000F081B816232B60012038BD0020F0
:1045300038BD16232B604FF0FF3038BD000000203F
:10454000124B1F2870B51E6808D80D46716C0446C2
:1045500049B151F8240041F8245070BD162333604E
:104560004FF0FF3070BD80213046FEF7ADFE0146B2
:10457000706440B1031F00F17C0C002243F8042F4B
:104580006345FBD1E5E74FF0FF3070BD0000002030
:1045900038B50B4B1D686C6C0CB1002038BD802108
:1045A0002846FEF791FE686438B1031F00F17C02D3
:1045B00043F8044F9342FBD1EFE74FF0FF3038BD93
:1045C0000000002038B5174B1F281D6826D86A6CDC
:1045D000044682B152F8243002EB84024BB1591CDC
:1045E0001AD0012B16D00025204615609847284682
:1045F00038BD012038BD80212846FEF765FE024601
:10460000686458B1031F00217C3043F8041F8342C3
:10461000FBD1DFE7032038BD022038BD4FF0FF306B
:1046200038BD00BF0000002070B50C46084D0346A1
:104630000026204611461C462E6004F099FA431CC1
:1046400000D070BD2B68002BFBD0236070BD00BF75
:104650001C02002004F08ABA10EE103A184A23F027
:10466000004393421BDDB3F1FF4F02DB30EE400A03
:10467000704700B583B0684600F0B8F900F0030059
:104680000128DDED010A9DED000A0CD0022812D0B0
:1046900070B1012000F098FE03B05DF804FBDFED7F
:1046A000090A00F0D5BA00F08FFEB1EE400AF3E738
:1046B00000F0CEFAF0E700F0CBFAB1EE400AEBE7FB
:1046C000D80F493F0000000010EE102AC2F3C75374
:1046D0007F3B162B22F0004128DC002B18DB1A4907
:1046E00019410A4221D0DFED197A70EE277AF5EEF2
:1046F000C07AF1EE10FA18DD002A04DA4FF4000057
:1047000040FA03F31A4422EA010300EE103A70471C
:10471000DFED0E7A70EE277AF5EEC07AF1EE10FA40
:1047200003DD002A08DB9FED0A0A7047B1F1FF4F55
:10473000FBD330EE000A7047FFEE007A002918BF65
:10474000B0EE670A704700BFFFFF7F00CAF24971F1
:104750000000000008B52DED028BF0EE408AB0EEAF
:10476000608A00F033F820B9B0EE480ABDEC028B45
:1047700008BDB0EE480A00F029F820B1F4EEC88A6E
:10478000F1EE10FAF0DDB0EE680ABDEC028B08BD68
:1047900008B52DED028BF0EE408AB0EE608A00F095
:1047A00015F820B9B0EE480ABDEC028B08BDB0EE9A
:1047B000480A00F00BF820B1F4EEC88AF1EE10FAC6
:1047C000F0D5B0EE680ABDEC028B08BD10EE103AD1
:1047D00033F000400ED0A0F50003B3F1FE4F0DD32F
:1047E000074B421E9A4207D9A0F1FF40B0FA80F071
:1047F000400970470220704703207047042070472B
:10480000FEFF7F0010EE103A194A23F00043934256
:104810001CDDB3F1FF4F02DB30EE400A704700B5FC
:1048200083B0684600F0E2F800F003000128DDEDF7
:10483000010A9DED000A0ED0022813D070B100F0DD
:1048400007FAB1EE400A03B05DF804FBDFED090A98
:10485000002000F0B9BD00F0FBF9F4E7012000F002
:10486000B3FDF0E7012000F0AFFDB1EE400AEAE74A
:10487000D80F493F0000000008B52DED028BF0EE87
:10488000408AB0EE608A00F021F80E4B93F90030B8
:1048900001330BD0F4EE488AF1EE10FA06D6DFEDC4
:1048A0000A8AB4EE688AF1EE10FA02D0BDEC028BEF
:1048B00008BDFBF7CDFC88EEA80ABDEC028B2123D6
:1048C000036008BDD40100200000000030B583B0B3
:1048D000CDED010A019D35F0004041D010EE10EA07
:1048E0002EF00043B3F1FF4F3ADAB0F1FF4F37DC5F
:1048F00083423BDB0EF000443AD01EF0FF4F56D10E
:10490000190200296FF07D0204DD4900002902F13F
:10491000FF32FADC15F0FF4F57D101026FF07D0C2A
:1049200003D449000CF1FF3CFBD512F17E0F47DBAD
:10493000CEF3160343F400031CF17E0F3ADBC5F3FC
:10494000160040F40000B2EB0C0204D117E00FD0C7
:104950004B00013A13D0191A0029F8DA5B00F8E786
:10496000DDED017A60EE277A87EEA70A03B030BD4D
:104970001D4B03EB547393ED000A03B030BD181ABE
:1049800058BF03461BB9F3E75B000CF1FF3CB3F5DE
:10499000000FF9DB1CF17E0F1CDBA3F500030CF10B
:1049A0007F0C234343EACC5300EE103ADEE7DA15DE
:1049B0007F3AAFE76FF07D01A1EB0C018840C2E7C1
:1049C0006FF07D01891A8B40B6E74FEAE05CACF1ED
:1049D0007F0CAAE76FF07D02A2EB0C0C43FA0CF3FC
:1049E000234300EE103AC1E7E4B2000870B510EEC0
:1049F000103A894A23F00044944286B0054670DD9F
:104A0000864A944210EE106A22DC002BDFED847A95
:104A1000844A24F00F04B0EE407A40F3E4809442DC
:104A200070EE677A09BFDFED806A9FED807A9FEDB7
:104A3000807A77EEE67A012077EEC76A77EEE67A3B
:104A4000C5ED006A77EEC77AC5ED017A06B070BD94
:104A5000784A944254DDB4F1FF4F49DAE215863AC0
:104A6000A4EBC25307EE903ABDEEE77ADFED726A2F
:104A7000B8EEC77A77EEC77A8DED037A67EEA67A3D
:104A8000BDEEE77AB8EEC77A77EEC77A8DED047A95
:104A900067EEA67AF5EE407AF1EE10FACDED057AE2
:104AA00040F09080B5EE407AF1EE10FA14BF022388
:104AB0000123624901910221009103A8294600F0D7
:104AC00049F9002EC2DA95ED007AD5ED017AB1EE02
:104AD000477AF1EE677A85ED007AC5ED017A4042BA
:104AE000B4E7002285ED000A4260002006B070BDE8
:104AF00070EE407A0020C5ED017AC5ED007AA5E799
:104B000000F0AAFC9FED4E7A9FED456AF6EE007A22
:104B1000E0EE077A9FED457AFDEEE77A17EE900A10
:104B2000F8EEE76A1F28A6EEC60A66EE877AB1EEAF
:104B3000666A1EDC434A411E24F0FF0352F821201E
:104B4000934216D030EE677A85ED007A30EE470A50
:104B5000002E30EE670A85ED010ABFF677AFB1EEA1
:104B6000477AB1EE400A85ED007A85ED010A4042B0
:104B70006CE730EE677AE21517EE103AC3F3C753CD
:104B8000C3EBD454082CDFDDDFED277A9FED287AC4
:104B9000F0EE405AE6EE275A30EE650AA6EE270AF6
:104BA000F0EE407AD6EE877A35EEE77A17EE103AD5
:104BB000C3F3C753D21A192A06DCB0EE650A85ED95
:104BC000007AC3E7032374E79FED1F7A9FED1F5A16
:104BD000B0EE650AA6EE070A75EEC07AE6EE077A31
:104BE000D6EE857AAEE7944270EE277A09BFDFED04
:104BF0000E6A9FED0E7A9FED0E7A77EEA67A4FF051
:104C0000FF3077EE876A77EEE67AC5ED006A77EED9
:104C1000877AC5ED017A19E7D80F493FE3CB1640F3
:104C2000800FC93FD00FC93F004435374344353763
:104C300008A3852E800F4943000080436CB3000811
:104C400084F9223FECB2000800A3852E32318D2476
:104C500010EE103A23F00043B3F1485F2CDAFDEE7A
:104C6000C07A17EE903A002B60D020EE007ADFED8C
:104C7000317A9FED315ADFED315A9FED316ADFED28
:104C8000316AA7EE275ADFED307AE7EE055AA7EE34
:104C9000256AE7EE067AE7EE276A67EE266A60EE97
:104CA000C00AF6EE007AE7EE260AB7EE000AD7EE63
:104CB000270A30EE600A704720EE007ADFED1D7A99
:104CC0009FED1D5ADFED1D5A9FED1D6ADFED1D6A38
:104CD0001E4AA7EE275A9342DFED1B7AE5EE075AEC
:104CE000A5EE876AE6EE077AE7EE876A66EE876AE0
:104CF000D5DD174A934214DC03F17F4307EE903A67
:104D0000B7EE006A36EE676A60EEC00AF6EE005A49
:104D1000D7EE257AE7EE260A77EEE00A36EE600A4D
:104D20007047B6EE076AF5EE027AEDE7B7EE000AD5
:104D3000704700BF4ED747ADF6740F317CF293B485
:104D4000010DD037ABAA2A3D610BB6BA9999993EAD
:104D50000000483F2DE9F04F2DED048BDBB01C46E1
:104D600003930691A24B6899089253F82150111DA4
:104D7000824604F1FF38C0F2A382D31E48BF131D40
:104D8000DB1002930133DB000793DDE907239B1A55
:104D90000593029B15EB0801A3EB080316D4013120
:104DA0009FED947A699819441EAA002BA4BF50F86D
:104DB000234007EE904A03F10103ACBFF8EEE77A17
:104DC000F0EE477A8B42E2EC017AEED1002DC0F290
:104DD000E782039B1EAA02EB830446AE4FEA830CD4
:104DE0004046EF180AEB8301B8F1000FDFED817A3E
:104DF00009DB22465346F3EC016A32ED017A8B421D
:104E0000E6EE877AF7D10130B842E6EC017A04F198
:104E10000404E9D109AB0AAF03EB850907EB85036D
:104E2000083B9FED769ADFED748A059804930AEBB0
:104E30000C0446AE00955AAB03EB8503002D13ED31
:104E4000140A4FEA850B16DD06EB85033A4660EE41
:104E5000097AB0EE407AFDEEE77A73ED016AF8EE7A
:104E6000E77AB342A7EEE87A37EEA60ABDEEC77A34
:104E7000A2EC017AEBD1019000F0F6FAB0EE408A94
:104E8000B4EE000A28EE000AFFF71EFCF2EE007AEC
:104E9000A0EE678A01980028FDEEC89AF8EEE97A3C
:104EA00038EE678A79DD05F1FF3EC0F1080357F857
:104EB0002E1041FA03FC0CFA03F3CB1AC0F10702DF
:104EC00019EE901A43FA02F26144002A47F82E3094
:104ED00009EE901A69DCB5EE408AF1EE10FA40F066
:104EE000C080009B05F1FF3B5B4510DC05F1804372
:104EF000013B07EB83030021944653F804294B45FB
:104F000041EA0201F9D16246002940F0F280009B9B
:104F1000013B57F82330002B40F0E780049B4FF013
:104F2000010C53F804290CF1010C002AF9D06B1C78
:104F3000AC449E46039A5119029A02EB030B0BF103
:104F4000804B699A0BF1FF3B06EB83051EAB02EB2E
:104F50008B0B03EB8101DBED017A9FED267AF8EEF6
:104F6000E77AB8F1000F0BF1040BC1ED007A0A46A5
:104F700001F1040109DB534601E072ED017AF3EC23
:104F8000016AA342A6EEA77AF7D10EF1010EE6451B
:104F9000A5EC017ADFDD65464DE740F09C806B1E95
:104FA00057F823201212002A95DD19EE903A002DB1
:104FB00003F1010309EE903A40F398813968002922
:104FC0007FD1012D26D03B464FF0010C53F8041F32
:104FD00000297AD00CF10103C1F580719D4247F898
:104FE0002C1016DD57F82310BB4407EB83030AE0AF
:104FF00084B6000800000000000080430000803BF1
:105000000000C93F1968C1F1FF0143F8041B5B456B
:10501000F8D1012100280CDD012800F04881022888
:1050200007D105F1FF3C57F82C3003F03F0347F858
:105030002C30022A7FF44FAFB7EE000A30EE488AD8
:1050400000293FF448AF0992019000F00DFA38EEC4
:10505000408A099A0198B5EE408AF1EE10FA3FF4C1
:1050600040AF0292DDE90732B0EE480A981A019586
:10507000009D00F0F9F91FED207AB4EEC70AF1EEB9
:1050800010FADDE90132C0F259815FED247A059909
:1050900060EE277A0831FDEEE77A0591F8EEE77ABF
:1050A00003F1010BA7EEC70AFDEEE77ABDEEC00AD9
:1050B00010EE101A47F8231017EE903A47F82B30ED
:1050C0002EE001234FF0000C86E70CF1010CAC45FB
:1050D0007FF47CAF9EE7F6EE007AB4EEE78AF1EE5D
:1050E00010FA80F2F2800022F5E66B1C9E469C4688
:1050F00020E70599A1F1080057F82B1005902B46E1
:10510000009D69B903F18043023B07EB830301462D
:1051100053F804090BF1FF3B08390028F8D005913A
:1051200005980092B7EE000A00F09EF9BBF1000F5F
:10513000009AC0F228814FEA8B0E46AB03EB0E06B5
:105140000EF1040C1FED537A07EB0C03311D73EDC8
:10515000017AF8EEE77ABB4267EE807A20EE070A22
:1051600061ED017AF3D1002D1FED5B6A4FF0000471
:1051700020DB9348DFED937AB0EE467A3146002388
:1051800003E09C4208DBB0EC017AF1EC016A0133E8
:105190009D42E6EE877AF4DA5AAB03EB8403A3452B
:1051A00043ED287AA6F1040604F1010305D0002D91
:1051B0001C46DEDADFED837AEEE7689902291CDC13
:1051C000002900F395800FD132ABDFED7E7A9C444D
:1051D0003CED017A634577EE877AF9D10AB1F1EEB9
:1051E000677A069BC3ED007A19EE903A03F0070048
:1051F0005BB0BDEC048BBDE8F08F689B032BF3D153
:10520000BBF1000F00F0D4800EF5B4736B4432A9EB
:1052100013ED287A01EB8B0373ED017AF0EE476A08
:1052200037EE277A994277EEC77A83ED007A77EEE8
:10523000A67AC3ED017AEFD1BBF1010F40F3B8803C
:105240000BF1804B0EF5B4730BF1FF3B0DEB030E2E
:105250004FEA8B0B0BF104031EED287A0B4433A8A5
:1052600073ED017AF0EE476A37EE277A984277EECF
:10527000C77A83ED007A77EEA67AC3ED017AEFD193
:105280000BF1080BDFED4F7A01EB0B03083133ED27
:10529000017A994277EE877AF9D1002A56D1069998
:1052A000329A339B0A604B60C1ED027A9CE705F1AC
:1052B000FF3C57F82C3003F07F0347F82C30B8E65A
:1052C00008230793002302935FE519EE903A002D1F
:1052D00003F1010309EE903AC8BF02223FF76EAE18
:1052E000F7EE007A37EEC88A0222F4E5002191E653
:1052F00032A9DFED347A01EB830333ED017A994271
:1053000077EE877AF9D19DED327A8ABB069BBBF1A5
:10531000000FC3ED007A77EE677A0BDD33A9012326
:10532000B1EC017A01339B4577EE877AF8DA0AB15E
:10533000F1EE677A069BC3ED017A55E7BDEEC00A30
:105340009B4610EE101A47F82310E9E6DDED326AAD
:105350009DED337A069BF1EE666AB1EE477AF1EE87
:10536000677AC3ED006A83ED017AC3ED027A3BE709
:10537000069BF1EE676ABBF1000F77EE677AC3ED2B
:10538000006ACBDCD4E7689B022B0DDC002B14DC1D
:105390007FF42AAFDFED0B7A002A3FF422AF1EE73D
:1053A000039B4FEA830C35E5689B032B7FF41CAF0E
:1053B000DFED047A002AC9D171E7DFED027AA2E7B6
:1053C00094B600080000000010EE103A23F00043ED
:1053D000B3F1485F04DAFDEEC07A17EE903A5BB3A2
:1053E00060EE007A9FED157ADFED155A9FED156A94
:1053F000DFED156AE7EE875A9FED147AA5EEA76AEE
:1054000020EE275AE6EE276AA6EEA77A30B9DFED3E
:10541000106AE7EE876AA6EE850A704727EE457A9E
:10542000F6EE006AA0EEA67ADFED0A6AD7EE270A4A
:10543000E5EE260A30EE600A704700BFD3C92E2F72
:10544000342FD7B21BEF3836010D50B98988083C8C
:10545000ABAA2ABEABAA2A3E10EE103A23F00043B4
:1054600000EE103A704700BF82B08DED010A019B3B
:1054700033F000422AD0B2F1FF4F23D213F0FF4F96
:1054800028D19DED017ADFED2A7A2A4B67EE277A43
:105490009842CDED017A37DB019BC3F3C752193A2D
:1054A0000244FE2A1ADD9FED240A9FED247A019B17
:1054B000002BF0EE407AB8BFB0EE470A20EE270A84
:1054C00002B0704730EE000A02B070479DED010A4D
:1054D00002B07047D20D0244FE2AE4DC002A0BDC45
:1054E00012F1160F17DA4CF250339842DBDC9FEDC5
:1054F000140A9FED147ADAE723F0FF4343EAC2531C
:1055000000EE103A02B070479FED0D0ADDED017A12
:1055100027EE800AD8E7193223F0FF4343EAC2534B
:10552000DFED097A07EE103A27EE270ACCE700BF35
:105530000000004CB03CFFFFCAF24971CAF249F1C9
:105540006042A20D6042A28D0000003381F0004154
:1055500002E000BF83F0004330B54FEA41044FEA58
:10556000430594EA050F08BF90EA020F1FBF54EAF3
:10557000000C55EA020C7FEA645C7FEA655C00F08F
:10558000E2804FEA5454D4EB5555B8BF6D420CDD60
:105590002C4480EA020281EA030382EA000083EAE3
:1055A000010180EA020281EA0303362D88BF30BD83
:1055B00011F0004F4FEA01314FF4801C4CEA1131D9
:1055C00002D0404261EB410113F0004F4FEA033338
:1055D0004CEA133302D0524263EB430394EA050FC3
:1055E00000F0A780A4F10104D5F1200E0DDB02FA32
:1055F0000EFC22FA05F2801841F1000103FA0EF2C6
:10560000801843FA05F359410EE0A5F120050EF18B
:10561000200E012A03FA0EFC28BF4CF0020C43FABC
:1056200005F3C01851EBE37101F0004507D54FF0C9
:10563000000EDCF1000C7EEB00006EEB0101B1F519
:10564000801F1BD3B1F5001F0CD349085FEA30005F
:105650004FEA3C0C04F101044FEA445212F5800F6A
:1056600080F09A80BCF1004F08BF5FEA500C50F107
:10567000000041EB045141EA050130BD5FEA4C0CEA
:10568000404141EB0101013C28BFB1F5801FE9D247
:1056900091F0000F04BF01460020B1FA81F308BF6A
:1056A0002033A3F10B03B3F120020CDA0C3208DD36
:1056B00002F1140CC2F10C0201FA0CF021FA02F111
:1056C0000CE002F11402D8BFC2F1200C01FA02F181
:1056D00020FA0CFCDCBF41EA0C019040E41AA2BFA6
:1056E00001EB0451294330BD6FEA04041F3C1CDA6E
:1056F0000C340EDC04F11404C4F1200220FA04F08E
:1057000001FA02F340EA030021FA04F345EA030137
:1057100030BDC4F10C04C4F1200220FA02F001FAF9
:1057200004F340EA0300294630BD21FA04F029467B
:1057300030BD94F0000F83F4801306BF81F4801114
:105740000134013D4EE77FEA645C18BF7FEA655C87
:1057500029D094EA050F08BF90EA020F05D054EA59
:10576000000C04BF1946104630BD91EA030F1EBF5E
:105770000021002030BD5FEA545C05D14000494162
:1057800028BF41F0004130BD14F580043CBF01F555
:10579000801130BD01F0004545F0FE4141F470013B
:1057A0004FF0000030BD7FEA645C1ABF1946104616
:1057B0007FEA655C1CBF0B46024650EA013406BF17
:1057C00052EA033591EA030F41F4002130BD00BFD6
:1057D00090F0000F04BF0021704730B54FF4806493
:1057E00004F132044FF000054FF0000150E700BF14
:1057F00090F0000F04BF0021704730B54FF4806473
:1058000004F1320410F0004548BF40424FF000015F
:105810003EE700BF42004FEAE2014FEA31014FEAA2
:1058200002701FBF12F07F4393F07F4F81F06051F1
:10583000704732F07F4208BF704793F07F4F04BF3C
:1058400041F40021704730B54FF4607401F0004519
:1058500021F000411CE700BF50EA010208BF704779
:1058600030B54FF000050AE050EA010208BF70476A
:1058700030B511F0004502D5404261EB41014FF4D3
:10588000806404F132045FEA915C3FF4D8AE4FF0DB
:1058900003025FEADC0C18BF03325FEADC0C18BFBE
:1058A000033202EBDC02C2F1200300FA03FC20FA0F
:1058B00002F001FA03FE40EA0E0021FA02F114445C
:1058C000BDE600BF70B54FF0FF0C4CF4E06C1CEA75
:1058D00011541DBF1CEA135594EA0C0F95EA0C0FE6
:1058E00000F0DEF82C4481EA030621EA4C5123EA59
:1058F0004C5350EA013518BF52EA033541F4801188
:1059000043F4801338D0A0FB02CE4FF00005E1FB3A
:1059100002E506F00042E0FB03E54FF00006E1FB84
:1059200003569CF0000F18BF4EF0010EA4F1FF04C7
:10593000B6F5007F64F5407404D25FEA4E0E6D4107
:1059400046EB060642EAC62141EA55514FEAC52018
:1059500040EA5E504FEACE2EB4F1FD0C88BFBCF594
:10596000E06F1ED8BEF1004F08BF5FEA500E50F145
:10597000000041EB045170BD06F0004646EA01010B
:1059800040EA020081EA0301B4EB5C04C2BFD4EB3D
:105990000C0541EA045170BD41F480114FF0000E36
:1059A000013C00F3AB8014F1360FDEBF002001F0A4
:1059B000004170BDC4F10004203C35DA0C341BDC1E
:1059C00004F11404C4F1200500FA05F320FA04F0F0
:1059D00001FA05F240EA020001F0004221F0004124
:1059E00010EBD37021FA04F642EB06015EEA430E97
:1059F00008BF20EAD37070BDC4F10C04C4F12005C7
:105A000000FA04F320FA05F001FA04F240EA020079
:105A100001F0004110EBD37041F100015EEA430E4A
:105A200008BF20EAD37070BDC4F1200500FA05F26A
:105A30004EEA020E20FA04F301FA05F243EA0203E9
:105A400021FA04F001F0004121FA04F220EA0200F8
:105A500000EBD3705EEA430E08BF20EAD37070BD3E
:105A600094F0000F0FD101F00046400041EB01011E
:105A700011F4801F08BF013CF7D041EA060195F000
:105A8000000F18BF704703F00046520043EB0303BA
:105A900013F4801F08BF013DF7D043EA06037047A7
:105AA00094EA0C0F0CEA135518BF95EA0C0F0CD0B2
:105AB00050EA410618BF52EA4306D1D181EA0301F8
:105AC00001F000414FF0000070BD50EA410606BFF2
:105AD0001046194652EA430619D094EA0C0F02D137
:105AE00050EA013613D195EA0C0F05D152EA03367C
:105AF0001CBF104619460AD181EA030101F000419A
:105B000041F0FE4141F470014FF0000070BD41F0E2
