:020000040800F2
:1000000000000220C9750008653B0008673B000836
:10001000693B00086B3B00086D3B000800000000D6
:100020000000000000000000000000006F3B00081E
:10003000713B000800000000733B0008753B00089E
:100040001976000819760008197600081976000854
:100050001976000819760008197600081976000844
:100060001976000819760008197600081976000834
:100070001976000819760008197600081976000824
:100080001976000819760008F53800081976000876
:100090001976000819760008197600081976000804
:1000A0001976000819760008793B000819760008CF
:1000B00019760008C9380008197600081976000872
:1000C00019760008197600081976000819760008D4
:1000D00019760008197600081976000819760008C4
:1000E00019760008197600081976000819760008B4
:1000F00019760008197600081976000819760008A4
:100100001976000819760008197600081976000893
:100110001976000819760008197600081976000883
:100120001976000819760008197600081976000873
:100130001976000800000000000000001976000891
:100140001976000819760008197600081976000853
:100150001976000819760008197600081976000843
:100160001976000819760008197600081976000833
:100170001976000819760008000000000000000051
:08018000197600081976000849
:100190000348044B834202D0034B03B11847704716
:1001A0008800002088000020000000000548064963
:1001B0000B1AD90F01EBA301491002D0034B03B175
:1001C00018477047880000208800002000000000C9
:1001D00010B5064C237843B9FFF7DAFF044B13B18F
:1001E0000448AFF300800123237010BD8800002075
:1001F000000000001C76000808B5044B1BB1044940
:100200000448AFF30080BDE80840CFE700000000DD
:100210008C0000201C760008014B1868704700BF56
:100220000000002070B50D4E0D4D761BB61006D0A7
:10023000002455F8043B01349847A642F9D1094EF1
:10024000094D761B07F0EAF9B61006D0002455F8E0
:10025000043B01349847A642F9D170BD407E0008A6
:10026000407E0008447E0008407E0008844641EA43
:10027000000313F003036DD1403A41D351F8043B1E
:1002800040F8043B51F8043B40F8043B51F8043B70
:1002900040F8043B51F8043B40F8043B51F8043B60
:1002A00040F8043B51F8043B40F8043B51F8043B50
:1002B00040F8043B51F8043B40F8043B51F8043B40
:1002C00040F8043B51F8043B40F8043B51F8043B30
:1002D00040F8043B51F8043B40F8043B51F8043B20
:1002E00040F8043B51F8043B40F8043B51F8043B10
:1002F00040F8043B51F8043B40F8043B403ABDD27F
:10030000303211D351F8043B40F8043B51F8043B20
:1003100040F8043B51F8043B40F8043B51F8043BDF
:1003200040F8043B103AEDD20C3205D351F8043BAF
:1003300040F8043B043AF9D2043208D0D2071CBF7B
:1003400011F8013B00F8013B01D30B8803806046A4
:10035000704700BF082A13D38B078DD010F003031A
:100360008AD0C3F10403D21ADB071CBF11F8013B8A
:1003700000F8013B80D331F8023B20F8023B7BE7D9
:10038000043AD9D3013A11F8013B00F8013BF9D204
:100390000B7803704B7843708B788370604670479E
:1003A000830730B548D0541E002A3FD0CAB2034656
:1003B00001E0013C3AD303F8012B9D07F9D1032C4E
:1003C0002DD9CDB245EA05250F2C45EA054536D98C
:1003D000A4F1100222F00F0C03F1200EE6444FEAC4
:1003E000121C03F1100242E9045542E90255103291
:1003F0007245F8D10CF1010214F00C0F03EB02125C
:1004000004F00F0C13D0ACF1040323F00303043306
:10041000134442F8045B9342FBD10CF003042CB16B
:10042000CAB21C4403F8012B9C42FBD130BD644688
:100430001346002CF4D1F9E703461446BFE71A46E9
:10044000A446E0E70EB410B5044683B008B1836952
:100450005BB106ABA168059A0193204600F060FDF0
:1004600003B0BDE8104003B0704700F067FBF0E751
:100470000FB410B50A4B1C6882B00CB1A3695BB114
:1004800005ABA168049A0193204600F049FD02B033
:10049000BDE8104004B07047204600F04FFBEFE786
:1004A000000000202DE9F0410E460746002833D019
:1004B00083697BB384682F4B9C4237D02E4B9C4280
:1004C0003FD02E4B9C4208BFFC68A3891B0731D547
:1004D00023697BB33578B0463DB934E023685A1CB4
:1004E00022601D7018F8015F6DB3A368013B002BFB
:1004F000A360F3DAA669B34229462246384601DBF7
:100500000A2DEBD100F044F80130EBD14FF0FF3071
:10051000BDE8F08100F012FBBB69BC68002BCAD1BA
:10052000384600F00BFB134B9C42C7D17C68A38973
:100530001B07CDD42146384600F08EF80028C9D0DC
:10054000E4E7BC68C1E7A368013B002BA36009DABC
:1005500022460A21384600F01BF80130D6D00A2086
:10056000BDE8F08123680A22591C21601A701046E8
:10057000BDE8F081787600085876000838760008E3
:10058000024B01461868FFF78DBF00BF0000002036
:10059000F8B50D461446064608B1836943B3254BAA
:1005A0009C422AD0244B9C4229D0244B9C4208BF19
:1005B000F468A389A269A2601A0722D5236903B34C
:1005C00022686169D31AEDB299422F4629DD0133C1
:1005D000A1680139A160511C2160157062699A42BD
:1005E00016D0A389DB0701D50A2D11D03846F8BDF6
:1005F00000F0A4FA0F4B9C42D4D17468D9E7B468D8
:10060000D7E72146304600F027F838B92369D7E705
:100610002146304600F02CF90028E7D04FF0FF3794
:10062000E4E72146304600F023F90028F6D122689D
:100630000123CDE778760008587600083876000860
:1006400010B4044C03460A4620685DF8044B194672
:10065000FFF79EBF000000203C4B70B51D680646AA
:100660000C460DB1AB69E3B1394B9C421FD0394BFD
:100670009C424DD0384B9C4208BFEC68B4F90C301A
:1006800018079AB219D5216911B312F001002FD0C1
:100690000020A06060694042A06100292ED00020A7
:1006A00070BD284600F04AFA294B9C42DFD16C68A5
:1006B000B4F90C3018079AB2E5D4D1063ED55207EA
:1006C00028D4216943F00803A3819AB20029DCD120
:1006D00002F42070B0F5007FD7D02146304600F0FC
:1006E00091FAB4F90C3021699AB212F00100CFD11D
:1006F000950758BF6069A0600029D0D1120658BF85
:100700000846CDD543F04003A3814FF0FF3070BDC4
:10071000AC68B3E7616B51B104F14402914204D07B
:10072000304600F0FDFAB4F90C3000226263216912
:100730000022C4E9001223F02403C3E7092243F096
:10074000400332604FF0FF30A38170BD00000020F5
:100750007876000858760008387600088B891A07E2
:100760002DE9F0410C4680463FD44A68002A58DD06
:10077000E66A002E52D00022D8F80050C8F80020B7
:1007800013F4805251D10123216A4046B047431CE3
:100790005ED0A389E66A5F0705D56368C01A636BFC
:1007A0000BB1236CC01A216A024600234046B047B1
:1007B000411C3CD1D8F80030002B38D01D2B01D083
:1007C000162B4DD123690022C4E90032616BC8F8B1
:1007D000005019B304F14403994202D0404600F09E
:1007E0009FFA00206063BDE8F0810E69B6B10D6824
:1007F0000E609A070CBF4B690023AD1B8B600BE0AA
:100800002B463246216AA76A4046B847B0F1000C31
:10081000A5EB0C05664413DD002DF1DC0020BDE8DE
:10082000F0810A6C002AA3DCF8E7606DB3E70023CF
:10083000636023692360A389DB04C7D56065C5E7CE
:10084000A38943F040034FF0FF30A381BDE8F0815E
:10085000D8F80030002B9CD01D2B06D0162B04D0CE
:10086000A38943F04003A381D9E7C8F80050D5E736
:1008700038B50B69BBB10D46044608B18369B3B105
:100880000D4B9D4211D00D4B9D4213D00C4B9D4200
:1008900008BFE568B5F90C302BB129462046BDE804
:1008A0003840FFF75BBF002038BD6568F2E700F015
:1008B00045F9E5E7A568EDE7787600085876000881
:1008C0003876000838B540B303690446E3B1174BE6
:1008D0001D680DB1AB69CBB1154B9C420FD0154BC8
:1008E0009C4221D0144B9C4208BFEC68B4F90C30F8
:1008F00053B121462846BDE83840FFF72FBF6C684A
:10090000B4F90C30002BF4D1002038BD284600F09B
:1009100015F9074B9C42E2D1F1E7084B08491868EA
:10092000BDE8384000F04AB9AC68DFE700000020BD
:100930007876000858760008387600083476000883
:100940007108000800207047014900F037B900BF66
:10095000710800080020704770B568224D1E02FB28
:1009600005F50E4605F1740100F03CFA044640B16D
:1009700000210C30C4E90016A06005F16802FFF701
:100980000FFD204670BD00BF274B2DE9F0411E68CA
:10099000B369074653B348364FF00408D6E901342B
:1009A000013B04D51EE05A1C04F168041AD0B4F9C6
:1009B0000C50013B002DF6D11C4B6566C4E9005577
:1009C000C4E90253C4E90455A5610822294604F18B
:1009D0005C00FFF7E5FCC4E90D55C4E9125520465B
:1009E000BDE8F08135682DB12E46D7E7304600F0DE
:1009F0001FF8D0E74FF4D671384600F0F3F90446FB
:100A000068B10560C0F804800C302946A060254616
:100A10004FF4D072FFF7C4FC34602E46BEE70C23BF
:100A200030603B60DBE700BF347600080100FFFF69
:100A30002DE9F84F344B35491A68816290424FF0E6
:100A40000003C0E91233036504BF01238361054637
:100A5000FFF79AFF68602846FFF796FFA8602846D0
:100A6000FFF792FF6F68E86000240423C7E90243A0
:100A700008222146C7E90044C7E904447C66BC61FA
:100A800007F15C00FFF78CFCDFF88CB0AE68DFF894
:100A90008CA0DFF88C90DFF88C801D4BC7F828A065
:100AA000C7E9087BC7F82C90C7F830800822F360AC
:100AB000C6E90044C6E904447466B460B4612146E2
:100AC00006F15C00FFF76CFCC6E9086BC6E90AA9F1
:100AD000C6F83080EE680F4BF360C6E90044C6E903
:100AE00004447466B460B4612146082206F15C00D7
:100AF000FFF756FC0123C6E9086BC6E90B98C6F858
:100B000028A0AB61BDE8F88F3476000849090008D9
:100B10000900010012000200C1150008E9150008D3
:100B20002916000849160008024B0349186800F00E
:100B300045B800BF3476000871080008836903B91E
:100B400076E77047704700BF704700BF704700BF2F
:100B5000704700BF024B0349186800F00FB800BF90
:100B60000000002045090008024B0349186800F006
:100B700005B800BF00000020550900082DE9F0412C
:100B8000884600F148070026D7E90154013D0FD4FB
:100B9000A389012B05F1FF3506D9B4F90E300133D5
:100BA000204601D0C04706436B1C04F16804EFD116
:100BB0003F68002FE8D13046BDE8F0812DE9F843C9
:100BC0000746884600F148064FF00009D6E901546F
:100BD000013D11D4A389012B05F1FF3508D9B4F9E2
:100BE0000E300133214603D03846C04749EA000998
:100BF0006B1C04F16804EDD13668002EE6D148463E
:100C0000BDE8F883F0B58B890C46990797B007D5F6
:100C100004F147030122C4E90432236017B0F0BD98
:100C2000B4F90E10002905462DDB6A4600F038FDA8
:100C3000002827DB019E06F470464FF48067A6F576
:100C40000056B6FA86F639462846760900F0CAF804
:100C500030B3A3891A4AAA6243F08003C4E90407A7
:100C6000A3812060002ED9D0B4F90E10284600F0E0
:100C7000A5FE0028D2D0A38923F0030343F001038B
:100C8000A381CBE7A38913F0800F14BF40274FF453
:100C9000806739462846002600F0A4F80028D8D1FD
:100CA000B4F90C309A05B9D423F0030304F14702D8
:100CB00043F002030121C4E90421A3812260ADE7CE
:100CC0004909000870B50C46B1F90E10002996B01C
:100CD00016461D4613DB6A4600F0E2FC00280EDBD8
:100CE000019901F47041A1F50051B1FA81F14FF47D
:100CF0008063490900202960336016B070BDB4F9E3
:100D00000C3000221B062A6004D5402300203360EB
:100D100016B070BD4FF480630020336016B070BD14
:100D2000002958D030B551F8043C83B0002BA1F114
:100D30000404B8BFE418019000F036FF284A019877
:100D4000136833B1A3420DD9216804EB010C63454C
:100D50002FD06360146003B0BDE8304000F026BFC0
:100D6000A34210D81A465B68002BF9D1116802EB38
:100D7000010C644519D02FD36360546003B0BDE803
:100D8000304000F013BF116802EB010CA44516D0EF
:100D900022D8216804EB010C6345EDD11D685B6826
:100DA0002944C4E900135460D5E72368194411604D
:100DB000D1E71D685B682944C4E90013CAE72468C9
:100DC00021445418A3421160C5D1D3E90043214402
:100DD000C2E90013BFE770470C230360BBE700BF05
:100DE000A4000020F8B5CD1C25F0030508350C2D16
:100DF00038BF0C25002D064623DBA94221D8254FFC
:100E000000F0D2FE3A6822B3144603E0636822463B
:100E1000FBB11C4623685B1BF8D40B2B15D8636809
:100E200094420CBF3B605360304600F0BFFE04F1BB
:100E30000B00231D20F00700C21A01D01B1AA3507B
:100E4000F8BD0C2333600020F8BD23601C442560EE
:100E5000EAE77968C9B12946304600F09FFB431C98
:100E60000CD0C41C24F00304A04205D0211A304643
:100E700000F094FB013001D02560D5E70C2330460B
:100E8000336000F093FE0020F8BD304600F086FB92
:100E90007860E0E7A40000209368013B002B93609A
:100EA00011DA10B49469A34209DB0A2907D0136848
:100EB000581C1060197008465DF8044B70475DF8C7
:100EC000044BFFF765BB1368581C10601970084687
:100ED000704700BF9BB1F8B5134406460F46541E39
:100EE0005D1E01E0AC4208D014F8011F3A463046BE
:100EF000FFF7D2FF431CF5D1F8BD0020F8BD00205C
:100F0000704700BF936810B5144613B95360184674
:100F100010BD00F0DBFB0023C4E9013310BD00BFAE
:100F20002DE9F04F88469FB015461C46814618B102
:100F30008369002B00F0A280924B984500F0A480BA
:100F4000914B984500F0B180904B984508BFD9F877
:100F50000C80B8F80C30180740F19D80D8F810309C
:100F6000002B00F0988000230B932978884E05947D
:100F700020238DF8313030238DF8323001270029BD
:100F800074D02C460B4604E014F8013F002B00F00F
:100F90008F80252BF8D1B4EB050B40F08C802378A3
:100FA000002B63D000234FF0FF32CDE907230693D7
:100FB00009938DF85B301C93013404E0069A07FA1C
:100FC00003F3134306932546052214F8011B30460C
:100FD00000F01EFD831B0028F0D1069BD90644BFFC
:100FE00020228DF85B2029781A0744BF2B228DF828
:100FF0005B202A2970D1059A1168043200290592D4
:10100000C0F29B800991697801352E2976D0614C18
:101010000322204600F0FCFC38B1069B001B402454
:1010200004FA00F003430693013515F8011B5A48F2
:101030008DF83010062200F0EBFC002800F08380D1
:10104000564B002B6DD005AA0092554B424606A97F
:101050004846AFF300800390039B013306D00B9BFF
:10106000039A297813440B9300298AD1B8F80C30DD
:101070005B0617D40B981FB0BDE8F08FFFF75EFD3D
:10108000404B98457FF45CAFD9F80480B8F80C3039
:1010900018073FF563AF41464846FFF7DDFA0028E1
:1010A0003FF461AF4FF0FF30E5E7D9F8088050E733
:1010B000B4EB050BDAD0AA46C5F1010503E0934570
:1010C00036D91AF8011F42464846FFF7E5FE0130BF
:1010D00005EB0A02F3D1C9E7A1F13002092A94D83D
:1010E000099B15F8011F03EB830302EB4303A1F1F6
:1010F0003002092AF5D92E29099388D169782A293D
:101100002BD1059BA9781A6807920433002A05F1B0
:1011100002000593B8BF4FF0FF330546B8BF0793F1
:1011200075E7059B073323F007030833059396E71C
:101130000B9A23785A440B9232E7494243F0020358
:10114000099106935FE705AA0092154B424606A94E
:10115000484600F0CBF803907EE7A1F1300200236F
:10116000092A079305F101053FF651AF15F8011F54
:1011700003EB830302EB4303A1F13002092AF5D903
:10118000079344E778760008587600083876000818
:10119000FC7D0008047E0008087E000800000000B6
:1011A000D50E000810B4054C8446134620685DF83F
:1011B000044B0A466146FFF7B3BE00BF00000020A3
:1011C0002DE9F84F92461F460A698B68DDF8289092
:1011D0009A42B8BF1A46CAF8002091F843300C462C
:1011E000064613B10132CAF80020226891065DD587
:1011F000DAF800300233CAF80030226812F0060F25
:1012000011461ED1E168CB1A002BD8BF114618DD5C
:1012100004F1190B4FF0000805E0E568DAF800303A
:10122000ED1A45450CDD01235A4639463046C8477C
:10123000013008F10108F0D14FF0FF30BDE8F88F20
:10124000216894F84330003B18BF01238A060AD571
:10125000E1185A1C302081F84300224494F84510CC
:1012600082F84310023304F1430239463046C8473E
:101270000130E1D0236803F00603042B1DD0A368DE
:101280002269934225DD4FF000089B1A98441A34D6
:10129000002501E045451CDA012322463946304647
:1012A000C847013005F10105F4D1C5E712F0060F7A
:1012B00012D0003B18BF0123D5E7DAF80030E1680F
:1012C0002269C91AA368934221EAE178DDDC00298A
:1012D000DDDC0020BDE8F88FE168DAF80030CB1AD9
:1012E000002BD8BF114693DCABE700BF2DE9F047D8
:1012F0000C4684B09046227E0C990746994604F12C
:101300004300002A33D0A2F15803DDB2202D67D864
:10131000202B65D8DFE813F0DE0064006400640071
:101320006400640064006400640064006400A3005E
:101330006E0064006400640064006E006400640079
:101340006400640021007F00C00064006400AE00FF
:1013500064007F0064006400E50023681A0640F121
:1013600004810B6862691D1D0D601B681A600023F3
:1013700082462361CDF80090434603AA21463846B1
:10138000FFF71EFF013020D0236952464146384600
:10139000C847013019D02368E068039E9B0719D520
:1013A000831B002B16DD04F1190A002504E0E06818
:1013B000039E831BAB420DDD012352464146384656
:1013C000C847013005F10105F1D14FF0FF3004B0FD
:1013D000BDE8F087B042B8BF304604B0BDE8F08742
:1013E000012384F84220236104F1420A002384F897
:1013F0004330BFE723681A0602D45E0600F1C180BD
:101400000D682A6804350D601546002A6BDBDFF88D
:1014100084C10A2610E023681D0640F19C800B68F9
:101420001D1D0D601D68DFF86CC16F2A0CBF0826FA
:101430000A26002384F843306268A260002A7FDB1A
:10144000236823F004032360002D5BD1002A79D1A7
:101450008246082E65D0A0EB0A0020618AE70B685F
:101460000122186804330B6004F1420A84F8420038
:101470002261BBE70B686268181D0860D3F800A002
:101480000021504600F0C4FA002800F08180A0EB53
:101490000A0060602061A9E7236843F0200323600D
:1014A0007822DFF8F4C084F845200A68151D0D6025
:1014B0001D0643D4590641D51588DE0744BF43F0C5
:1014C00020032360002D44D1236823F020032360F0
:1014D0001026AEE7582384F84530DFF8B8C02368FB
:1014E000E3E72368DCE76268A2602D21002AC5F1EA
:1014F000000584F8431002DB23F004032360DFF8C7
:1015000094C00A268246B5FBF6F306FB13512A4621
:101510001CF801100AF8011DB2421D46F3D2082E34
:1015200099D12368D90796D5626823699A4292DCDB
:1015300030230AF8013C0AF1FF3A8CE71568BCE752
:10154000002DDFD19CF8003084F8423004F1420ACB
:101550007FE710266DE713F0400F0B6803F10405D9
:101560000D600CBF1D681D885DE713F0400F0B6810
:10157000626903F104050D601B6814BF1A801A60CC
:10158000F5E60A68B2F9005004320A602A463CE7E0
:1015900060687FE7107E0008247E000838B5074D9C
:1015A0000022044608462A6004F030F8431C00D0AC
:1015B00038BD2B68002BFBD0236038BDAC00002069
:1015C00010B50C46B1F90E1000F01AFB002803DB31
:1015D000636D0344636510BDA38923F48053A38125
:1015E00010BD00BF002070472DE9F0410C46B1F955
:1015F0000C101F46CB05054616460BD421F480512E
:10160000A1813B46B4F90E1032462846BDE8F041B0
:1016100000F01EB8B4F90E100223002200F0E0F929
:10162000B4F90C10EAE700BF10B50C46B1F90E1082
:1016300000F0D6F9A389421C0EBF23F4805343F473
:1016400080536065A38110BDB1F90E1000F016B88B
:1016500038B50C46084D8446114620461A460023EC
:101660002B60644604F006F8431C00D038BD2B689C
:10167000002BFBD0236038BDAC00002038B5074DEF
:101680000022044608462A6004F002F8431C00D0F9
:1016900038BD2B68002BFBD0236038BDAC00002088
:1016A00070B50C46084D03460026204611461C46E0
:1016B0002E6003F0F0FF431C00D070BD2B68002BA0
:1016C000FBD0236070BD00BFAC0000209368002BEE
:1016D00000F085802DE9F04FB1F90C300C46190768
:1016E000804683B0174698B225D523691BB310F006
:1016F00002033D682DD04FF0000ADFF8BCB2564619
:10170000B9465E453346524628BF5B464046002EEA
:1017100052D0216AA76AB847002856DDD9F80830A8
:101720001B1A8244361AC9F80830002BE9D1002070
:1017300003B0BDE8F08F21464046FEF78DFF00283C
:1017400040F03681B4F90C303D6898B210F00203D5
:10175000D1D110F0010944D14E46009746B382051D
:10176000D4F808B040F18380B3455A4600F2B28005
:1017700010F4906F40F0BF8020680192494600F05D
:1017800097F9A368019AA3EB0B012368A1601344A6
:10179000B24623600026009B9868A0EB0A00D14463
:1017A00098600028C3D0B4F90C0080B2002ED6D1C6
:1017B000D5E900960835D1E7D5E900A60835A0E7B8
:1017C00021464046FFF754F880B3B4F90C3043F09B
:1017D00040034FF0FF30A38103B0BDE8F08F00203D
:1017E00070471E46AA46994618461D46009756B3AE
:1017F00088B34A46D4E904132068B24228BF32466F
:10180000884205D9A16803EB010B5A4500F3A68075
:10181000934263DC216AA76A2A464046B847B0F182
:10182000000BD2DDB9EB0B09CAD00120009A9368F6
:10183000A3EB0B035D44A6EB0B069360002B3FF478
:1018400076AF002ED4D10AF1080353E902569A4626
:101850000833002EF9D032460A21284600F0D8F885
:10186000002800F09C800130A0EB0509C1E720684A
:101870002369984216D86369B34213D86FF00042C7
:10188000B24228BF3246216A92FBF3F2A76A02FBFA
:1018900003F340464A46B847B0F1000A95DDA6EB8F
:1018A0000A0678E7B345DA4628BFB24652464946AB
:1018B00000F0FEF8A3682268A3EB0A035244A36079
:1018C0002260002BEBD121464046FEF7D1FF0028D5
:1018D000E5D07AE72068B34632464EE729460192C2
:1018E00000F0E6F8019AA3689B1AA36023681344EA
:1018F0002360934696E723682169A3EB010B636994
:1019000003EB430A0AEBDA7A0BF101034FEA6A0AA6
:1019100033445345524684BF9A46524643052CD51C
:1019200011464046FFF75EFA00283BD05A4621692F
:101930000190FEF79BFCA289019B22F4906242F089
:101940008002A28103EB0B002361AAEB0B03C4F816
:1019500014A0A3602060B34632460EE729465A46DB
:1019600000F0A6F823685B44236021464046FEF75A
:101970007FFF00283FF456AF27E7404600F018F9F4
:1019800003460028DED121694046FFF7C9F9B4F9C2
:101990000C300C2223F08003C8F8002017E7721CDB
:1019A000914627E70C22B4F90C30C8F800200EE766
:1019B0004FF0FF30BCE600BF00FCFF7F38B5074D9D
:1019C0000022044608462A6003F06AFE431C00D049
:1019D00038BD2B68002BFBD0236038BDAC00002045
:1019E00038B50C46084D8446114620461A46002359
:1019F0002B60644603F056FE431C00D038BD2B68B4
:101A0000002BFBD0236038BDAC000020000000009C
:101A100001F0FF01102A2BDB10F0070F08D010F89F
:101A2000013B013A8B422DD010F0070F42B3F6D1A3
:101A3000F0B441EA012141EA014122F007047FF0BC
:101A400000070023F0E80256083C85EA010586EA13
:101A5000010685FA47F5A3FA87F586FA47F6A5FA4F
:101A600087F68EB9EED1F0BC01F0FF0102F007025B
:101A700032B110F8013B013A83EA010313B1F8D106
:101A80000020704701387047002D06BF35460338E7
:101A9000073815F0010F07D1013015F4807F02BF20
:101AA000013015F4C03F0130F0BC0138704700BF71
:101AB00088420DD98B1883420AD900EB020CBAB1C7
:101AC000624613F801CD02F801CD9942F9D1704771
:101AD0000F2A0ED8034602F1FF3C4AB10CF1010C6B
:101AE000013B8C4411F8012B03F8012F6145F9D11A
:101AF000704740EA01039B0750D1A2F1100370B573
:101B000001F1200C23F00F0501F1100E00F110047B
:101B1000AC441B095EF8105C44F8105C5EF80C5C89
:101B200044F80C5C5EF8085C44F8085C5EF8045C01
:101B300044F8045C0EF1100EE64504F11004E9D1FE
:101B4000013312F00C0F01EB031102F00F0400EB54
:101B5000031327D0043C24F003064FEA940C1E44E0
:101B60001C1F8E465EF8045B44F8045FB442F9D152
:101B70000CF1010402F0030203EB840301EB840186
:101B800002F1FF3C4AB10CF1010C013B8C4411F80D
:101B9000012B03F8012F6145F9D170BD02F1FF3C23
:101BA00003469BE72246EBE7704700BF704700BF44
:101BB000F8B51446F9B1CAB106460D4600F036F83C
:101BC000A04202D32F463846F8BD21463046FFF7E3
:101BD00009F907460028F6D022462946FEF746FBBB
:101BE00030462946FFF79CF83846F8BD2746FFF7F0
:101BF00097F83846F8BDBDE8F8401146FFF7F2B84F
:101C000038B50C46084D8446114620461A46002336
:101C10002B60644603F01EFD431C00D038BD2B68CA
:101C2000002BFBD0236038BDAC00002051F8040C21
:101C30000028A0F10400BCBF0B58C018704700BFBB
:101C400010EE103A184A23F0004393421BDDB3F123
:101C5000FF4F02DB30EE400A704700B583B06846A4
:101C600000F09AF900F003000128DDED010A9DED76
:101C7000000A0CD0022812D070B1012000F07AFEC8
:101C800003B05DF804FBDFED090A00F0B7BA00F01D
:101C900071FEB1EE400AF3E700F0B0FAF0E700F0B1
:101CA000ADFAB1EE400AEBE7D80F493F0000000063
:101CB00010EE102AC2F3C7537F3B162B22F00041CF
:101CC00028DC002B18DB1A4919410A4221D0DFED2C
:101CD000197A70EE277AF5EEC07AF1EE10FA18DD77
:101CE000002A04DA4FF4000040FA03F31A4422EA0F
:101CF000010300EE103A7047DFED0E7A70EE277A9E
:101D0000F5EEC07AF1EE10FA03DD002A08DB9FED54
:101D10000A0A7047B1F1FF4FFBD330EE000A70475B
:101D2000FFEE007A002918BFB0EE670A704700BFC7
:101D3000FFFF7F00CAF249710000000008B52DEDD9
:101D4000028BF0EE408AB0EE608A00F015F820B900
:101D5000B0EE480ABDEC028B08BDB0EE480A00F0B8
:101D60000BF820B1F4EEC88AF1EE10FAF0D5B0EE1F
:101D7000680ABDEC028B08BD10EE103A33F000404B
:101D80000ED0A0F50003B3F1FE4F0DD3074B421E5A
:101D90009A4207D9A0F1FF40B0FA80F0400970479D
:101DA000022070470320704704207047FEFF7F0029
:101DB00010EE103A194A23F0004393421CDDB3F1B0
:101DC000FF4F02DB30EE400A704700B583B0684633
:101DD00000F0E2F800F003000128DDED010A9DEDBE
:101DE000000A0ED0022813D070B100F007FAB1EE4D
:101DF000400A03B05DF804FBDFED090A002000F0A3
:101E0000B9BD00F0FBF9F4E7012000F0B3FDF0E705
:101E1000012000F0AFFDB1EE400AEAE7D80F493FDC
:101E20000000000008B52DED028BF0EE408AB0EE08
:101E3000608A00F021F80E4B93F9003001330BD08B
:101E4000F4EE488AF1EE10FA06D6DFED0A8AB4EE17
:101E5000688AF1EE10FA02D0BDEC028B08BDFEF7E5
:101E6000DBF988EEA80ABDEC028B2123036008BDD4
:101E7000640000200000000030B583B0CDED010A01
:101E8000019D35F0004041D010EE10EA2EF00043E5
:101E9000B3F1FF4F3ADAB0F1FF4F37DC83423BDB5F
:101EA0000EF000443AD01EF0FF4F56D1190200291F
:101EB0006FF07D0204DD4900002902F1FF32FADCF7
:101EC00015F0FF4F57D101026FF07D0C03D449008C
:101ED0000CF1FF3CFBD512F17E0F47DBCEF316036E
:101EE00043F400031CF17E0F3ADBC5F3160040F407
:101EF0000000B2EB0C0204D117E00FD04B00013A06
:101F000013D0191A0029F8DA5B00F8E7DDED017A41
:101F100060EE277A87EEA70A03B030BD1D4B03EBB6
:101F2000547393ED000A03B030BD181A58BF03462E
:101F30001BB9F3E75B000CF1FF3CB3F5000FF9DBD5
:101F40001CF17E0F1CDBA3F500030CF17F0C234377
:101F500043EACC5300EE103ADEE7DA157F3AAFE7FA
:101F60006FF07D01A1EB0C018840C2E76FF07D01AD
:101F7000891A8B40B6E74FEAE05CACF17F0CAAE728
:101F80006FF07D02A2EB0C0C43FA0CF3234300EE3E
:101F9000103AC1E79876000870B510EE103A894AF9
:101FA00023F00044944286B0054670DD864A944290
:101FB00010EE106A22DC002BDFED847A844A24F0D4
:101FC0000F04B0EE407A40F3E480944270EE677AFA
:101FD00009BFDFED806A9FED807A9FED807A77EE12
:101FE000E67A012077EEC76A77EEE67AC5ED006AF9
:101FF00077EEC77AC5ED017A06B070BD784A944293
:1020000054DDB4F1FF4F49DAE215863AA4EBC2532E
:1020100007EE903ABDEEE77ADFED726AB8EEC77A66
:1020200077EEC77A8DED037A67EEA67ABDEEE77A92
:10203000B8EEC77A77EEC77A8DED047A67EEA67AA6
:10204000F5EE407AF1EE10FACDED057A40F0908091
:10205000B5EE407AF1EE10FA14BF02230123624973
:1020600001910221009103A8294600F049F9002EB0
:10207000C2DA95ED007AD5ED017AB1EE477AF1EE4C
:10208000677A85ED007AC5ED017A4042B4E7002217
:1020900085ED000A4260002006B070BD70EE407A07
:1020A0000020C5ED017AC5ED007AA5E700F0AAFC95
:1020B0009FED4E7A9FED456AF6EE007AE0EE077AE4
:1020C0009FED457AFDEEE77A17EE900AF8EEE76AA3
:1020D0001F28A6EEC60A66EE877AB1EE666A1EDC97
:1020E000434A411E24F0FF0352F82120934216D0A8
:1020F00030EE677A85ED007A30EE470A002E30EE3A
:10210000670A85ED010ABFF677AFB1EE477AB1EE07
:10211000400A85ED007A85ED010A40426CE730EE19
:10212000677AE21517EE103AC3F3C753C3EBD454E2
:10213000082CDFDDDFED277A9FED287AF0EE405A9C
:10214000E6EE275A30EE650AA6EE270AF0EE407A50
:10215000D6EE877A35EEE77A17EE103AC3F3C75317
:10216000D21A192A06DCB0EE650A85ED007AC3E7BB
:10217000032374E79FED1F7A9FED1F5AB0EE650AA7
:10218000A6EE070A75EEC07AE6EE077AD6EE857AF5
:10219000AEE7944270EE277A09BFDFED0E6A9FED3D
:1021A0000E7A9FED0E7A77EEA67A4FF0FF3077EE3B
:1021B000876A77EEE67AC5ED006A77EE877AC5ED35
:1021C000017A19E7D80F493FE3CB1640800FC93F8A
:1021D000D00FC93F004435374344353708A3852E17
:1021E000800F4943000080432077000884F9223F94
:1021F000A076000800A3852E32318D2410EE103A0F
:1022000023F00043B3F1485F2CDAFDEEC07A17EEFD
:10221000903A002B60D020EE007ADFED317A9FED0E
:10222000315ADFED315A9FED316ADFED316AA7EEA9
:10223000275ADFED307AE7EE055AA7EE256AE7EE7A
:10224000067AE7EE276A67EE266A60EEC00AF6EEC7
:10225000007AE7EE260AB7EE000AD7EE270A30EE3C
:10226000600A704720EE007ADFED1D7A9FED1D5A5F
:10227000DFED1D5A9FED1D6ADFED1D6A1E4AA7EEB8
:10228000275A9342DFED1B7AE5EE075AA5EE876ADF
:10229000E6EE077AE7EE876A66EE876AD5DD174ACB
:1022A000934214DC03F17F4307EE903AB7EE006AE5
:1022B00036EE676A60EEC00AF6EE005AD7EE257A6F
:1022C000E7EE260A77EEE00A36EE600A7047B6EED1
:1022D000076AF5EE027AEDE7B7EE000A704700BF35
:1022E0004ED747ADF6740F317CF293B4010DD03761
:1022F000ABAA2A3D610BB6BA9999993E0000483FB6
:102300002DE9F04F2DED048BDBB01C4603930691B5
:10231000A24B6899089253F82150111D824604F18E
:10232000FF38C0F2A382D31E48BF131DDB100293F7
:102330000133DB000793DDE907239B1A0593029B1A
:1023400015EB0801A3EB080316D401319FED947A35
:10235000699819441EAA002BA4BF50F8234007EE29
:10236000904A03F10103ACBFF8EEE77AF0EE477A4A
:102370008B42E2EC017AEED1002DC0F2E782039BA2
:102380001EAA02EB830446AE4FEA830C4046EF18C8
:102390000AEB8301B8F1000FDFED817A09DB2246F9
:1023A0005346F3EC016A32ED017A8B42E6EE877A0E
:1023B000F7D10130B842E6EC017A04F10404E9D126
:1023C00009AB0AAF03EB850907EB8503083B9FEDDB
:1023D000769ADFED748A059804930AEB0C0446AEF6
:1023E00000955AAB03EB8503002D13ED140A4FEA59
:1023F000850B16DD06EB85033A4660EE097AB0EEF2
:10240000407AFDEEE77A73ED016AF8EEE77AB342BF
:10241000A7EEE87A37EEA60ABDEEC77AA2EC017AFB
:10242000EBD1019000F0F6FAB0EE408AB4EE000A6B
:1024300028EE000AFFF73CFCF2EE007AA0EE678A75
:1024400001980028FDEEC89AF8EEE97A38EE678A1E
:1024500079DD05F1FF3EC0F1080357F82E1041FA6F
:1024600003FC0CFA03F3CB1AC0F1070219EE901A21
:1024700043FA02F26144002A47F82E3009EE901A1E
:1024800069DCB5EE408AF1EE10FA40F0C080009BA6
:1024900005F1FF3B5B4510DC05F18043013B07EB99
:1024A00083030021944653F804294B4541EA020175
:1024B000F9D16246002940F0F280009B013B57F8B9
:1024C0002330002B40F0E780049B4FF0010C53F8C1
:1024D00004290CF1010C002AF9D06B1CAC449E4677
:1024E000039A5119029A02EB030B0BF1804B699A84
:1024F0000BF1FF3B06EB83051EAB02EB8B0B03EBF3
:102500008101DBED017A9FED267AF8EEE77AB8F1EA
:10251000000F0BF1040BC1ED007A0A4601F1040132
:1025200009DB534601E072ED017AF3EC016AA34244
:10253000A6EEA77AF7D10EF1010EE645A5EC017AD9
:10254000DFDD65464DE740F09C806B1E57F8232089
:102550001212002A95DD19EE903A002D03F10103C5
:1025600009EE903A40F39881396800297FD1012D16
:1025700026D03B464FF0010C53F8041F00297AD0B7
:102580000CF10103C1F580719D4247F82C1016DD56
:1025900057F82310BB4407EB83030AE0387A00089E
:1025A00000000000000080430000803B0000C93FA5
:1025B0001968C1F1FF0143F8041B5B45F8D1012103
:1025C00000280CDD012800F04881022807D105F120
:1025D000FF3C57F82C3003F03F0347F82C30022A19
:1025E0007FF44FAFB7EE000A30EE488A00293FF47F
:1025F00048AF0992019000F00DFA38EE408A099A2E
:102600000198B5EE408AF1EE10FA3FF440AF029225
:10261000DDE90732B0EE480A981A0195009D00F0F6
:10262000F9F91FED207AB4EEC70AF1EE10FADDE9F0
:102630000132C0F259815FED247A059960EE277A64
:102640000831FDEEE77A0591F8EEE77A03F1010B28
:10265000A7EEC70AFDEEE77ABDEEC00A10EE101A2B
:1026600047F8231017EE903A47F82B302EE001235D
:102670004FF0000C86E70CF1010CAC457FF47CAF09
:102680009EE7F6EE007AB4EEE78AF1EE10FA80F2F9
:10269000F2800022F5E66B1C9E469C4620E70599D9
:1026A000A1F1080057F82B1005902B46009D69B941
:1026B00003F18043023B07EB8303014653F804090F
:1026C0000BF1FF3B08390028F8D0059105980092DE
:1026D000B7EE000A00F09EF9BBF1000F009AC0F2BD
:1026E00028814FEA8B0E46AB03EB0E060EF1040C6D
:1026F0001FED537A07EB0C03311D73ED017AF8EEF1
:10270000E77ABB4267EE807A20EE070A61ED017A34
:10271000F3D1002D1FED5B6A4FF0000420DB9348DE
:10272000DFED937AB0EE467A3146002303E09C4217
:1027300008DBB0EC017AF1EC016A01339D42E6EE70
:10274000877AF4DA5AAB03EB8403A34543ED287A86
:10275000A6F1040604F1010305D0002D1C46DEDAC3
:10276000DFED837AEEE7689902291CDC002900F38B
:1027700095800FD132ABDFED7E7A9C443CED017A3F
:10278000634577EE877AF9D10AB1F1EE677A069B55
:10279000C3ED007A19EE903A03F007005BB0BDEC90
:1027A000048BBDE8F08F689B032BF3D1BBF1000FC6
:1027B00000F0D4800EF5B4736B4432A913ED287A7F
:1027C00001EB8B0373ED017AF0EE476A37EE277A5F
:1027D000994277EEC77A83ED007A77EEA67AC3ED59
:1027E000017AEFD1BBF1010F40F3B8800BF1804BC0
:1027F0000EF5B4730BF1FF3B0DEB030E4FEA8B0BA1
:102800000BF104031EED287A0B4433A873ED017A13
:10281000F0EE476A37EE277A984277EEC77A83ED73
:10282000007A77EEA67AC3ED017AEFD10BF1080BAF
:10283000DFED4F7A01EB0B03083133ED017A99425A
:1028400077EE877AF9D1002A56D10699329A339BCE
:102850000A604B60C1ED027A9CE705F1FF3C57F836
:102860002C3003F07F0347F82C30B8E60823079399
:10287000002302935FE519EE903A002D03F1010366
:1028800009EE903AC8BF02223FF76EAEF7EE007A2B
:1028900037EEC88A0222F4E5002191E632A9DFED85
:1028A000347A01EB830333ED017A994277EE877A2C
:1028B000F9D19DED327A8ABB069BBBF1000FC3EDC7
:1028C000007A77EE677A0BDD33A90123B1EC017A48
:1028D00001339B4577EE877AF8DA0AB1F1EE677A31
:1028E000069BC3ED017A55E7BDEEC00A9B4610EE8C
:1028F000101A47F82310E9E6DDED326A9DED337AD0
:10290000069BF1EE666AB1EE477AF1EE677AC3EDA7
:10291000006A83ED017AC3ED027A3BE7069BF1EE94
:10292000676ABBF1000F77EE677AC3ED006ACBDC14
:10293000D4E7689B022B0DDC002B14DC7FF42AAF5C
:10294000DFED0B7A002A3FF422AF1EE7039B4FEA2C
:10295000830C35E5689B032B7FF41CAFDFED047A15
:10296000002AC9D171E7DFED027AA2E7487A0008B0
:102970000000000010EE103A23F00043B3F1485F6E
:1029800004DAFDEEC07A17EE903A5BB360EE007A9F
:102990009FED157ADFED155A9FED156ADFED156A8B
:1029A000E7EE875A9FED147AA5EEA76A20EE275A24
:1029B000E6EE276AA6EEA77A30B9DFED106AE7EEF9
:1029C000876AA6EE850A704727EE457AF6EE006A1A
:1029D000A0EEA67ADFED0A6AD7EE270AE5EE260A10
:1029E00030EE600A704700BFD3C92E2F342FD7B204
:1029F0001BEF3836010D50B98988083CABAA2ABEB6
:102A0000ABAA2A3E10EE103A23F0004300EE103A33
:102A1000704700BF82B08DED010A019B33F0004288
:102A20002AD0B2F1FF4F23D213F0FF4F28D19DEDF2
:102A3000017ADFED2A7A2A4B67EE277A9842CDEDAC
:102A4000017A37DB019BC3F3C752193A0244FE2ACD
:102A50001ADD9FED240A9FED247A019B002BF0EEF6
:102A6000407AB8BFB0EE470A20EE270A02B070479E
:102A700030EE000A02B070479DED010A02B07047C7
:102A8000D20D0244FE2AE4DC002A0BDC12F1160F00
:102A900017DA4CF250339842DBDC9FED140A9FEDBD
:102AA000147ADAE723F0FF4343EAC25300EE103A08
:102AB00002B070479FED0D0ADDED017A27EE800A26
:102AC000D8E7193223F0FF4343EAC253DFED097A16
:102AD00007EE103A27EE270ACCE700BF0000004CB3
:102AE000B03CFFFFCAF24971CAF249F16042A20D3F
:102AF0006042A28D0000003381F0004102E000BF7F
:102B000083F0004330B54FEA41044FEA430594EAAD
:102B1000050F08BF90EA020F1FBF54EA000C55EAE8
:102B2000020C7FEA645C7FEA655C00F0E2804FEAB9
:102B30005454D4EB5555B8BF6D420CDD2C4480EA9B
:102B4000020281EA030382EA000083EA010180EACB
:102B5000020281EA0303362D88BF30BD11F0004F19
:102B60004FEA01314FF4801C4CEA113102D040424F
:102B700061EB410113F0004F4FEA03334CEA13338A
:102B800002D0524263EB430394EA050F00F0A780A2
:102B9000A4F10104D5F1200E0DDB02FA0EFC22FA9D
:102BA00005F2801841F1000103FA0EF2801843FA91
:102BB00005F359410EE0A5F120050EF1200E012A82
:102BC00003FA0EFC28BF4CF0020C43FA05F3C018C0
:102BD00051EBE37101F0004507D54FF0000EDCF139
:102BE000000C7EEB00006EEB0101B1F5801F1BD3E2
:102BF000B1F5001F0CD349085FEA30004FEA3C0CE6
:102C000004F101044FEA445212F5800F80F09A80DB
:102C1000BCF1004F08BF5FEA500C50F1000041EBDF
:102C2000045141EA050130BD5FEA4C0C404141EBE3
:102C30000101013C28BFB1F5801FE9D291F0000FDE
:102C400004BF01460020B1FA81F308BF2033A3F18D
:102C50000B03B3F120020CDA0C3208DD02F1140C84
:102C6000C2F10C0201FA0CF021FA02F10CE002F1BF
:102C70001402D8BFC2F1200C01FA02F120FA0CFCB8
:102C8000DCBF41EA0C019040E41AA2BF01EB045101
:102C9000294330BD6FEA04041F3C1CDA0C340EDCFF
:102CA00004F11404C4F1200220FA04F001FA02F342
:102CB00040EA030021FA04F345EA030130BDC4F100
:102CC0000C04C4F1200220FA02F001FA04F340EAF5
:102CD0000300294630BD21FA04F0294630BD94F0A6
:102CE000000F83F4801306BF81F480110134013D8D
:102CF0004EE77FEA645C18BF7FEA655C29D094EAFE
:102D0000050F08BF90EA020F05D054EA000C04BF7B
:102D10001946104630BD91EA030F1EBF0021002066
:102D200030BD5FEA545C05D14000494128BF41F005
:102D3000004130BD14F580043CBF01F5801130BD69
:102D400001F0004545F0FE4141F470014FF00000F4
:102D500030BD7FEA645C1ABF194610467FEA655CA5
:102D60001CBF0B46024650EA013406BF52EA033547
:102D700091EA030F41F4002130BD00BF90F0000F35
:102D800004BF0021704730B54FF4806404F1320471
:102D90004FF000054FF0000150E700BF90F0000F2A
:102DA00004BF0021704730B54FF4806404F1320451
:102DB00010F0004548BF40424FF000013EE700BF21
:102DC00042004FEAE2014FEA31014FEA02701FBFB1
:102DD00012F07F4393F07F4F81F06051704732F0E3
:102DE0007F4208BF704793F07F4F04BF41F400213A
:102DF000704730B54FF4607401F0004521F0004198
:102E00001CE700BF50EA010208BF704730B54FF021
:102E100000050AE050EA010208BF704730B511F022
:102E2000004502D5404261EB41014FF4806404F15A
:102E300032045FEA915C3FF4D8AE4FF003025FEAE0
:102E4000DC0C18BF03325FEADC0C18BF033202EB64
:102E5000DC02C2F1200300FA03FC20FA02F001FABE
:102E600003FE40EA0E0021FA02F11444BDE600BF61
:102E700070B54FF0FF0C4CF4E06C1CEA11541DBF10
:102E80001CEA135594EA0C0F95EA0C0F00F0DEF8DB
:102E90002C4481EA030621EA4C5123EA4C5350EAC0
:102EA000013518BF52EA033541F4801143F4801311
:102EB00038D0A0FB02CE4FF00005E1FB02E506F0A2
:102EC0000042E0FB03E54FF00006E1FB03569CF0F7
:102ED000000F18BF4EF0010EA4F1FF04B6F5007FFD
:102EE00064F5407404D25FEA4E0E6D4146EB06066F
:102EF00042EAC62141EA55514FEAC52040EA5E50F8
:102F00004FEACE2EB4F1FD0C88BFBCF5E06F1ED8A1
:102F1000BEF1004F08BF5FEA500E50F1000041EBD8
:102F2000045170BD06F0004646EA010140EA020085
:102F300081EA0301B4EB5C04C2BFD4EB0C0541EAA7
:102F4000045170BD41F480114FF0000E013C00F3BC
:102F5000AB8014F1360FDEBF002001F0004170BDE0
:102F6000C4F10004203C35DA0C341BDC04F11404F9
:102F7000C4F1200500FA05F320FA04F001FA05F285
:102F800040EA020001F0004221F0004110EBD37052
:102F900021FA04F642EB06015EEA430E08BF20EA7E
:102FA000D37070BDC4F10C04C4F1200500FA04F321
:102FB00020FA05F001FA04F240EA020001F00041B3
:102FC00010EBD37041F100015EEA430E08BF20EA26
:102FD000D37070BDC4F1200500FA05F24EEA020E6E
:102FE00020FA04F301FA05F243EA020321FA04F09D
:102FF00001F0004121FA04F220EA020000EBD37054
:103000005EEA430E08BF20EAD37070BD94F0000F53
:103010000FD101F00046400041EB010111F4801F87
:1030200008BF013CF7D041EA060195F0000F18BF38
:10303000704703F00046520043EB030313F4801F74
:1030400008BF013DF7D043EA0603704794EA0C0F2E
:103050000CEA135518BF95EA0C0F0CD050EA410644
:1030600018BF52EA4306D1D181EA030101F00041C1
:103070004FF0000070BD50EA410606BF10461946E9
:1030800052EA430619D094EA0C0F02D150EA0136F5
:1030900013D195EA0C0F05D152EA03361CBF104636
:1030A00019460AD181EA030101F0004141F0FE41D5
:1030B00041F470014FF0000070BD41F0FE4141F459
:1030C000780170BD70B54FF0FF0C4CF4E06C1CEA59
:1030D00011541DBF1CEA135594EA0C0F95EA0C0F0E
:1030E00000F0A7F8A4EB050481EA030E52EA0335C9
:1030F0004FEA013100F088804FEA03334FF08055EA
:1031000045EA131343EA12634FEA022245EA111516
:1031100045EA10654FEA00260EF000419D4208BFC7
:10312000964244F1FD0404F5407402D25B084FEA74
:103130003202B61A65EB03055B084FEA32024FF420
:1031400080104FF4002CB6EB020E75EB030E22BF7D
:10315000B61A754640EA0C005B084FEA3202B6EB3D
:10316000020E75EB030E22BFB61A754640EA5C00EC
:103170005B084FEA3202B6EB020E75EB030E22BF7C
:10318000B61A754640EA9C005B084FEA3202B6EB7D
:10319000020E75EB030E22BFB61A754640EADC003C
:1031A00055EA060E18D04FEA051545EA16754FEA9E
:1031B00006164FEAC30343EA52734FEAC2025FEABC
:1031C0001C1CC0D111F4801F0BD141EA00014FF04B
:1031D00000004FF0004CB6E711F4801F04BF01431C
:1031E0000020B4F1FD0C88BFBCF5E06F3FF6AFAE38
:1031F000B5EB030C04BFB6EB020C5FEA500C50F1C8
:10320000000041EB045170BD0EF0004E4EEA11314A
:1032100014EB5C04C2BFD4EB0C0541EA045170BD51
:1032200041F480114FF0000E013C90E645EA060E95
:103230008DE60CEA135594EA0C0F08BF95EA0C0FC3
:103240003FF43BAF94EA0C0F0AD150EA01347FF40B
:1032500034AF95EA0C0F7FF425AF104619462CE7E2
:1032600095EA0C0F06D152EA03353FF4FDAE104645
:10327000194622E750EA410618BF52EA43067FF496
:10328000C5AE50EA41047FF40DAF52EA43057FF426
:10329000EBAE12E74FEA4102B2F1E04324BFB3F5CF
:1032A000001CDCF1FE5C0DD901F0004C4FEAC002BD
:1032B0004CEA5070B2F1004F40EB830008BF20F0A1
:1032C0000100704711F0804F21D113F13872BCBF5B
:1032D00001F00040704741F480114FEA5252C2F1B0
:1032E0001802C2F1200C10FA0CF320FA02F018BFF9
:1032F00040F001004FEAC1234FEAD32303FA0CFC4C
:1033000040EA0C0023FA02F34FEA4303CCE77FEADA
:10331000625307D150EA01331EBF4FF0FE4040F424
:103320004000704701F0004040F0FE4040F40000D3
:10333000704700BF53B94AB9002908BF00281CBF15
:103340004FF0FF314FF0FF3000F074B9ADF1080CD1
:103350006DE904CE00F006F8DDF804E0DDE90223B3
:1033600004B070472DE9F047089D04468E46002BB7
:103370004DD18A42944669D9B2FA82F252B101FA29
:1033800002F3C2F1200120FA01F10CFA02FC41EA39
:10339000030E94404FEA1C48210CBEFBF8F61FFABE
:1033A0008CF708FB16E341EA034306FB07F1994259
:1033B0000AD91CEB030306F1FF3080F01F8199420C
:1033C00040F21C81023E63445B1AA4B2B3FBF8F0E6
:1033D00008FB103344EA034400FB07F7A7420AD96D
:1033E0001CEB040400F1FF3380F00A81A74240F295
:1033F00007816444023840EA0640E41B00261DB100
:10340000D4400023C5E900433146BDE8F0878B4234
:1034100009D9002D00F0EF800026C5E900013046F3
:103420003146BDE8F087B3FA83F6002E4AD18B42CD
:1034300002D3824200F2F980841A61EB0303012077
:103440009E46002DE0D0C5E9004EDDE702B9FFDE63
:10345000B2FA82F2002A40F09280A1EB0C014FEA0E
:103460001C471FFA8CFE0126200CB1FBF7F307FB6B
:10347000131140EA01410EFB03F0884208D91CEB0E
:10348000010103F1FF3802D2884200F2CB804346AB
:10349000091AA4B2B1FBF7F007FB101144EA01448A
:1034A0000EFB00FEA64508D91CEB040400F1FF3119
:1034B00002D2A64500F2BB800846A4EB0E0440EA07
:1034C00003409CE7C6F12007B34022FA07FC4CEA10
:1034D000030C20FA07F401FA06F31C43F9404FEA03
:1034E0001C4900FA06F3B1FBF9F8200C1FFA8CFE18
:1034F00009FB181140EA014108FB0EF0884202FA6C
:1035000006F20BD91CEB010108F1FF3A80F088802C
:10351000884240F28580A8F102086144091AA4B2E9
:10352000B1FBF9F009FB101144EA014100FB0EFE6A
:103530008E4508D91CEB010100F1FF346CD28E4599
:103540006AD90238614440EA0840A0FB0294A1EB2A
:103550000E01A142C846A64656D353D05DB1B3EB87
:10356000080261EB0E0101FA07F722FA06F3F140B7
:103570001F43C5E9007100263146BDE8F087C2F15E
:103580002003D8400CFA02FC21FA03F391400143D6
:103590004FEA1C471FFA8CFEB3FBF7F007FB10360F
:1035A0000B0C43EA064300FB0EF69E4204FA02F4BB
:1035B00008D91CEB030300F1FF382FD29E422DD90E
:1035C000023863449B1B89B2B3FBF7F607FB163343
:1035D00041EA034106FB0EF38B4208D91CEB0101C3
:1035E00006F1FF3816D28B4214D9023E6144C91A43
:1035F00046EA004638E72E46284605E70646E3E653
:103600001846F8E64B45A9D2B9EB020864EB0C0E5C
:103610000138A3E74646EAE7204694E74046D1E76B
:10362000D0467BE7023B614432E7304609E7644419
:10363000023842E7704700BF84B000220092154B69
:10364000196B41F080011963196B01F08001009141
:1036500000990192196B41F001011963196B01F096
:103660000101019101990292196B41F00401196362
:10367000196B01F004010291029903921A6B42F056
:1036800002021A631B6B03F002030393039B04B053
:10369000704700BF0038024010B582B0002400948B
:1036A000224B1A6B42F480021A631A6B02F48002F6
:1036B0000092009A01941A6B42F400121A631B6B79
:1036C00003F400130193019B224621460E2001F0D2
:1036D000CDF90E2001F002FA224621460F2001F01A
:1036E000C5F90F2001F0FAF922462146382001F0F1
:1036F000BDF9382001F0F2F9224621463B2001F0C5
:10370000B5F93B2001F0EAF9224621463A2001F0C2
:10371000ADF93A2001F0E2F922462146462001F0B7
:10372000A5F9462001F0DAF902B010BD00380240D8
:10373000024B586A00225A62704700BF00440140A1
:1037400010B5144C04F1840304F1800204F17C01EF
:10375000114802F0FFFA204603F019F80F4B1B78CE
:103760000A2B05D800200D4A13780133137010BDC1
:103770000A4B00221A70FFF7DBFF0146084B186066
:10378000084802F0D9FC204603F088F90120064BD6
:103790001870E8E7EC010020B0010020E8010020EB
:1037A000E4010020B014002014A5002030B52DED58
:1037B000028B83B0384D394BC5F8A431384CDFED5E
:1037C000398A9FED398AD4ED042A94ED032AF0EE6C
:1037D000681AB0EE481AD4ED020A94ED010A05F118
:1037E000C40003F0EBFCD4ED082A94ED072AF0EEB8
:1037F000681AB0EE481AD4ED060A94ED050A05F1F0
:10380000F40003F0DBFCDFED298AD4ED0D2A94ED02
:103810000C2AF0EE681AB0EE481AD4ED0B0A94EDBB
:103820000A0A05F5927003F0C9FCD4ED122A94ED52
:10383000112AF0EE681A94ED101AD4ED0F0A94EDE7
:103840000E0A05F5AA7003F0B9FC194BC5F87831DA
:10385000184B9B680093184B184A1949284602F0E8
:1038600067FF9FED180A0721284602F077FF002125
:1038700094ED150A284602F07CFFB7EE000A2846B0
:1038800002F07DFFB2EE040A284602F07CFF03B08E
:10389000BDEC028B30BD00BFEC010020D81400202D
:1038A000A0030020ACC527380000000017B7D139AD
:1038B0009A99593FB00100203C0001403800014076
:1038C0003400014000803B44024A136923F00103A5
:1038D000136170470004004008B50268034B9A4228
:1038E00000D008BD024803F047F8FAE7003800406E
:1038F000EC010020364B1B6813F0040F67D010B5A5
:10390000334A136823F004031360324B1B7833B13E
:10391000304B00221A70304BDA6D986D90472F4B68
:103920001B78DBB2012B0DD02D4B2E4AC3F888201B
:1039300093F89831012B3FD0022B2BD01BB12A4892
:1039400003F06EFB10BD244802F06CFC244C2046B2
:1039500003F0B2F894ED267A244BD3ED007A77EE9B
:10396000C77A234B93ED007A67EE877A94ED257A38
:10397000204BD3ED006A27EE267A77EE877A1E4B2E
:10398000C3ED007A0023C4F8A430C4ED2A7AFFF70F
:10399000D7FED4E7FFF7D4FE0128D0D10E4802F0BD
:1039A00041FC0F4C204603F087F8104B93ED000AC2
:1039B000204602F0C5FFC2E7FFF7C2FE0128BED1D4
:1039C0000E4B93ED000A064802F09BFFB7E77047E5
:1039D00000200140AC140020B01400209C03002003
:1039E000EC010020295C9B412014002014140020CD
:1039F000680000206C000020181400201C14002017
:103A000008B50268034B9A4200D008BD01F08EF859
:103A1000FBE700BF0048014072B6FEE700B595B075
:103A20003022002108A8FCF7BBFC00230393049379
:103A30000593069307930193204A116C41F080513E
:103A40001164126C02F080520192019A02931C4B95
:103A50001A6842F480421A601B6803F480430293A0
:103A6000029B012308934FF48033099302220E92A4
:103A70004FF480030F9304231093A8211191129205
:103A8000139308A800F078FA98B90F230393022340
:103A90000493002305934FF4A05306934FF48053EF
:103AA0000793052103A800F0CDFC20B915B05DF8FF
:103AB00004FBFFF7B1FFFFF7AFFF00BF0038024084
:103AC0000070004008B501F017F8FFF7A7FFFFF7F7
:103AD000B3FDFFF7E1FD03F081FB03F0A1FB03F071
:103AE000C7FC01F023FF01F04FFE01F0F9FE01F0E9
:103AF000E3FE154801F032FE02F0F0FB134C2046C5
:103B000002F00CFAFFF752FE02F03CFA02F056FA0D
:103B10000F4801F0CBFE0F4801F0C8FE0E4801F03F
:103B2000C5FE204602F0ADF80C4C012384F8983114
:103B30000B4D2B70204603F055F800232B70022309
:103B400084F89831FEE700BFA0030020B0010020F8
:103B5000004401400004004000000140EC0100204E
:103B60009C030020FEE7FEE7FEE7FEE7FEE7704766
:103B7000704770477047000008B5024800F0B6F87B
:103B800008BD00BF3014002082B0002100910B4B13
:103B90005A6C42F480425A645A6C02F48042009299
:103BA000009A01911A6C42F080521A641B6C03F067
:103BB00080530193019B02B0704700BF0038024060
:103BC00030B589B00546002401941E4B5A6C42F46E
:103BD00080225A645B6C03F480230193019B02A949
:103BE00003A800F005FD00F0F3FC43001648A0FB1D
:103BF00003239B0C013B1548154A026040F2E73253
:103C0000C260436004618460846100F087F9044607
:103C100010B1204609B030BD0C4800F01FF8044632
:103C20000028F6D11A2000F059FF0F2D01D90124E8
:103C3000EFE7002229461A2000F018FF054B1D600F
:103C4000E7E700BF0038024083DE1B43301400204A
:103C500000480140740000207047000090F83D309B
:103C6000DBB2012B37D1022380F83D300268D368E4
:103C700043F00103D3600368194A934220D0B3F1A3
:103C8000804F1DD0A2F57C42934219D002F580628C
:103C9000934215D002F58062934211D002F578422A
:103CA00093420DD002F57052934209D0A2F594329E
:103CB000934205D01A6842F001021A600020704752
:103CC0009A6802F00702062A07D01A6842F0010239
:103CD0001A6000207047012070470020704700BF25
:103CE00000000140704770477047704770B5044648
:103CF0000368DE681D6915F0020F10D016F0020F80
:103D00000DD06FF002021A610123037703689B69EB
:103D100013F0030F5ED0FFF7E6FF0023237715F0C3
:103D2000040F12D016F0040F0FD023686FF00402B6
:103D30001A610223237723689B6913F4407F4FD0D5
:103D40002046FFF7D0FF0023237715F0080F12D08D
:103D500016F0080F0FD023686FF008021A610423D1
:103D600023772368DB6913F0030F40D02046FFF769
:103D7000BAFF0023237715F0100F12D016F0100FA2
:103D80000FD023686FF010021A610823237723688D
:103D9000DB6913F4407F31D02046FFF7A4FF0023F6
:103DA000237715F0010F02D016F0010F2DD115F079
:103DB000800F02D016F0800F2FD115F0400F02D0E7
:103DC00016F0400F31D115F0200F02D016F0200F61
:103DD00033D170BDFFF786FF2046FFF785FF9CE7D4
:103DE0002046FFF77FFF2046FFF77EFFABE7204628
:103DF000FFF778FF2046FFF777FFBAE72046FFF787
:103E000071FF2046FFF770FFC9E723686FF00102DA
:103E10001A612046FFF7F4FDC9E723686FF08002BE
:103E20001A61204600F0A7F8C7E723686FF0400248
:103E30001A612046FFF759FFC5E723686FF020029B
:103E40001A61204600F096F8C3E700000368324A82
:103E5000904212D0B0F1804F0FD0A2F57C42904238
:103E60000BD002F58062904207D002F5806290424A
:103E700003D002F57842904203D123F070034A68E0
:103E80001343254A90422AD0B0F1804F27D0A2F5A3
:103E90007C42904223D002F5806290421FD002F50E
:103EA000806290421BD002F57842904217D002F512
:103EB0007052904213D002F5806290420FD002F50A
:103EC000806290420BD0A2F59832904207D002F562
:103ED0008062904203D002F58062904203D123F4C5
:103EE0004073CA68134323F080034A6913438A6806
:103EF000C2620A688262084A904203D002F5806278
:103F0000904201D10A690263026842F00402026031
:103F100001224261036070470000014040B310B5C8
:103F2000044690F83D30F3B1022384F83D30214639
:103F300051F8040BFFF78AFF012384F8463084F818
:103F40003E3084F83F3084F8403084F8413084F8C3
:103F5000423084F8433084F8443084F8453084F8A3
:103F60003D30002010BD80F83C30FFF775FEDBE7E8
:103F70000120704770477047002800F0E08170B55D
:103F800082B00446036813F0010F3BD09F4B9B683F
:103F900003F00C03042B2CD09C4B9B6803F00C0308
:103FA000082B21D06368B3F5803F4FD0B3F5A02F25
:103FB00052D0964B1A6822F480321A601A6822F4A2
:103FC00080221A606368002B50D000F0BBFD0546CC
:103FD0008E4B1B6813F4003F14D100F0B3FD401B5F
:103FE0006428F5D90320B1E1884B5B6813F4800F96
:103FF000D8D0864B1B6813F4003F03D06368002BB6
:1040000000F09F81236813F0020F54D07F4B9B6810
:1040100013F00C0F3ED07D4B9B6803F00C03082B74
:1040200033D0E368002B68D0794B01221A6000F08E
:1040300089FD0546754B1B6813F0020F54D100F043
:1040400081FD401B0228F5D903207FE16F4A1368E8
:1040500043F480331360B5E76C4B1A6842F4802256
:104060001A601A6842F480321A60ABE700F06AFD09
:104070000546664B1B6813F4003FC3D000F062FD99
:10408000401B6428F5D9032060E1604B5B6813F4A2
:10409000800FC6D15D4B1B6813F0020F03D0E3689D
:1040A000012B40F05081594A136823F0F80321692D
:1040B00043EAC1031360236813F0080F42D0636919
:1040C0006BB3534B0122C3F8802E00F03BFD054635
:1040D0004E4B5B6F13F0020F34D100F033FD401BE9
:1040E0000228F5D9032031E1484A136823F0F80388
:1040F000216943EAC1031360DDE7454B00221A60E2
:1041000000F020FD0546414B1B6813F0020FD2D092
:1041100000F018FD401B0228F5D9032016E13C4BA6
:104120000022C3F8802E00F00DFD0546374B5B6F73
:1041300013F0020F06D000F005FD401B0228F5D950
:10414000032003E1236813F0040F77D02F4B1B6C7F
:1041500013F0805F33D1002301932C4B1A6C42F093
:1041600080521A641B6C03F080530193019B01255C
:10417000284B1B6813F4807F23D0A368012B34D015
:10418000052B38D0214B1A6F22F001021A671A6FE3
:1041900022F004021A67A368002B3DD000F0D2FC85
:1041A00006461A4B1B6F13F0020F46D100F0CAFCF3
:1041B000801B41F288339842F3D90320C6E00025E2
:1041C000D6E7144A136843F48073136000F0BAFC16
:1041D0000646104B1B6813F4807FCED100F0B2FC72
:1041E000801B0228F5D90320B0E0084A136F43F082
:1041F00001031367CFE7054B1A6F42F004021A67F9
:104200001A6F42F001021A67C5E700BF003802408A
:10421000000047420070004000F094FC0646524BFC
:104220001B6F13F0020F08D000F08CFC801B41F2D2
:1042300088339842F3D9032088E0EDB9A369002BB5
:1042400000F08380484A926802F00C02082A51D09C
:10425000022B17D0454B00221A6600F073FC04466F
:10426000414B1B6813F0007F42D000F06BFC001B39
:104270000228F5D9032069E03B4A136C23F08053F0
:104280001364DBE7394B00221A6600F05BFC05463D
:10429000354B1B6813F0007F06D000F053FC401B29
:1042A0000228F5D9032051E0E369226A1343626AC8
:1042B00043EA8213A26A5208013A43EA0243E26ADD
:1042C00043EA0263284A5360284B01221A6600F031
:1042D00039FC0446244B1B6813F0007F06D100F024
:1042E00031FC001B0228F5D903202FE000202DE02F
:1042F00000202BE0012B2BD01B4B5B6803F48001CB
:10430000E269914226D103F03F02216A8A4223D119
:10431000616A47F6C0721A40B2EB811F1ED103F4E6
:104320004031A26A5208013AB1EB024F18D103F0B2
:104330007063E26AB3EB026F14D1002006E0012043
:104340007047012002E0012000E0002002B070BDB3
:104350000120FBE70120F9E70120F7E70120F5E75D
:104360000120F3E70120F1E7003802400000474256
:1043700008B5314B9B6803F00C03042B57D0082B76
:1043800057D12D4B5A6802F03F025B6813F4800F3F
:104390002AD0294B5968C1F3881C4FEA4C11B1EB64
:1043A0000C006EEB0E0E4FEA8E1343EA9063810110
:1043B000091A63EB0E03DB0043EA5173C90011EBEA
:1043C0000C0C43F10003590200234FEA4C2041EA50
:1043D000DC51FEF7AFFF184B5B68C3F301430133B9
:1043E0005B00B0FBF3F025E0134B5968C1F3881C68
:1043F0004FEA4C11B1EB0C006EEB0E0E4FEA8E1330
:1044000043EA90638101091A63EB0E03DB0043EA80
:104410005173C90011EB0C0C43F100039902002306
:104420004FEA8C2041EA9C51FEF784FFD3E7034812
:1044300000E0034808BD00BF0038024000127A00C7
:104440000024F400002800F09B8070B50D4604465F
:104450004F4B1B6803F007038B4208D2CBB24C4A88
:104460001370136803F007038B4240F08B802368BE
:1044700013F0020F17D013F0040F04D0454A9368CD
:1044800043F4E0539360236813F0080F04D0414ACB
:10449000936843F4604393603E4A936823F0F003CB
:1044A000A1680B439360236813F0010F32D0636857
:1044B000012B21D09A1E012A25D9364A126812F002
:1044C000020F61D033498A6822F0030213438B60E4
:1044D00000F038FB06462F4B9B6803F00C03626824
:1044E000B3EB820F16D000F02DFB801B41F2883316
:1044F0009842F0D9032042E0264A126812F4003FA5
:10450000E0D101203BE0234A126812F0007FD9D1AC
:10451000012034E01E4B1B6803F00703AB4207D9B0
:10452000EAB21B4B1A701B6803F00703AB422DD194
:10453000236813F0040F06D0164A936823F4E0535F
:10454000E1680B439360236813F0080F07D0114A0A
:10455000936823F46043216943EAC1039360FFF742
:1045600007FF0C4B9B68C3F303130B4AD35CD84083
:104570000A4B18600A4B1868FFF722FB002070BD39
:10458000012070470120FAE70120F8E70120F6E753
:10459000003C024000380240787A00087800002091
:1045A00074000020014B1868704700BF780000209D
:1045B00008B5FFF7F7FF044B9B68C3F38223034A58
:1045C000D35CD84008BD00BF00380240887A00089C
:1045D00008B5FFF7E7FF044B9B68C3F34233034A78
:1045E000D35CD84008BD00BF00380240887A00087C
:1045F0000F2303600B4B9A6802F0030242609A6833
:1046000002F0F00282609A6802F4E052C2609B6895
:10461000DB0803F4E0530361034B1B6803F007035B
:104620000B60704700380240003C024000230F2B13
:1046300000F2E48070B582B060E085685E0003241B
:10464000B44025EA0405CC68B4402C438460456836
:1046500025EA02054C68C4F300129A402A434260DE
:104660005AE0DC08083450F8246003F00702950093
:104670000F22AA4026EA020E0A69AA4042EA0E0266
:1046800040F824205CE0072200E0002202FA0EF24B
:104690002A4302345A4D45F824205A4A94686FEA56
:1046A0000C0224EA0C054E6816F4801F01D04CEA77
:1046B0000405544CA560E46802EA04054E6816F44B
:1046C000001F01D04CEA04054E4CE560646802EA24
:1046D00004054E6816F4003F01D04CEA0405494C2D
:1046E0006560246822404D6815F4803F01D04CEA93
:1046F0000402444C226001330F2B7DD801229A40E2
:104700000C6804EA020C32EA0404F4D14C6804F0A8
:104710000304013C012C90D94A6802F00302032AE9
:1047200009D0C4685D000322AA4024EA02048A6812
:10473000AA402243C2604A6802F00302022A90D0D3
:1047400004684FEA430E032202FA0EF224EA02043E
:104750004A6802F0030202FA0EF2224302604A683B
:1047600012F4403FC7D000220192274A546C44F40F
:1047700080445464526C02F480420192019A9C0875
:10478000A51C1F4A52F8255003F003024FEA820E7F
:104790000F2202FA0EF225EA02051C4A90423FF46B
:1047A00074AF02F5806290421AD002F580629042A6
:1047B00018D002F58062904216D002F580629042D5
:1047C00014D002F58062904212D002F580629042CD
:1047D00010D002F5806290423FF455AF082255E7B1
:1047E000012253E7022251E703224FE704224DE75B
:1047F00005224BE7062249E702B070BD704700BFB3
:1048000000380140003C01400038024000000240F6
:1048100030B405682C6824F480242C60046863603C
:104820008368402B05D0036899600368DA6030BC68
:10483000704703689A600368D960F8E710B40368AA
:10484000D9B210390C4AA2FB014212090B4CA25CEE
:10485000C2655F2909D923F47F7323F0030304336E
:104860008365806D5DF8044B704723F47F7323F0FC
:1048700003038365F5E700BFABAAAAAA707A000814
:10488000836A826992B9012B0AD0022B02D00BB144
:1048900000207047C36A13F0807F28D10020704742
:1048A000C36AB3F1C07F24D000207047B2F5005F27
:1048B00009D0022B25D9032B25D1C36A13F0807FA1
:1048C00023D100207047032B03D8DFE803F0140442
:1048D000140A00207047C36A13F0807F0DD10020B6
:1048E0007047C36AB3F1C07F09D000207047012030
:1048F0007047012070470120704701207047012058
:104900007047012070470020704701207047000069
:1049100070B5044600F016F9002C5BD00546022362
:1049200084F83530002384F834302268136823F08B
:104930000103136023681A6812F0010F0AD000F017
:1049400001F9431B052BF5D920236365032084F867
:10495000350070BD1A68204810406168A2680A439B
:10496000E1680A4321690A4361690A43A1690A436C
:10497000E1690A43216A0A430243616A04291ED09D
:104980001A602668756925F00705636A1D43042BC4
:1049900007D1A36A1D43E36A1BB12046FFF770FFEE
:1049A00090B975612046FFF749FFE26D3F239340C0
:1049B000836000206065012384F83530C9E7E16A2F
:1049C000206B01430A43DBE740236365012084F841
:1049D0003500BEE70120BCE73F8010F038B5044643
:1049E000856D90F8340001282BD0012084F8340024
:1049F00094F83500C0B2012804D0002384F8343084
:104A0000022038BD022084F8350000206065204671
:104A1000FFF7FEFEE26D3F239340AB602268136810
:104A200043F016031360236C23B12268136843F02C
:104A3000080313602268136843F001031360002029
:104A4000DFE70220DDE70000074AD36823F4E063D4
:104A50001B041B0C000200F4E060034343F0BF633F
:104A600043F40033D360704700ED00E000B5194B0C
:104A7000DB68C3F30223C3F1070CBCF1040F28BFAA
:104A80004FF0040C03F1040EBEF1060F18D9033BDE
:104A90004FF0FF3E0EFA0CFC21EA0C0199400EFA91
:104AA00003F322EA0303194300280BDB0901C9B20F
:104AB00000F1604000F5614080F800135DF804FBF0
:104AC0000023E5E700F00F000901C9B2024B1954B9
:104AD000F4E700BF00ED00E014ED00E0002807DB84
:104AE00000F01F02400901239340024A42F820309F
:104AF000704700BF00E100E008B50B4B1A6842F4B4
:104B000000721A601A6842F480621A601A6842F4ED
:104B100080721A600320FFF797FF0F20FFF750F80D
:104B2000FFF732F8002008BD003C0240034A11683C
:104B3000034B1B780B441360704700BF78140020B0
:104B400070000020014B1868704700BF78140020E7
:104B500038B50446FFF7F6FF0546B4F1FF3F02D033
:104B6000044B1B781C44FFF7EDFF401BA042FAD317
:104B700038BD00BF700000202DE9F04782B0054627
:104B8000884617461E46FFF7DDFF0A9B1B1A03EBFC
:104B90000609FFF7D7FF82462B4B1B68C3F3CB33C5
:104BA00009FB03F301932B689C6838EA04030CBFEC
:104BB0004FF0010C4FF0000CBC4540D0B6F1FF3F68
:104BC000F1D0FFF7BFFFA0EB0A00484506D2B9F1CC
:104BD000000F03D0019B73BB9946E4E72A68536832
:104BE00023F0E00353606B68B3F5827F0BD0AB6AB0
:104BF000B3F5005F14D0012385F85130002385F808
:104C0000503003201CE0AB68B3F5004F02D0B3F581
:104C1000806FECD12A68136823F040031360E6E745
:104C20002A68136823F4005313602A68136843F456
:104C300000531360DFE7019B013B0193B3E70020C2
:104C400002B0BDE8F08700BF7800002070B584B0E6
:104C500004460D46164600920B4601220221FFF73C
:104C60008BFFD0B9174B1B68174AA2FB03235B0DC0
:104C70004FF47A7202FB03F303936368B3F5827F08
:104C800011D0039B3BB1039B013B039323689B68BB
:104C900013F0800FF5D104B070BD636D43F02003B5
:104CA00063650320F7E700962B460022802120460B
:104CB000FFF762FF0028EED0636D43F020036365C9
:104CC0000320E8E778000020819F5E1610B582B0CF
:104CD00004460B464168B1F5827F14D06168B1F596
:104CE000827F2AD1A168B1F5806F19D0009200228D
:104CF00080212046FFF740FF30B3636D43F020036F
:104D00006365032020E08168B1F5004F02D0B1F562
:104D1000806FE3D12068016821F040010160DDE788
:104D20000092002201212046FFF726FF60B1636D4B
:104D300043F020036365032006E000920022012176
:104D40002046FFF719FF08B902B010BD636D43F0AC
:104D5000200363650320F7E700285AD010B5044606
:104D6000436A33B94368B3F5827F05D00023C3613A
:104D700002E00023036143610023A36294F85130F1
:104D8000002B40D0022384F851302268136823F0AE
:104D900040031360636803F48273A26802F4044260
:104DA0001343E26802F400621343226902F0020234
:104DB0001343626902F001021343A26902F4007214
:104DC0001343E26902F038021343226A02F08002C0
:104DD0001343A26A02F40052216813430B60638BF1
:104DE00003F00403626A02F01002216813434B606F
:104DF0002268D36923F40063D36100206065012336
:104E000084F8513010BD84F85030204602F02AFA60
:104E1000B8E7012070472DE9F04383B00446884687
:104E200091461F460A9DFFF78DFE064694F85130C5
:104E3000DBB26268012B0AD0B2F5827F40F00581B7
:104E4000A268002A40F00581042B40F00481B8F1EB
:104E5000000F00F00281B9F1000F00F00081002F77
:104E600000F0FF8094F85030012B00F0FC8001230B
:104E700084F8503094F85130DBB2042B02D0052373
:104E800084F8513000236365C4F83890E787A7871A
:104E9000C4F83080E786A7862364636423681A68B1
:104EA00012F0400F03D11A6842F040021A60E36822
:104EB000B3F5006F11D063680BB1012F0BD1226BDA
:104EC000236812781A73236B01332363E38E9BB23A
:104ED000013B9BB2E386012771E063680BB1012FB0
:104EE0000BD1226B23681288DA60236B02332363B1
:104EF000E38E9BB2013B9BB2E38601271BE0236854
:104F00009A6812F0010F0ED0E28F92B25AB1DA68AD
:104F1000A36B1A80A36B0233A363E38F9BB2013BA5
:104F20009BB2E3870127FFF70DFE801BA84202D347
:104F3000B5F1FF3F1ED1E38E9BB21BB9E38F9BB24D
:104F4000002B62D023689A6812F0020FD7D0E28E4D
:104F500092B2002AD3D0002FD1D0226B1288DA600F
:104F6000236B02332363E38E9BB2013B9BB2E38648
:104F70000027C4E7012384F85130002384F850301F
:104F8000032063E023689A6812F0010F0ED0E28FCD
:104F900092B25AB1DA68A36B1A70A36B0133A363A0
:104FA000E38F9BB2013B9BB2E3870127FFF7CAFD6A
:104FB000831BAB4202D3B5F1FF3F1ED1EDB1E38EAF
:104FC0009BB213B9E38F9BB2FBB123689A6812F0CE
:104FD000020FD7D0E28E92B2002AD3D0002FD1D0C8
:104FE000226B12781A73236B01332363E38E9BB217
:104FF000013B9BB2E3860027C4E7012384F85130CC
:10500000002384F85030032020E032462946204611
:10501000FFF71CFE90B9A36833B901932368DA68DF
:1050200001929B680193019B012384F85130002376
:1050300084F85030636D4BB1012007E02023636595
:10504000002384F85030012000E0022003B0BDE8C6
:10505000F0830220FAE70220F8E70120F6E70120BA
:10506000F4E70120F2E70220F0E7000038B504463B
:1050700090F85100C0B2656801280AD0B5F5827F6A
:1050800040F08B80A568002D40F08980042840F016
:105090008880002900F08780002A00F08680002B9D
:1050A00000F0858094F85000012800F082800120F3
:1050B00084F8500094F85100C0B2042802D00520B2
:1050C00084F85100002060652163A386E386A26313
:1050D000A387E3872064606494F85130DBB2042B2B
:1050E0001DD0E36C344A1A64E36C344ADA63E36C2F
:1050F000334ADA64E36C00221A652168E38F9BB2BD
:10510000A26B0C31E06CFFF769FC78B1636D43F082
:1051100010036365002384F8503001203EE0E36C07
:10512000284A1A64E36C284ADA63E0E72268536885
:1051300043F001035360A26C00231364A26CD36399
:10514000A26CD364A26C13652268E38E9BB20C320E
:10515000216BA06CFFF742FCB0B923681A6812F00B
:10516000400F03D11A6842F040021A60002384F80D
:1051700050302268536843F020035360226853681C
:1051800043F00203536009E0636D43F0100363656D
:10519000002384F85030012000E0022038BD0220B6
:1051A000FCE70220FAE70120F8E70120F6E70120FA
:1051B000F4E70220F2E700BFDD5100087952000851
:1051C000E9510008D15100080B52000870477047A0
:1051D00008B5806BFFF7FBFF08BD704708B5806B13
:1051E000FFF7FBFF08BD704708B5806B0268536886
:1051F00023F003035360436D43F010034365012321
:1052000080F85130FFF7EFFF08BD38B50546846BD5
:10521000FFF798FC2B681B6813F4807F1ED10246B1
:1052200021684B6823F020034B60A3681BB96368B7
:10523000B3F5827F16D021684B6823F001034B60E1
:1052400064212046FFF742FD08B120236365002357
:10525000E387012384F85130636D4BB92046FFF793
:10526000B5FF38BD21684B6823F003034B60E7E7C7
:105270002046FFF7B8FFF4E738B50546846BFFF723
:1052800061FC2B681B6813F4807F1BD102462168E8
:105290004B6823F020034B6064212046FFF7D6FCC7
:1052A00018B1636D43F0200363652268536823F0EF
:1052B000030353600023E386E387012384F851301E
:1052C000636D1BB92046FEF707FB38BD2046FFF78C
:1052D0008AFFFAE7026802F10C0353E8003F23F467
:1052E00090730C3242E800310029F3D1026802F1D8
:1052F000140353E8003F23F00103143242E8003165
:105300000029F3D1036B012B05D0202380F8423014
:10531000002303637047026802F10C0353E8003F67
:1053200023F010030C3242E800310029F3D1ECE7FE
:1053300038B504460268136923F44053C1680B432F
:10534000136183680269134342691343C2691A43B4
:105350000168CB6823F4164323F00C031343CB609E
:105360000268536923F4407381690B4353610368F6
:10537000314A934206D002F58062934202D0FFF791
:1053800017F901E0FFF724F9E369B3F5004F29D0DD
:105390000021031849411B1841F10001C90041EAED
:1053A0005371DB00181863684FEA83024FEA937366
:1053B00041F10001FDF7BEFF204DA5FB0032510970
:1053C000642303FB11031B013233A5FB03235B0999
:1053D00003F0F00202EB011203F00F032168134403
:1053E0008B6038BD0023021843EB0301121841F112
:1053F0000001C90041EA5271D200101841F10001C8
:10540000626892185B41FDF795FF0C4DA5FB0032D9
:105410005109642303FB1103DB003233A5FB032393
:105420005B095A0002F4F87202EB011203F0070361
:10543000216813448B60D4E7001001401F85EB51B5
:105440002DE9F04383B005460E4617469946DDF830
:1054500028802C68246836EA04030CBF4FF0010C46
:105460004FF0000CBC4528D1B8F1FF3FF1D0FFF759
:1054700069FBA0EB0900404523D8B8F1000F22D00A
:105480002B68DA6812F0040FE3D0802EE1D0402EB2
:10549000DFD01A6812F0080FDBD0002401941A68DC
:1054A00001925B680193019B2846FFF713FF0823D5
:1054B0006B6485F84040012000E0002003B0BDE8A7
:1054C000F0830320FAE70320F8E760B310B5044641
:1054D00090F8413013B3242384F841302268D36814
:1054E00023F40053D3602046FFF722FF226813699C
:1054F00023F4904313612268536923F02A03536114
:105500002268D36843F40053D360002060642023F2
:1055100084F8413084F84230606310BD80F8403038
:1055200001F0C0FFD7E7012070472DE9F04182B0BC
:105530001E4690F84130DBB2202B56D104460D4672
:105540009046002955D00AB901204FE0002343645A
:10555000212380F84130FFF7F5FA0746A4F82480AC
:10556000A4F82680A368B3F5805F02D04FF000084E
:1055700014E023692BB34FF000080FE0202384F8D8
:105580004130032032E038F8023B2268C3F30803BD
:105590005360E28C92B2013A92B2E284E38C9BB205
:1055A00093B100963B46002280212046FFF748FF3A
:1055B0000028E3D1002DE6D015F8012B23685A60AE
:1055C000E7E7A8460025E9E700963B460022402190
:1055D0002046FFF735FF18B9202384F8413005E055
:1055E000202384F84130032000E0022002B0BDE80F
:1055F000F0810120FAE70000034AD2F8883043F432
:105600007003C2F88830704700ED00E010B5034623
:105610000C4A0D490D48006840B10C48006803442D
:10562000521A934206D8094A136010BD0748084C25
:105630000460F2E7FAF7F0FD0C2303604FF0FF304F
:10564000F3E700BF00000220000400007C140020EB
:1056500050A8002070B50C461646002506E0AFF3B2
:105660000080214601F8010B01350C46B542F6DBFE
:10567000304670BD70B50C461646002504E014F89F
:10568000010B01F091FF0135B542F8DB304670BDEA
:105690004FF0FF3070474FF400534B6000207047CD
:1056A000012070470020704710B504461D4B436031
:1056B0001D4981601D4AC2601D4A026143618161CA
:1056C0004FF07C51C16102621A4A42621A4A8262F8
:1056D0001A4AC2621A4A026343631A4A8263002268
:1056E000C2630364184B4364184B8364184BC36450
:1056F000036542654FF4805200215830FAF750FE9E
:1057000004F5805446F2A813A365002384F85C30A6
:105710004FF07E5323660F4B63660F4BA366E36621
:1057200010BD00BF0AD7233C48E18240BD37863513
:1057300017B7D1380000484252B89E3E00002841B9
:10574000000020413333834000009644CDCCCC3D53
:105750003333D33FB81E853EACC5273910B5044658
:1057600041F274020749FAF781FD2378AA2B05D18B
:1057700004F5805393F87030552B02D02046FFF784
:1057800093FF10BD00000E0870B5444B1A6B42F039
:1057900007021A631A6B42F480021A635A6C42F0D1
:1057A00001025A643E4C4FF480732360022363600D
:1057B0000025A5600323E36001232361394E2146C0
:1057C0003046FEF733FF4FF4007323602146304626
:1057D000FEF72CFF4FF48063236021463046FEF72E
:1057E00025FF4FF40053236006F5806621463046BE
:1057F000FEF71CFF4FF48043236021463046FEF73E
:1058000015FF4FF40043236021463046FEF70EFF9C
:10581000254B1A6822F001021A601A6822F0600211
:105820001A601A6842F020021A601A6842F0800278
:105830001A601D639D61DD61DA6922F4E042DA617C
:10584000DA6942F4C042DA619A6942F068029A6108
:105850009A6942F4D0429A61DA6942F06802DA61E8
:105860001A6A42F4AA5242F015021A625D645A6C36
:1058700042F440625A645A6C22F0FF025A645A6C35
:1058800042F005025A645A6C42F400425A645A6962
:1058900042F001025A611D6170BD00BF0038024034
:1058A000801400200000024000000140036843F023
:1058B0000103036070470000074A536C43F4003350
:1058C0005364064BA7229A624FF6FF72DA625A6956
:1058D00042F001025A617047003802400044014022
:1058E0000F4A136C43F0020313640E4B40F247322D
:1058F0009A6240F2E732DA625A6942F001025A6172
:105900001A6922F001021A61DA6842F00102DA60D3
:10591000054B602283F81D234FF000521A60704738
:10592000003802400004004000E100E010B4274BC2
:105930001A6B42F001021A635A6C42F4E0625A6434
:10594000234A13686FEA93336FEA83331360D36893
:1059500023F47F5323F03F03D3601E4B1E4A5A604B
:10596000A3F540734FF4C0725A60002098609A68A3
:1059700042F400129A60194A9A63194A1A61194945
:105980004FF480744C608860174A8A63174A0A6132
:10599000174A54609060174C94634FF4D8641461B4
:1059A000154C84F812034FF480202060986840F072
:1059B000010098608B6843F001038B60936843F0AB
:1059C000010393605DF8044B704700BF003802404C
:1059D00000000240002301401500010000102300D8
:1059E00003300C00002101402094220018800100A7
:1059F00000220140408C210000E100E080EA1020FC
:105A000080EA101080EA900080EA500000F0010067
:105A1000704700B587B0002301930293039304936A
:105A2000059303890193012302930323049301A99E
:105A30004068FEF7FBFD07B05DF804FB80B110B5D0
:105A4000044679B182B10BB9002010BD01604260FB
:105A50000381FFF7DEFF636822899A610120F4E782
:105A6000002070470020F0E70020EEE770B584B01A
:105A7000044647F6FF75ADF80E502846FFF7BEFF07
:105A800045EAC035ADF80E50238962681B04936166
:105A9000254655F80A0B6426009602232A460DF186
:105AA0000E01FFF7B8F9636822899A610120FFF7B8
:105AB0004FF8238962681B049361009602232A46EB
:105AC0000DF10E012068FFF7A6F9636822899A613B
:105AD000A37AE47A44EA0324631E9BB24FF6FD7274
