:020000040800F2
:1000000000000220751401089586000897860008F4
:10001000998600089B8600089D8600080000000065
:1000200000000000000000000000000031D20008C5
:100030009F86000800000000D1D20008CBCD000848
:10004000C5140108C5140108C5140108C514010828
:10005000C5140108C5140108C5140108C514010818
:10006000C5140108C5140108C5140108C514010808
:10007000C5140108C5140108D1860008E1860008EE
:10008000C5140108C51401086D840008C5140108D1
:1000900041870008C5140108C5140108C5140108EA
:1000A000C5140108C5140108A1860008C51401087B
:1000B000C5140108D1830008C5140108C51401083E
:1000C000C5140108C5140108C5140108F18600080B
:1000D00001870008C5140108C5140108C5140108EA
:1000E000C5140108C5140108C5140108C514010888
:1000F000C5140108C5140108C5140108C514010878
:10010000C5140108C5140108C5140108C514010867
:10011000C5140108C5140108C5140108C514010857
:1001200021870008C5140108C1860008318700082E
:10013000C51401080000000000000000C5140108FB
:10014000C5140108C5140108C5140108C514010827
:10015000C5140108C5140108B186000811870008FC
:10016000C5140108C5140108C5140108C514010807
:10017000C5140108C51401080000000000000000BB
:08018000C5140108C5140108B3
:1001C0000348044B834202D0034B03B118477047E6
:1001D0000C0200200C020020000000000548064927
:1001E0000B1AD90F01EBA301491002D0034B03B145
:1001F000184770470C0200200C020020000000008D
:1002000010B5064C237843B9FFF7DAFF044B13B15E
:100210000448AFF300800123237010BD0C020020BE
:1002200000000000C814010808B5044B1BB10449C4
:100230000448AFF30080BDE80840CFE700000000AD
:1002400010020020C8140108002101F045BF00BFC2
:100250000A22002102F0B6B80A23002202F092B866
:10026000014B1868704700BF0000002070B50D4EAC
:100270000D4D761BB61006D0002455F8043B013412
:100280009847A642F9D1094E094D761B11F01CF989
:10029000B61006D0002455F8043B01349847A64216
:1002A000F9D170BDD42C0108D42C0108D82C010838
:1002B000D42C0108844641EA000313F003036DD1F6
:1002C000403A41D351F8043B40F8043B51F8043B19
:1002D00040F8043B51F8043B40F8043B51F8043B20
:1002E00040F8043B51F8043B40F8043B51F8043B10
:1002F00040F8043B51F8043B40F8043B51F8043B00
:1003000040F8043B51F8043B40F8043B51F8043BEF
:1003100040F8043B51F8043B40F8043B51F8043BDF
:1003200040F8043B51F8043B40F8043B51F8043BCF
:1003300040F8043B51F8043B40F8043B51F8043BBF
:1003400040F8043B403ABDD2303211D351F8043B5F
:1003500040F8043B51F8043B40F8043B51F8043B9F
:1003600040F8043B51F8043B40F8043B103AEDD20E
:100370000C3205D351F8043B40F8043B043AF9D25F
:10038000043208D0D2071CBF11F8013B00F8013B32
:1003900001D30B8803806046704700BF082A13D33F
:1003A0008B078DD010F003038AD0C3F10403D21A57
:1003B000DB071CBF11F8013B00F8013B80D331F88B
:1003C000023B20F8023B7BE7043AD9D3013A11F80B
:1003D000013B00F8013BF9D20B7803704B78437076
:1003E0008B78837060467047830730B548D0541EC1
:1003F000002A3FD0CAB2034601E0013C3AD303F8D9
:10040000012B9D07F9D1032C2DD9CDB245EA052545
:100410000F2C45EA054536D9A4F1100222F00F0C45
:1004200003F1200EE6444FEA121C03F1100242E9E8
:10043000045542E9025510327245F8D10CF101021F
:1004400014F00C0F03EB021204F00F0C13D0ACF1FC
:10045000040323F003030433134442F8045B934280
:10046000FBD10CF003042CB1CAB21C4403F8012BDD
:100470009C42FBD130BD64461346002CF4D1F9E711
:1004800003461446BFE71A46A446E0E72DE9F047C5
:1004900057EC106B84B0002F0C46DDE90CA9904698
:1004A00019465FDB0025B9F1660F0D701AD0B9F15E
:1004B000460F17D029F02003452B36D003AA01920E
:1004C00002AA009247EC106B53462246022102F02A
:1004D00007F9B9F1670F054634D118F0010F34D18F
:1004E000039B1BE003AB019302AB009347EC106B43
:1004F00053462246032102F0F3F8054600EB0408B8
:100500002B78302B33D0DAF800404444304639465B
:100510000022002307F0B0FAC8B123460E9A5B1BF5
:100520002846136004B0BDE8F08703AA01920134A5
:1005300002AA009247EC106B53462246022102F0B9
:10054000CFF80546B9F1470FC7D02C44DEE7039B2F
:100550009C42E3D930215A1C03921970039BA34299
:10056000F9D3DBE707F100432D251F469BE7002267
:1005700000233046394607F07FFA0028C3D1C4F182
:100580000104CAF80040C0E7F0B5002983B002704A
:100590003FDB841C2B230929437030DD0DF1070557
:1005A0001F4FAC4687FB0132CB17C3EBA20303EB13
:1005B0008302A1EB42020E463032632EE6460CF86F
:1005C000012C19460CF1FF3CECDC3031AEF102039A
:1005D000C9B29D420CF8011C1FD96346224601E0B6
:1005E00013F8011B02F8011BAB42F9D10DF109030D
:1005F000A3EB0E0EA644AEEB000003B0F0BD30231B
:10060000A64619440EF8023B6170AEEB000003B041
:10061000F0BD4942841C2D23BDE7A646F5E700BF87
:10062000676666662DE9F04F2DED028B8DB00C46A6
:10063000DDF8608016461F46054603F095FE036808
:10064000184608EE103A00F01BFD00230A93D8F874
:1006500000300790073323F0070303F10802D4F8B2
:1006600000B094F818A0C8F80020D3E9008929F058
:1006700000430593CDF81080C4E91289DDE9040137
:10068000A74B4FF0FF3207F029FA48B9DDE9040122
:10069000A34B4FF0FF3207F003FA002800F09280DE
:1006A00042464B464046494607F018FA002840F0BB
:1006B000348261684B1C2DD0BAF1670F68D0BAF153
:1006C000470F65D04BF480620023226003930AAB8E
:1006D000029309AB49EC108B0093CDF804A00DF107
:1006E00023032846FFF7D2FE8046BAF1650F099929
:1006F00034D80139524604F150000991FFF744FF04
:100700000A9A1318012A8146236140F37E8101333E
:10071000236135E0062161604BF480620023226092
:1007200003930AAB029309AB49EC108B0093CDF80D
:1007300004A00DF123032846FFF7A8FE0AF0DF030B
:10074000472B8046D1D10999C81C80F2FE80AAF1BE
:10075000020A5FFA8AFABAF1650FCAD9BAF1660FCE
:1007600000F0FA800A9B8B4240F301810029D4BF3C
:10077000C1F10202012213442361A1654FF0000977
:100780009DF82330002B35D02D2384F8433031E001
:10079000002900F023814BF4806200232260039340
:1007A0000AAB029309AB49EC108B0093CDF804A07F
:1007B0000DF123032846FFF769FE09998046C81CFE
:1007C000C5DBC2E0404649460022002307F05EF93F
:1007D00010B12D2384F84330524B53482BF00402C0
:1007E000BAF1470F94BF98468046032322602361E5
:1007F0004FF00009009733460BAA2146284600F027
:10080000ABF9013025D02368580531D4236942461D
:1008100031462846B84701301BD02368E06813F002
:10082000020F0B9B1CD0C21A002A19DD04F1190912
:100830004FF0000804E0E0680B9BC21A42450FDD50
:1008400001234A4631462846B847013008F10108DD
:10085000F1D14FF0FF300DB0BDEC028BBDE8F08F51
:100860009842B8BF18460DB0BDEC028BBDE8F08FC2
:10087000BAF1650F32D9D4E912010022002307F042
:10088000FBF800287BD0294A012331462846B84787
:100890000130DED0DDE909239A4202DB2368D90763
:1008A000BCD5079B18EE102A31462846B8470130C0
:1008B000CFD00A9B012BB0DD04F11A094FF00008DC
:1008C00003E00A9B013B4345A7DD01234A4631462D
:1008D00028469844B8470130F3D1BAE70A9A012A6A
:1008E0007FDD0123424631462846B8470130B0D06B
:1008F000079B18EE102A31462846B8470130A8D089
:10090000D4E912010022002307F0B6F8002877D0BE
:100910000A9B012B70DD04F11A0A4FF000080BE06E
:10092000FFFFEF7F402B0108442B01084C210108F9
:100930000A9B013B43455FDD012352463146284671
:100940009844B8470130F3D183E7636899423FF791
:10095000FEAE4FF0670A05E700295BDD63682161A1
:10096000002B00F0898001330B44236105E72368E5
:100970002161DB077FF501AF4B1C2361FDE6099B7D
:10098000002B4FDD0A9BD4F858A05345A8BF53460F
:10099000002B9B4608DD424631462846B8470130C9
:1009A0003FF457AFD4F858A02BEAEB7BAAEB0B032C
:1009B000002B6EDD04F11A024FF00009924604E0AC
:1009C000A36DA3EB0B024A4562DD0123524631467B
:1009D00028469944B8470130F2D13AE701216160D5
:1009E0009AE6DB073FF57DAF4246012331462846B4
:1009F000B84701303FF42DAF4B4604F1500207E7F2
:100A00000A9B08F10102013BF0E72268D2077FF55B
:100A1000B7AE7CE66368002B33D12268D20730D4AE
:100A20000123A9E6494A012331462846B847013047
:100A30003FF40FAFDDE90923134324D0079B18EEE1
:100A4000102A31462846B84701303FF402AF099BCF
:100A5000002B77DA04F11A0A4FF0000903E0099B32
:100A60005B424B456EDD0123524631462846994490
:100A7000B8470130F3D1ECE62268D0077FF57DAEB0
:100A800071E7023378E62368DA077FF5C7AED5E76A
:100A90009A46DDE909218A4202DB2368D8070AD594
:100AA000079B18EE102A31462846B84701303FF41C
:100AB000D0AEDDE90921A1EB0A098A1A9145A8BF48
:100AC0009146B9F1000F0BDD08EB0A024B463146A7
:100AD0002846B84701303FF4BCAEDDE90932D21AEE
:100AE00029EAE979A2EB0903002B7FF796AE04F11E
:100AF0001A0A4FF0000807E0DDE909239B1AA3EB6F
:100B0000090343457FF789AE012352463146284603
:100B10009844B8470130EFD19BE64B46002BBCBF51
:100B20002D2384F843302BF00403094A2360094B3A
:100B3000BAF1470F94BF90469846032323614FF0C4
:100B4000000957E60A9B424662E600BF4C210108B5
:100B5000482B01084C2B01082DE9F84F92461F46FF
:100B60000A698B68DDF828909A42B8BF1A46CAF81D
:100B7000002091F843300C46064613B10132CAF802
:100B80000020226891065DD5DAF800300233CAF8F9
:100B90000030226812F0060F11461ED1E168CB1A10
:100BA000002BD8BF114618DD04F1190B4FF00008D7
:100BB00005E0E568DAF80030ED1A45450CDD012363
:100BC0005A4639463046C847013008F10108F0D18D
:100BD0004FF0FF30BDE8F88F216894F84330003BB8
:100BE00018BF01238A060AD5E1185A1C302081F863
:100BF0004300224494F8451082F84310023304F174
:100C0000430239463046C8470130E1D0236803F03B
:100C10000603042B1DD0A3682269934225DD4FF003
:100C200000089B1A98441A34002501E045451CDA57
:100C30000123224639463046C847013005F10105F7
:100C4000F4D1C5E712F0060F12D0003B18BF012304
:100C5000D5E7DAF80030E1682269C91AA36893423F
:100C600021EAE178DDDC0029DDDC0020BDE8F88F39
:100C7000E168DAF80030CB1A002BD8BF114693DCBC
:100C8000ABE700BF2DE9F0470C4684B09046227ECA
:100C90000C990746994604F14300002A33D0A2F18B
:100CA0005803DDB2202D67D8202B65D8DFE813F07C
:100CB000DE0064006400640064006400640064009A
:100CC000640064006400A3006E00640064006400BB
:100CD00064006E00640064006400640021007F0012
:100CE000C00064006400AE0064007F006400640023
:100CF000E50023681A0640F104810B6862691D1D36
:100D00000D601B681A60002382462361CDF80090B5
:100D1000434603AA21463846FFF71EFF013020D084
:100D20002369524641463846C847013019D02368E6
:100D3000E068039E9B0719D5831B002B16DD04F189
:100D4000190A002504E0E068039E831BAB420DDD19
:100D50000123524641463846C847013005F1010596
:100D6000F1D14FF0FF3004B0BDE8F087B042B8BF1A
:100D7000304604B0BDE8F087012384F842202361A7
:100D800004F1420A002384F84330BFE723681A06BF
:100D900002D45E0600F1C1800D682A6804350D603A
:100DA0001546002A6BDBDFF884C10A2610E02368B1
:100DB0001D0640F19C800B681D1D0D601D68DFF84D
:100DC0006CC16F2A0CBF08260A26002384F8433022
:100DD0006268A260002A7FDB236823F0040323609B
:100DE000002D5BD1002A79D18246082E65D0A0EB78
:100DF0000A0020618AE70B680122186804330B603F
:100E000004F1420A84F842002261BBE70B68626881
:100E1000181D0860D3F800A00021504603F070FBB5
:100E2000002800F08180A0EB0A0060602061A9E743
:100E3000236843F0200323607822DFF8F4C084F8AD
:100E400045200A68151D0D601D0643D4590641D57D
:100E50001588DE0744BF43F020032360002D44D1F2
:100E6000236823F0200323601026AEE7582384F87C
:100E70004530DFF8B8C02368E3E72368DCE7626841
:100E8000A2602D21002AC5F1000584F8431002DB81
:100E900023F004032360DFF894C00A268246B5FBE2
:100EA000F6F306FB13512A461CF801100AF8011D3F
:100EB000B2421D46F3D2082E99D12368D90796D5A0
:100EC000626823699A4292DC30230AF8013C0AF1F5
:100ED000FF3A8CE71568BCE7002DDFD19CF80030A5
:100EE00084F8423004F1420A7FE710266DE713F0E0
:100EF000400F0B6803F104050D600CBF1D681D88D1
:100F00005DE713F0400F0B68626903F104050D60A3
:100F10001B6814BF1A801A60F5E60A68B2F900501F
:100F200004320A602A463CE760687FE7502B0108DC
:100F3000642B01080EB410B5044683B008B1836970
:100F40005BB106ABA168059A0193204604F0ACF9A9
:100F500003B0BDE8104003B0704702F06FFDF0E74A
:100F60000FB410B50A4B1C6882B00CB1A3695BB119
:100F700005ABA168049A0193204604F095F902B0EC
:100F8000BDE8104004B07047204602F057FDEFE77F
:100F9000000000202DE9F0410E460746002833D01E
:100FA00083697BB384682F4B9C4237D02E4B9C4285
:100FB0003FD02E4B9C4208BFFC68A3891B0731D54C
:100FC00023697BB33578B0463DB934E023685A1CB9
:100FD00022601D7018F8015F6DB3A368013B002B00
:100FE000A360F3DAA669B34229462246384601DBFC
:100FF0000A2DEBD101F0FAF90130EBD14FF0FF30BF
:10100000BDE8F08102F01AFDBB69BC68002BCAD1B3
:10101000384602F013FD134B9C42C7D17C68A3896C
:101020001B07CDD42146384601F044FA0028C9D028
:10103000E4E7BC68C1E7A368013B002BA36009DAC1
:1010400022460A21384601F0D1F90130D6D00A20D3
:10105000BDE8F08123680A22591C21601A701046ED
:10106000BDE8F0817C1601085C1601083C160108F9
:10107000024B01461868FFF78DBF00BF000000203B
:1010800090F800F06DE9024520F007016FF0000CC8
:1010900010F0070491F820F040F049804FF0000470
:1010A0006FF00700D1E9002391F840F000F108004B
:1010B00082FA4CF2A4FA8CF283FA4CF3A2FA8CF383
:1010C0004BBBD1E9022382FA4CF200F10800A4FAEA
:1010D0008CF283FA4CF3A2FA8CF3E3B9D1E904233E
:1010E00082FA4CF200F10800A4FA8CF283FA4CF375
:1010F000A2FA8CF37BB9D1E9062301F1200182FA2F
:101100004CF200F10800A4FA8CF283FA4CF3A2FA34
:101110008CF3002BC6D0002A04BF04301A4612BA42
:10112000B2FA82F2FDE8024500EBD2007047D1E945
:10113000002304F00305C4F100004FEAC50514F0D4
:10114000040F91F840F00CFA05F562EA05021CBFA5
:1011500063EA050362464FF00004A9E700000000BF
:101160002DE9F04F1C462DED048B9D4B1B689FB065
:10117000002582461846884607921A950893FFF77D
:101180007FFF002183460020CDE90401CDF8648073
:101190004246174612F8013B2D2B2FD8DFE813F0FB
:1011A000A4002E002E002E002E002E002E002E0059
:1011B0002E00B400B400B400B400B4002E002E0021
:1011C0002E002E002E002E002E002E002E002E00AF
:1011D0002E002E002E002E002E002E002E002E009F
:1011E000B4002E002E002E002E002E002E002E0009
:1011F0002E002E002E000E042E0004040022099260
:10120000302B00F0838000220C922F2B1C4640F2E2
:101210004D854FF0000938464E464D4612E00130EC
:10122000082D1990C8BF09EB89090478C6BF03EBE4
:101230004903A3F13009A2F130062F2C05F1010575
:10124000234674DD06EB8602392C03EB4202E6DD11
:1012500008995A4604F0E0F90346002835D1199A56
:1012600011465A44199211F80B40002D40F0A985FF
:10127000302C40F06185C2F10101531801321992FE
:101280001478302CF9D0A4F13102082A00F24383FB
:10129000A4F1300E199C03F1010B00230125274610
:1012A0000A9306EB86060EEB46060023621C199293
:1012B0006478A4F13001092900F2F18201338E46ED
:1012C000002940F0D284199CF0E70023652C0A9590
:1012D0009B469E4601D0452C36D1002D40F085809E
:1012E0000C9A1A4340F08080079B9FED3B8B13B113
:1012F000079BC3F80080B0EE480AF0EE680A1FB002
:10130000BDEC048BBDE8F08F199242E77B7803F0C7
:10131000DF03582B00F08D84013719973B78302B71
:10132000FAD0002B00F0D38001220C926DE70899CF
:101330005A4604F071F90346002800F0DB800A9554
:101340004FF0000B5B46DE4600220D92002D00F0B0
:1013500098800A9A1346002A08BF2B4630460A9303
:1013600006F0A8F80B460246CDE904230D9B102D8C
:10137000A3EB0B032C46A8BF1024092D0C9314DDFE
:10138000184B03EBC40353E9122306F00DF9024690
:1013900048469046894606F08DF802460B46404680
:1013A000494605F04BFFCDE904010F2D00F3AB805A
:1013B0000C9B002B00F034840C9B40F38283162B93
:1013C00040F3F1840C9AC5F12503934280F2048521
:1013D0000C9B2C1B1C449CE0000000000000000043
:1013E0009C170108B81701080025DDF8648008F192
:1013F0000102199298F801402B2C00F089822D2CC3
:1014000000F01D8200220892A4F13002092A00F2A5
:101410001182302C05D1199A013219921478302C8E
:10142000FAD0A4F13102082A8ED819990D914A1CDC
:101430001992A4F130004C782F2C09DC00F044BC48
:10144000013219929CF801402F2CA1F1300006DDE9
:1014500000EB8001392C944604EB4101F0DD0D993D
:10146000521A082A40F3308444F61F620D92089AFB
:10147000002A3FF46BAF0D9A52420D92002D7FF47B
:1014800068AF0C9A134322D1BEF1000F7FF42CAF4A
:10149000692C00F0318400F35283492C00F02C8435
:1014A0004E2C7FF421AFB84919A802F069FE00283C
:1014B0003FF41AAF199B1B78282B00F07185B348B5
:1014C00004F042F8B0EE408AF0EE608A01E09FED51
:1014D000AA8B079A0AB1199B1360099B002B3FF452
:1014E0000AAF18EE901A18EE102A01F1004343ECEF
:1014F000182B00E7199A0A9502EB0B01199112F8C3
:101500000B409B46D5E60C9B2C1B1C44002C40F347
:101510001B8314F00F000AD09D4901EBC001DDE9E7
:101520000423D1E9000106F03FF8CDE9040134F0CD
:101530000F0340F07082002308930A9A00962B460E
:101540003946504603F0E2F81190002800F06B8312
:101550000D9BABEB03000C9B002BB4BF024600229B
:101560004FF0000823EAE3730D921093C346119CD9
:101570005046616803F014F88146002800F0478166
:1015800022699DED048B0232920004F10C010C30B3
:10159000FEF790FEB0EE480AF0EE680A1CAA1BA9FE
:1015A000504603F05DFC1A90002800F01D810121D7
:1015B000504603F055F98346002800F028811B9B14
:1015C000002BC0F217810D9A109D9E18089A1C9C42
:1015D0009B1A23446F4A013B9342C4F1360480F2C4
:1015E000B080D21A1F2AA4EB020400F31C8101234D
:1015F00093400A930027089B25443444A6421D4487
:101600003346A8BF2346AB42A8BF2B46002B02DDC2
:10161000E41AED1AF61A0D9B002B00F3C580002C7E
:1016200000F3D9800C9B002B00F3E880002D00F321
:10163000F080002E08DD59463246504603F044FA49
:101640008346002800F0E3801A994A46504603F08A
:10165000D1FA8046002800F0DA800023C268C36017
:1016600059460E9203F0A4FA0028C0F2758400F0E7
:10167000E5835946404603F05BFC55EC104B10EEF9
:10168000100A00224FF08043294606F009FA00288C
:101690005BD00E9B002B00F0DD80059B0F933E4B33
:1016A0003D4D0022CDE90A2300243C4F0F9A3C4BCC
:1016B00002EA07069E4200F0F880089B8BB1B6F163
:1016C000D46F0ED82EA3D3E900232046294606F076
:1016D000E7F9002840F087810B9B03F1D6639B1B41
:1016E0000B93DDE90A01B0EE480AF0EE680ACDE995
:1016F000040103F025FBDDE9040153EC102B05F098
:1017000053FF53EC182B05F099FDCDE904010A9124
:10171000089B2BB9214B0A9A13409E4200F004818A
:101720001A99504602F07CFF4946504602F078FF75
:101730005946504602F074FF4146504602F070FF91
:1017400015E7012300270A9355E7164B2046294643
:10175000002205F029FF0E9B04460D46002B76D192
:1017600001F1004312901393059B0F93DDE91223BF
:10177000CDE90A2399E700BF000000000000000047
:101780000000C0FFFFFFDF41842B0108E01F0108BC
:10179000B817010802FCFFFF0000F03F0000F07FD7
:1017A0000000E07F0000E03F59461A46504603F033
:1017B0001BF9834658B301461A9A504603F066F85F
:1017C00028B30E901A99504602F02AFF0E9B1A93E6
:1017D000002C7FF727AF1A992246504603F074F980
:1017E0001A9000287FF41EAF22239FEDBF8BCAF80A
:1017F0000030C4E0109A0D9ED51AE7E64946109ACB
:10180000504603F0F1F8814600287FF40FAF1A9894
:10181000EAE749462A46504603F056F98146002831
:101820007FF407AFF3E7B84FFF1A012303FA07F776
:101830000A93E0E60022CDF864800D9286E501224D
:10184000089208F10202199298F80240DCE5CDE90D
:10185000124589E7DDE90412002940F0B280C2F3A5
:1018600013030F92002B40F0B280A84B00222046B9
:10187000294606F00BF9002840F0A782A44B204629
:101880002946002205F090FE01F1004304460D4672
:1018900016901793DDE91623CDE90A2305E7652C99
:1018A0004FF0010E3FF4A1AD15E5A2F1547305937D
:1018B0009DED047BDDE90A01B0EE470AF0EE670A10
:1018C000B0EE479AF0EE679ACDE9040103F038FADA
:1018D000DDE9040153EC102B05F066FE53EC192BE7
:1018E00005F0ACFC8B4B0F409F42CDE9040175D94C
:1018F00018EE902A03F154739A4203D118EE103A6D
:10190000013384D0844A4FF0FF33CDE9043207E736
:101910000022089295E7652C00F00A81452C00F022
:1019200007814FF0010EACE52046294606F09CF9F0
:1019300005F00CFE0B4602462946204605F07CFCCD
:10194000049C0E9F27430A9CC4F3130657EA060320
:1019500004460D4600F0AC8065A3D3E9002306F0F1
:1019600095F848B964A3D3E900232046294606F038
:10197000ABF800283FF4D4AE9DED048B1A980146D5
:10198000504602F04DFE4946504602F049FE594687
:10199000504602F045FE1199504602F041FE414684
:1019A000504602F03DFE94E5012309937A1C1992FA
:1019B0007B78002B3FF498AC174621E40023099371
:1019C000F4E7DDE90412012900F086810F92534B00
:1019D0004E4D0022CDE90A23002466E601F154733E
:1019E0000A93059394E62946204606F0B5F80128A7
:1019F00038BF012005F05EFD0E9B04460D46002B0E
:101A000040F0778101F1004314901593DDE9142330
:101A1000CDE90A2360E6B3F59A7F00F304811C1137
:101A2000102B3F4B089340F3D7829846DDE90423FF
:101A30004FF0000CE14614F0010F104619464FEA32
:101A4000640409F1010907D0D8E9002305F0ACFDD1
:101A50004FF0010C02460B46012C08F10808EAD1B0
:101A6000BCF1000F01D0CDE90423089B03EBC909A9
:101A7000059BA3F154730593DDE90423D9E9000123
:101A800005F092FD274BCDE904010B400A4626499B
:101A90008B4200F2C880A1F580118B4240F23B825C
:101AA0001D4A4FF0FF33CDE904320023089344E58B
:101AB00013A3D3E9002305F0E9FF00283FF430AE7B
:101AC0005AE71633FFF61FAD0D9BABEB030A174B1E
:101AD00003EBCA03DDE90401D3E9002305F08EFE20
:101AE00041EC180BF5E400BF000000000000F07F9F
:101AF0009535A094FFFFDF3F35E5AF350000E03FAF
:101B00009535A094FFFFCF3FE2FBFFFF0000F03FC1
:101B10000000E03FFFFF9F7CFFFFEF7F0000F0BF72
:101B2000A81801080000F07F0000A07CB817010889
:101B300000220A9293464FF0010EFFF7D1BB6E2CA4
:101B40003FF4B1ACFFF7D0BB3FF4F5AC644214F006
:101B50000F020AD0B24B03EBC203DDE90401D3E963
:101B6000002305F04BFECDE9040124113FF4E3AC62
:101B70001F2C3EDC14F0100318BF6A230893DDE924
:101B80000423DFF8B4824FF0000C14F0010F10466C
:101B9000194607D0D8E9002305F006FD4FF0010CE7
:101BA00002460B46641008F10808EED1BCF1000FA4
:101BB00001D0CDE90423089B93B1DDE90401C1F311
:101BC0000A52C2F16B03002B0ADD1F2B40F3308257
:101BD0000020342B049040F336824FF05C73059361
:101BE000DDE904010022002305F046FF00283FF450
:101BF000A4AC22239FED848BCAF8003069E41C9BBF
:101C000004931B9B03F233421D9B23F4801343EA8E
:101C100002530593290742BF059B43F000430593F8
:101C20009DED048B55E422239FED798BCAF800309B
:101C30004FE4099B01931AAB02940093794A1BABC2
:101C400019A9504601F0B0FF10F0070405463FF413
:101C50003EAC062C73D1079B9FED6B8B0137002B9D
:101C60003FF449AB1F60FFF746BB6A1C012B199C70
:101C70009B44104615D02B4403F1FF3C03E0460083
:101C800094450DD001322B46082B154606EB8600F5
:101C9000F5D9102ADCBF09EB89094FEA4909EFE7BA
:101CA000981C082D3EDC0546FFF7FBBA08995A46FA
:101CB000384603F0B1FC00286BD000231D460A9380
:101CC00099461E46FFF73CBB44F61F629042A8BFF0
:101CD00010460D90FFF7CBBBDDE904120F92002AEE
:101CE0007FF475AE22239FED488B1A98CAF8003016
:101CF00045E6CDE9144589E64B4919A802F040FABA
:101D000000283FF4F1AA199B4849013B19A81993EF
:101D100002F036FA10B9199B013319939FED3C8BF1
:101D2000FFF7D7BB1028DCBF09EB890901EB490994
:101D300005460023FFF7BABA0023FFF7A4BA1A9AA0
:101D40003AB135211CA803F041F91A99504602F026
:101D500067FC013C042C3FF65DAF01A353F824F06F
:101D6000FF1B0008891D0008831D0008751D000861
:101D7000FF1B00084FF0FF336FF00040CDE9043047
:101D800048E72B4B059345E71C9B04931D9B05934C
:101D900040E7199A13465A44199213F80B40064625
:101DA0008146FFF765BA0C981D4901EBC001DDE9DA
:101DB0000423D1E9000105F0F7FB41EC180BFFF714
:101DC00088BB0A958346FFF774BA9FED137B194DC4
:101DD0008DED167B00245DE5114CC5F10F0504EB7C
:101DE000C501DDE90423D1E9000105F0DDFB0C9B11
:101DF0005D1B04EBC504D4E9002305F0D5FB41ECE1
:101E0000180BFFF766BB00BF0000000000000000D9
:101E1000000000000000F07F000000000000E0BFB4
:101E2000B8170108E8140108782B01087C2B010879
:101E30000000F07F0000E03F101501080E9B002B12
:101E400070D0DDE90445954BC5F3130199422A464C
:101E50003FD0002F00F0B880DDE904231F421C466C
:101E600023D0B0EE480AF0EE680A0E9B002B00F07B
:101E7000B68002F065FF089B51EC100B6BB1C4F308
:101E80000A54C4F16B04002C07DD240504F17F53D0
:101E9000002203F5401305F087FB02460B4651EC88
:101EA000180B05F0CBF941EC180B089B7BB151ECFA
:101EB000180B7B4B002205F077FB41EC180B18EE5A
:101EC000902A0346134304BF2223CAF800301A980D
:101ED00055E5089B0499002B00F0B280714B2B4014
:101EE000B3F1D46F00F2AC801B0DC3F16B034FF064
:101EF000FF3000FA03F39942ABD16B4B9A4200F0EA
:101F0000C780684B134003F58013059300230493A7
:101F10009DED048BC9E702F15473059300230893E8
:101F2000FFF70BBBDDE90412C2F313030B431446A6
:101F30008FD1089B002B40F0A0805A4B2340A3F583
:101F400080136FEA13536FEA035305934FF0FF3387
:101F500004939DED048BA8E7DDE904010E9B034388
:101F6000A3D1C1F313030C46002B9ED121F00043F3
:101F70001B0D1B05B3F1D66F97D9D8F814301BB9D8
:101F8000D8F81030012B90DD41460122504602F076
:101F90009BFD5946804602F00BFE002885DDC8E710
:101FA000424919A81CAA02F007F905287FF487AA5C
:101FB0001D9B43F0FF4343F4E00305931C9B0493F4
:101FC0009DED048BFFF785BADDE904010A9B03420E
:101FD0003FF46BAF0C4644E74FF0000945E502F0D3
:101FE000AFFE089953EC102BB9B3C4F30A54C4F1F3
:101FF0006B04002C0CDD2405194604F17F530E9A66
:1020000003F5401310EE100A05F0CEFA02460B4617
:1020100051EC180B05F010F902460B4643EC182B57
:102020000022002305F028FD00283FF440AF59E6C8
:102030004FF0FF3202FA03F3049A1A400492CFE5FC
:102040004FF0FF3357E74FF0FF33C2F14B0203FA73
:1020500002F202EA01030593C2E551EC180B05F008
:10206000EBF802460B4643EC182B0022002305F048
:1020700003FD00283FF42BAF34E60A4B2340B3F1B5
:10208000D66F3FF75CAFB3F15C7F3FF710AF29E647
:1020900001317FF436AFFFF7BABB00BFFFFF0F007F
:1020A000000050390000F07FFFFFEF7FFC140108B3
:1020B000014BFFF755B800BF6800002010B4054C75
:1020C0008446134620685DF8044B0A466146FFF7D4
:1020D00047B800BF0000002010B4054C054B8446F3
:1020E0000A4620685DF8044B6146FFF739B800BF27
:1020F00000000020680000202DE9F041DFF8A880F2
:10210000044613462DED028B0A46D8F800002146FE
:10211000FFF726F855EC104B10EE102A10EE100ABF
:102120002B46294605F0DAFC50BB2046294605F02F
:1021300033FD08EE100ADFED197AB0EEC87AB4EE7E
:10214000677AF1EE10FA15DD25F00047144B4FF0D9
:10215000FF322046394605F0C1FC38B9104B4FF02C
:10216000FF322046394605F09BFC18B1D8F8003004
:1021700022221A60B0EE480ABDEC028BBDE8F08165
:10218000002D084804DA03F0F9F9B1EE408AF1E7CE
:10219000BDEC028BBDE8F04103F0F0B9FFFF7F7F9B
:1021A000FFFFEF7FE01F0108000000202DE9F04154
:1021B000DFF8AC80264B04460A462DED028B214603
:1021C000D8F80000FEF7CCFF55EC104B10EE102AAB
:1021D00010EE100A2B46294605F080FC50BB204625
:1021E000294605F0D9FC08EE100ADFED1A7AB0EEA8
:1021F000C87AB4EE677AF1EE10FA15DD25F00047E3
:10220000154B4FF0FF322046394605F067FC38B9D0
:10221000114B4FF0FF322046394605F041FC18B112
:10222000D8F8003022221A60B0EE480ABDEC028BCA
:10223000BDE8F081002D094804DA03F09FF9B1EE02
:10224000408AF1E7BDEC028BBDE8F04103F096B99E
:1022500068000020FFFF7F7FFFFFEF7FE01F010886
:10226000000000202DE9F04F814645488E46754616
:102270001EF801CB10F80C4014F00804F7D1BCF1A3
:102280002D0FE34654D0BCF12B0F08BF9EF800B0D1
:102290006FF0004808BF05F1020E1BB1102B4FD0A4
:1022A0001F4604E0BBF1300F55D00A231F4600251E
:1022B000B8FBF7F6284607FB168A07E0864215D3D7
:1022C00029D007FB00C001251EF801BBABF1300C83
:1022D000BCF1090F06D9ABF1410CBCF1190F08D8BC
:1022E000ABF1370C63450DDD002DE7DA4FF0FF351C
:1022F000EAE7ABF1610CBCF1190F03D8ABF1570C55
:102300006345F1DC002D0BDB04B140420AB195BB03
:102310001160BDE8F08FE245D3DA4FF0FF35D3E727
:102320002223C9F800301AB30EF1FF314046EFE71F
:102330009EF800B04FF0004805F1020E0124ACE712
:10234000BBF1300FACD19EF8000000F0DF00582840
:1023500007D01F46ABE79EF8003003F0DF03582B91
:102360000BD110279EF801B03B460EF1020E9EE7FE
:102370004046BDE8F08F8046D6E708231F4696E723
:1023800039150108012B02D0242B00D86AE710B5BB
:10239000FDF766FF16230360002010BD012A08D058
:1023A000242A06D884460648134600680A46614631
:1023B00058E710B5FDF754FF16230360002010BD49
:1023C00000000020012A08D0242A06D884460648A6
:1023D000134600680A46614644E710B5FDF740FF22
:1023E00016230360002010BD00000020F8B50D4644
:1023F0001446064608B1836943B3254B9C422AD054
:10240000244B9C4229D0244B9C4208BFF468A389EA
:10241000A269A2601A0722D5236903B32268616901
:10242000D31AEDB299422F4629DD0133A168013953
:10243000A160511C2160157062699A4216D0A3896F
:10244000DB0701D50A2D11D03846F8BD01F0F6FAA8
:102450000F4B9C42D4D17468D9E7B468D7E72146C2
:10246000304600F027F838B92369D7E721463046CF
:1024700001F07EF90028E7D04FF0FF37E4E721466E
:10248000304601F075F90028F6D122680123CDE726
:102490007C1601085C1601083C16010810B4044CB7
:1024A00003460A4620685DF8044B1946FFF79EBFB5
:1024B000000000203C4B70B51D6806460C460DB16F
:1024C000AB69E3B1394B9C421FD0394B9C424DD094
:1024D000384B9C4208BFEC68B4F90C3018079AB22C
:1024E00019D5216911B312F001002FD00020A0608E
:1024F00060694042A06100292ED0002070BD2846AE
:1025000001F09CFA294B9C42DFD16C68B4F90C3085
:1025100018079AB2E5D4D1063ED5520728D42169CE
:1025200043F00803A3819AB20029DCD102F42070A1
:10253000B0F5007FD7D02146304601F01DFFB4F939
:102540000C3021699AB212F00100CFD1950758BF23
:102550006069A0600029D0D1120658BF0846CDD5C9
:1025600043F04003A3814FF0FF3070BDAC68B3E788
:10257000616B51B104F14402914204D0304602F043
:1025800093FDB4F90C300022626321690022C4E992
:10259000001223F02403C3E7092243F04003326012
:1025A0004FF0FF30A38170BD000000207C160108B1
:1025B0005C1601083C1601082DE9F04F03690C690F
:1025C000A34283B0C0F28780013C01F11405A3004F
:1025D00000F11408009355F8243058F824200133F2
:1025E00081469A4208EB840005EB84070190B2FB18
:1025F000F3F63BD30023AE4640469B465EF804AB61
:1026000002681FFA8AFC06FB0C334FEA134C4FEAB0
:102610001A4A06FB0ACA1FFA83FCABEB0C0C1FFA22
:102620008AF31CFA82FCC3EB124202EB2C421FFA23
:102630008CFC4CEA0243774540F8043B4FEA224BBE
:102640004FEA1A43DAD2009B58F8033073B9019B62
:10265000043B984504D307E0984504F1FF3403D2C6
:1026600053F80429002AF7D0C9F81040484602F070
:102670009FFA00282BDB01364046002355F8041B47
:10268000D0F800C08AB29A1A0B0C12FA8CF2C3EB83
:102690001C4303EB224392B242EA0342AF4240F8AA
:1026A000042B4FEA2343E9D258F8242008EB840393
:1026B0006AB9043B984504D307E0984504F1FF3418
:1026C00003D253F80429002AF7D0C9F81040304645
:1026D00003B0BDE8F08F002003B0BDE8F08F00BF6D
:1026E0002DE9F04F2DED068B466A95B08DED020B6E
:1026F000249C019159EC108B054609920693002EFB
:1027000000F00683316849B172684A600123934042
:102710008B6001F085FF6B6A00221A60B9F1000A34
:10272000B4BF0123002323607B4BBCBF2AF0004AC7
:10273000CDF80CA033EA0A0300F0B2809DED027BD5
:10274000002251EC170BB0EE479AF0EE679A002387
:1027500005F092F9074680B1069A01231360259B84
:10276000002B00F0EF826D481860431E0093009824
:1027700015B0BDEC068BBDE8F08F12AA13A9284650
:10278000B0EE490AF0EE690A02F06AFBB0EE498A3F
:10279000F0EE698A5FEA1A56044640F09980DDE956
:1027A00012763E4406F23240202840F3BF83C0F147
:1027B00040000AFA00FA06F2124028FA00F04AEA4B
:1027C000000004F077FE0123013E0D93A1F1F871A2
:1027D000534B002204F030FD49A3D3E9002304F059
:1027E000E3FE49A3D3E9002304F028FD80463046E8
:1027F000894604F06FFE46A3D3E9002304F0D4FE1B
:1028000002460B464046494604F018FD804689467C
:1028100005F07AF90022834600234046494605F038
:1028200035F9002840F08182BBF1160F00F2638277
:102830003C4B03EBCB03D3E9002351EC190B05F020
:1028400025F9002874D00023BE1B0C93731E0BF1D6
:10285000FF3B049300F1568200230893BBF1000F65
:102860006DDA089BCDF814B0A3EB0B030893CBF102
:1028700000030B93019B092B4FF0000B68D8052B2D
:1028800040F35283043B01930026019B023B032B40
:1028900000F2AC86DFE813F0650462045A043C04DD
:1028A000069A42F20F73CAF3130A13605AEA080336
:1028B0001DD1259B002B00F095861B4B0093083300
:1028C000259A0098136015B0BDEC068BBDE8F08F1B
:1028D00018EE903AC3F3130351EC190B43F07F51F8
:1028E0000D97A6F2FF36129F41F4401170E7259B29
:1028F000002B40F0F0830D4B009338E7AFF30080DE
:1029000061436F63A787D23FB3C8608B288AC63FF5
:10291000FB799F501344D33F0000F07F4D21010805
:102920000000F83FB8170108882B0108942B010814
:10293000BE1B731E049300F1D9840C900890049B75
:102940005B44CDE9043B00230B93019B092B96D9F3
:10295000002301264FF0FF3201930A960792099354
:102960006B6A00215960079B0F93284601F018FEFF
:102970000090002800F043866B6A009A1A60079B5B
:102980000E2B00F2F980002E00F0F6800599002948
:1029900040F38084BD4B01F00F0203EBC2034FEA0A
:1029A0002118C905D3E9006740F11384B84B51ECF5
:1029B000190BD3E9082304F021FF41EC180B08F0B0
:1029C0000F084FF0030AB8F1000F13D0DFF8C092E0
:1029D00018F0010F09D030463946D9E9002304F038
:1029E000E3FD0AF1010A06460F465FEA680809F1AD
:1029F0000809EDD151EC180B32463B4604F0FEFEBF
:102A000041EC1A0B0C9B5BB157EC1A6BA14B1AEE05
:102A1000100A0022394605F039F8002840F06C858C
:102A2000504604F057FD53EC1A2B04F0BDFD9A4BB1
:102A3000002204F003FC079B8046A1F15079002B93
:102A400000F00484059B1093079B0E930A9B002BB8
:102A500000F0D6840E9A8D4B9049DDF800A003EB70
:102A6000C20353E90223002004F0C8FE42464B464D
:102A700004F0E2FB59EC1A8B41EC180B49461AEEB4
:102A8000100A05F041F8074604F024FD02460B4603
:102A90001AEE100A494604F0CFFB30370AF8017BE2
:102AA00053EC182B06460F4604F0F0FF002840F0C8
:102AB00067854FF000080AEE104A0AEE905ACDF8EA
:102AC00044B0554644465BEC18AB2AE00E9B0134FB
:102AD0009C424BDA724B50465946002204F064FD8A
:102AE0006F4B002282468B463046394604F05CFD2F
:102AF0008946804605F008F8074604F0EBFC0246DC
:102B00000B464046494604F097FB303705F8017BF9
:102B100052465B4606460F4604F0B8FF002840F0D8
:102B20002A8532463B465B49002004F085FB52462D
:102B30005B4604F0ABFF0028C8D0109B009A0593B9
:102B4000AA461AEE104A1AEE905A02E0524500F0D8
:102B5000FC84D1461AF8013D392BF7D00133DBB2A2
:102B60008AF80030059B01330593BEE1DDF844B0DF
:102B70001AEE104A1AEE905A139B002BC0F2948062
:102B8000059A0E2A00F39080404B03EBC203D3E971
:102B90000089099B002B1BDA079B002B18DC40F0F7
:102BA0006E83404B00224046494604F0FDFC02463D
:102BB0000B4651EC190B04F073FFDDF81CA05646D0
:102BC000002800F0E682099BDDF80080DF43E8E2A0
:102BD00042464B4651EC190B04F010FE04F094FFF2
:102BE0000646834604F076FC42464B4604F0DCFC85
:102BF0000B46024651EC190B04F01EFBDDF800A059
:102C0000334630330AF8013B079B012B00F09F83CA
:102C10004FF0010B08EE104A08EE905A54461D463C
:102C2000DA461DE042464B463046394604F0E6FDA2
:102C300004F06AFF834604F04DFC42464B4604F024
:102C4000B3FC0AF1010A0B4602463946304604F04D
:102C5000F3FA0BF13003AA4504F8013B00F072834C
:102C60000F4B002204F0A0FC0022002306460F4672
:102C700004F002FF0028D5D0A24618EE905A18EEB4
:102C8000104A059B01330593D1462EE1B817010880
:102C9000A81801080000F03F00001C400000E03FC1
:102CA00000002440000014400A9A002A52D0019AE1
:102CB000012A40F3A682079B03F1FF380B9B434593
:102CC00080F284820B9BCDF82C80A8EB03039B44FD
:102CD0004FF00008079B002BC0F27183049A1A443E
:102CE0000492089A17461A4408920121284601F0D6
:102CF000B7FD064632E00123BE1B0C93731E0493FE
:102D00007FF5AAADC6F10103089300230493A5E55E
:102D1000102001F0BFFB02466862002800F05D84CD
:102D2000C0E901660660C660F8E4584604F0D2FBCC
:102D300042464B4604F0A0FE00287FF475AD0BF12F
:102D4000FF3B71E5874B0093009815B0BDEC068BF7
:102D5000BDE8F08FDDF82C80089F0A9E002F0CDD67
:102D6000049A002A09DD0899BA421346A8BF3B46D7
:102D7000C91AFF1AD31A089104930B9BDBB10A9B63
:102D8000002B00F08082B8F1000F0FDD3146424683
:102D9000284601F029FE224601460646284601F053
:102DA00075FD21460446284601F03AFC0B9BB3EB27
:102DB000080240F0FE820121284601F051FDBBF1DE
:102DC000000F824600F3B780019B012B40F38881FE
:102DD0004FF000080120BBF1000F40F0B880049ACA
:102DE000104410F01F0000F09680C0F12003042B67
:102DF00040F30C84089BC0F11C0003440244089378
:102E000007440492089B002B05DD21461A462846FC
:102E100001F05AFE0446049B002B05DD51461A467C
:102E2000284601F051FE82460C9B002B40F0388171
:102E3000079B002B40F31F810A9B002B40F0A280D0
:102E4000059B01330593DDF80080DDF81C90012718
:102E500007E0214600230A22284601F005FC01373D
:102E6000044651462046FFF7A7FB4F4500F13000CE
:102E700008F8010BEDDB079A002AC8BF9346009AB9
:102E8000D8BF4FF0010B034693440027214601228F
:102E90002846019301F018FE5146044601F088FED1
:102EA000002840F3A3811BF8013C009A0BF1FF3B83
:102EB00004E05A4500F0B5811BF8013D392B0BF1B8
:102EC0000109F6D001338BF800305146284601F055
:102ED000A7FB56B12FB1B74203D03946284601F0BF
:102EE0009FFB3146284601F09BFB2146284601F016
:102EF00097FB002389F80030DDE905231A60259B44
:102F0000002B3FF434AC0098C3F8009015B0BDEC32
:102F1000068BBDE8F08F1C20089B03440893049B9C
:102F20000344074404936DE70126AEE4C0F120009A
:102F300008FA00F045E401465A46284601F054FDDF
:102F4000019B012B824640F3D3814FF00008DAF851
:102F500010300AEB8303186901F032FCC0F1200045
:102F60003DE700BF4C210108314600230A222846D4
:102F700001F07AFB0F9B002B064640F31F83CDF830
:102F800014900793002F00F31A81B8F1000F40F05E
:102F9000F981B046029B009F079903F001027B1E56
:102FA0001944019B0A921343089109935146204604
:102FB000FFF702FB31468346204601F0F9FD424609
:102FC00051468146284601F015FEC26801460BF1C4
:102FD0003003002A42D104902046079301F0E8FD17
:102FE00004990290284601F01BFB029A079B1AB92C
:102FF0000999002900F0D482B9F1000FC0F2848150
:10300000019949EA01090A9951EA090100F07C8114
:10301000002A00F3D881089A3B7007F10109974212
:10302000CB4600F0E381214600230A22284601F026
:103030001BFB4645044631464FF000034FF00A02A1
:10304000284612D001F010FB4146064600230A2212
:10305000284601F009FB4F468046A7E72846029321
:1030600001F0DEFA029B0122C6E701F0FDFA4F46AD
:10307000064680469AE7019B022B79DC0A9B002BCF
:1030800080D1059B5146013320460593FFF794FA02
:10309000DDF800B000F130030BF8013B0027F5E646
:1030A0005146204601F084FD0028BFF6C1AE2146FE
:1030B00000230A22284601F0D7FA059B03F1FF39C5
:1030C0000A9B0446002B7FF44FAF0F9B002B40F36D
:1030D0006E820793B7E6BF4B00930333FFF7F0BB55
:1030E000DDE9021200297FF473AEC2F31303002B53
:1030F0007FF46EAEB84B1340002B00F03A82089B71
:1031000001330893049B013304934FF0010861E6F7
:1031100001230A93099B059A13440F930133012B52
:1031200018460793B8BF01206F6A002117287960FD
:103130007FF71BAC012204235B0003F1140C8445D0
:10314000114602F10102F7D979600EE401230A93D6
:103150000998002845DD0F900790E5E700230A93C2
:10316000D8E700230A93F3E70F9BCDF81490079359
:10317000079B002B7FF427AD51460522284601F01E
:1031800073FA01468246204601F012FD00287FF7BF
:103190001AAD0098059F3123804600F8013B0137A6
:1031A00000905146284601F03BFA7B1CDDF8009068
:1031B0000593CDF80080002E7FF493AE95E631465E
:1031C0003A46284601F080FC0646DEE6A3EB0808F6
:1031D00080E54FF0020AB0EE498AF0EE698AFFF707
:1031E000F2BB012309930793FFF7BABB03D1019BFD
:1031F000DB073FF558AED9461BF8013D302BFAD01E
:1032000063E60D9A002A00F0F78003F23343049A34
:10321000DDF82C801A440492089A17461A44089242
:1032200063E5059B009A01330593312313704CE647
:10323000504604F04FF953EC1A2B04F0B5F9674BE4
:10324000002203F0FBFF8046A1F15079644B00227D
:1032500051EC1A0B03F0F0FF42464B4606460F4670
:1032600004F032FC002840F0808130463946424666
:1032700009F1004304F00AFC00283FF47DAC4FF054
:10328000000A56469FE421460B9A284601F0ACFB03
:10329000044690E500F02881059A524B564206F00C
:1032A0000F0203EBC203D3E9002351EC190B04F026
:1032B0007BF9361141EC1A0B00F08B814A4F002349
:1032C0004FF0020AF20706D5D7E9002304F06CF9A3
:1032D0000AF1010A0123761007F10807F2D1002B49
:1032E0003FF490AB41EC1A0BFFF78CBB0C9009E557
:1032F000029B002B7FF429AEDDE90212C2F3130317
:10330000002B3FF4F7AE20E6002A12DD2146012211
:103310002846019301F0D8FB5146044601F048FCD1
:103320000028019B40F33681392B00F014810BF10A
:103330003103B94609F8013B059B01333746059334
:103340004646C2E5A24618EE905A18EE104A0246CA
:103350000B4603F073FF42464B4606460F4604F009
:10336000B3FB60B942464B463046394604F084FB15
:1033700000283FF486AC5FEACB717FF582AC009AFF
:10338000FFF7E7BB7168284601F00AF907460028F5
:1033900000F04181336902339A0006F10C010C30D0
:1033A000FCF788FF39460122284601F08DFB804654
:1033B000F0E52146284601F017FB0446FBE4DDE971
:1033C00007239F1A91E4392B00F0C580B9460133D9
:1033D000B0E700BF942B01080000F07F00001C4004
:1033E00000001440B8170108A8180108059A013216
:1033F00037460592464649E5129BC3F1360306E778
:103400000E988E4901EBC00142464B4651E902013C
:1034100004F0CAF85AEC1A9B41EC180B51461AEE0C
:10342000100A04F071FB074604F054F802460B46FC
:103430001AEE100A514603F0FFFE06460E98DDF81C
:1034400000803037012808F8017B0F4600F0BF806C
:103450000E9B009ACDF838B013449B46C246784B79
:1034600000223046394604F09FF88946804604F031
:103470004BFB074604F02EF8303702460B46404619
:10348000494603F0D9FE0AF8017BDA4506460F46A5
:10349000E5D1DA46DDF838B06A4B59EC188B0022DA
:1034A00018EE100A494603F0C9FE32463B4604F0C6
:1034B000EDFA002869D118EE102A4B466149002028
:1034C00003F0BAFE32463B4604F0FEFA00283FF411
:1034D00053ABD1460AF1FF3A19F8013C302BF8D032
:1034E000109B0133059300E54FF0020AB0EE49AAA4
:1034F000F0EE69AAFFF786BA079B002B3FF498AE5F
:103500000F9B002B7FF738AB059A0E93013A4C4B7B
:1035100010921AEE100A3946002204F045F80246CD
:1035200016460F460AF1010003F0D4FF32463B462F
:1035300004F03AF8444B002203F080FE47EC1A6B8B
:103540008046A1F15079FFF781BA059B01330593BD
:103550003123FFF705BB059BBB4601330593392398
:1035600037460BF8013B46469FE44FF0000A5646AB
:103570000FE698462EE4AA461AEE104A1AEE905A22
:10358000109B01330593D146AFE4109B009A05933D
:10359000FFF7DFBA7FF4CDAEDA077FF5CAAEC3E638
:1035A000392BD8D0B9F1000F3FF7C1AEC1E6019B6E
:1035B000022B3FF7D9ADCDF8149062E5019B022BA9
:1035C0003FF7D2AD0F9BCDF814900793DAE4C246D3
:1035D00062E74FF0020AFFF715BA1C4B1C48EA21BC
:1035E00002F088F81B4B0093FFF7C1B86B6A002606
:1035F0005E603146284600F0D3FF009090B9164B2C
:10360000134800224FF4D57102F074F83FF4FAAB7E
:10361000C0F13C0080E4104B0D483A4640F2EA21EC
:1036200002F068F86B6A009A1A604FF0FF330122CB
:1036300009960F930A920793FFF79EBAB8170108ED
:10364000000024400000E03F00001C40982B0108CF
:10365000B02B0108882B0108E42B01088B891A077D
:103660002DE9F0410C4680463FD44A68002A58DDD7
:10367000E66A002E52D00022D8F80050C8F8002088
:1036800013F4805251D10123216A4046B047431CB4
:103690005ED0A389E66A5F0705D56368C01A636BCD
:1036A0000BB1236CC01A216A024600234046B04782
:1036B000411C3CD1D8F80030002B38D01D2B01D054
:1036C000162B4DD123690022C4E90032616BC8F882
:1036D000005019B304F14403994202D0404601F06E
:1036E000E3FC00206063BDE8F0810E69B6B10D68AF
:1036F0000E609A070CBF4B690023AD1B8B600BE07B
:103700002B463246216AA76A4046B847B0F1000C02
:10371000A5EB0C05664413DD002DF1DC0020BDE8AF
:10372000F0810A6C002AA3DCF8E7606DB3E70023A0
:10373000636023692360A389DB04C7D56065C5E79F
:10374000A38943F040034FF0FF30A381BDE8F0812F
:10375000D8F80030002B9CD01D2B06D0162B04D09F
:10376000A38943F04003A381D9E7C8F80050D5E707
:1037700038B50B69BBB10D46044608B18369B3B1D6
:103780000D4B9D4211D00D4B9D4213D00C4B9D42D1
:1037900008BFE568B5F90C302BB129462046BDE8D5
:1037A0003840FFF75BBF002038BD6568F2E700F0E6
:1037B00045F9E5E7A568EDE77C1601085C16010808
:1037C0003C16010838B540B303690446E3B1174B12
:1037D0001D680DB1AB69CBB1154B9C420FD0154B99
:1037E0009C4221D0144B9C4208BFEC68B4F90C30C9
:1037F00053B121462846BDE83840FFF72FBF6C681B
:10380000B4F90C30002BF4D1002038BD284600F06C
:1038100015F9074B9C42E2D1F1E7084B08491868BB
:10382000BDE8384000F04AB9AC68DFE7000000208E
:103830007C1601085C1601083C160108E01401081A
:103840007137000800207047014900F037B900BF08
:10385000713700080020704770B568224D1E02FBCA
:1038600005F50E4605F1740101F080FC044640B1F7
:1038700000210C30C4E90016A06005F16802FCF7D5
:10388000B3FD204670BD00BF274B2DE9F0411E68F7
:10389000B369074653B348364FF00408D6E90134FC
:1038A000013B04D51EE05A1C04F168041AD0B4F997
:1038B0000C50013B002DF6D11C4B6566C4E9005548
:1038C000C4E90253C4E90455A5610822294604F15C
:1038D0005C00FCF789FDC4E90D55C4E9125520468A
:1038E000BDE8F08135682DB12E46D7E7304600F0AF
:1038F0001FF8D0E74FF4D671384601F037FC044684
:1039000068B10560C0F804800C302946A0602546E7
:103910004FF4D072FCF768FD34602E46BEE70C23EE
:1039200030603B60DBE700BFE01401080100FFFFEF
:103930002DE9F84F344B35491A68816290424FF0B7
:103940000003C0E91233036504BF01238361054608
:10395000FFF79AFF68602846FFF796FFA8602846A1
:10396000FFF792FF6F68E86000240423C7E9024371
:1039700008222146C7E90044C7E904447C66BC61CB
:1039800007F15C00FCF730FDDFF88CB0AE68DFF8C3
:103990008CA0DFF88C90DFF88C801D4BC7F828A036
:1039A000C7E9087BC7F82C90C7F830800822F3607D
:1039B000C6E90044C6E904447466B460B4612146B3
:1039C00006F15C00FCF710FDC6E9086BC6E90AA920
:1039D000C6F83080EE680F4BF360C6E90044C6E9D4
:1039E00004447466B460B4612146082206F15C00A8
:1039F000FCF7FAFC0123C6E9086BC6E90B98C6F888
:103A000028A0AB61BDE8F88FE01401084938000830
:103A1000090001001200020089550008B155000894
:103A2000F155000811560008024B0349186800F0D0
:103A300045B800BFE014010871370008836903B975
:103A400076E77047704700BF704700BF704700BF00
:103A5000704700BF024B0349186800F00FB800BF61
:103A60000000002045380008024B0349186800F0A8
:103A700005B800BF00000020553800082DE9F041CE
:103A8000884600F148070026D7E90154013D0FD4CC
:103A9000A389012B05F1FF3506D9B4F90E300133A6
:103AA000204601D0C04706436B1C04F16804EFD1E7
:103AB0003F68002FE8D13046BDE8F0812DE9F8439A
:103AC0000746884600F148064FF00009D6E9015440
:103AD000013D11D4A389012B05F1FF3508D9B4F9B3
:103AE0000E300133214603D03846C04749EA000969
:103AF0006B1C04F16804EDD13668002EE6D148460F
:103B0000BDE8F8832DE9F0410469B4EB611F2FDDB6
:103B100000F1140E4E1111F01F0C0EEB84050EEB8C
:103B200086032BD05EF8262004339D4222FA0CF146
:103B3000CCF1200818D977461A6802FA08F20A432D
:103B400047F8042B53F8041B9D4221FA0CF1F3D8DB
:103B5000A41BA300053B9B0801330EEB83044EF826
:103B60002310C9B1043417E0416174460029F9D12A
:103B70000023036100234361BDE8F0819D4288BFBB
:103B800000F11002F4D953F8041B42F8041F9D42BF
:103B9000F9D8A41B0EEB8404A4EB0E039B10744510
:103BA0000361E7D0BDE8F0812DE9F04FAE4C2DED7B
:103BB000028B24688BB008EE100A204689460392D7
:103BC00007930494FDF75CFAD9F8003021180246F7
:103BD00011F801BC9978302940F0E5816FF00100BF
:103BE000C01A033300EB030A1C4613F8011B3029EB
:103BF000F8D0DFF8788218F80130002B00F0F78059
:103C00002378002718F803303D4626462BB116F8D6
:103C1000013F18F80330002BF9D104990292304685
:103C200001F0FAFC029A0190002800F09680002D25
:103C300040F096803378019503F0DF03502B354632
:103C400000F09880C9F80060002F40F0B0802B1B76
:103C5000013B072B394604DD5B10072B01F1010105
:103C6000FADC18EE100A059200F09AFC059A029010
:103C7000002800F07182029BAC4203F11406069604
:103C800080F0E7810027C2F10103B946059310E0F7
:103C9000202F00F097803946043715F8013C18F8BA
:103CA0000330554603F00F038B40A54249EA030950
:103CB00016D915F8013C5B4505F1FF3AE8D1059BA3
:103CC0005344A342E4D3184604990992089301F09F
:103CD000A3FCDDE908320028DAD11D46A542E8D868
:103CE00046F8049B069BF61A029BB6101E614846D6
:103CF00000F066FD039B76011C68301AA04200F3B9
:103D0000B780C0F22F810027039B019A9B689342E2
:103D1000C0F293810399019A4B68934240F38480E7
:103D20009D1AAC4200F3C480CA68022A00F0C68122
:103D3000032A00F0BE81012A00F0A28118EE100AC9
:103D4000029900F06DFC5025169A00232846136056
:103D50000BB0BDEC028BBDE8F08F002D00F011819F
:103D6000AD1BAB000193337803F0DF03502B3546D6
:103D70007FF468AF6B782B2B00F0F2802D2B6ED088
:103D80006E1C002018F803104B1E182B65D8737892
:103D900018F803301039013633BB00B14942019B9A
:103DA000C9F800600B440193002F3FF450AFBAF103
:103DB000000F14BF0025062528460BB0BDEC028B72
:103DC000BDE8F08F002146F8049B0427894664E78C
:103DD00001EB810103EB4103A3F1100116F8013F50
:103DE00018F80330002BD8D0192BF1DDD5E7049952
:103DF0000192204601F010FC019A002876D1A15CC6
:103E000018F80130A518002B72D030292C4605D1A6
:103E100014F8013F302BFBD018F80330B3FA83F7C6
:103E20007F094FF0010AF0E6012557B1039BDB68DB
:103E3000022B65D0032B67D0012B00F0888045F062
:103E40001005169B029A1A60079B019A1A60284671
:103E50000BB0BDEC028BBDE8F08F2E46F2E60120E0
:103E6000AB78AE1C8EE700BF9C1701089C160108BA
:103E7000029D061B3146284601F0D6F8074678B168
:103E8000721E53110699012751F8231002F01F03E7
:103E900007FA03F30B4203D0BA4200F3E48002278F
:103EA000019B0298334431460193FFF72BFE2BE729
:103EB0006E1E002F40F0CB80002E40F0CE8073119C
:103EC000069A029852F8232006F01F06012303FAEF
:103ED00006F61642294618BF47F00207FFF712FE02
:103EE000039B5B680193641B02259EE721782546AE
:103EF00001F0DF01502900F0BF80C9F8005056E7FB
:103F0000179BC3F101031793179B002B97D0029BBC
:103F1000DDF818901E6900214B464FEA860809EB30
:103F2000860003E0984243F8041C40D91F4653F82A
:103F3000042BB2F1FF3FF5D00132022D3A6000F0C0
:103F4000C28014F01F0440F0E180212579E7BA0710
:103F50007FF575AF069B1B681F43FB07D7D46EE741
:103F600000207DE7DDE90131221A9B1A18EE100AC4
:103F7000019300F0A9FD0346143302900693002735
:103F8000C2E6B35C18F80310B018064600293FF4E7
:103F900053AE16F8013F18F803100029F9D1801B21
:103FA0008100019148E69C1C4FF0000A21E6029B2B
:103FB0009B689E4280F28E803346029901EB830219
:103FC00001330B61022D4FF0010151617BD09E4204
:103FD000B7DA002B40F3A780029A09EB83035169FB
:103FE00002F1180083424FEA510140F2AF804C4683
:103FF000026841EAC27144F8041B50F8041B834272
:104000004FEA5101F4D8029A9B1A193B9B080133DD
:1040100049F8231009EB8303002940F09B800299A3
:10402000A3EB090292104B450A617FD0039B019AD2
:104030009B6801329342019287DA029918EE100AC6
:1040400000F0EEFA169A00231360A325B4E60127C8
:1040500035E7069E4FF0000942E60298314600F02F
:10406000E3FF07462BE7B11E284600F0DDFF0028DE
:104070003FF415AF032713E700230193012779E6E7
:10408000AC427FF45BAE012C08D00298611E00F0B8
:10409000CBFF00283FF452AE039B5B6807990B608F
:1040A000029B069901221A610A60169A6225136022
:1040B00082E6179A002A3FF441AEEFE7179A002AEA
:1040C0007FF43CAEEAE7039B1B68013BA34231D07F
:1040D0002225B6E6029B596818EE100A013100F05D
:1040E0005FFA074600283DD002990B6902339A0017
:1040F0000C310C30FCF7DEF8029918EE100A00F0D3
:104100008FFA07F114093B69029756E7C844C4F1D6
:10411000200458F8040C00F053FBA042BFF615AF82
:10412000029B1B6955E7029A00231361029A002340
:1041300053617BE7631104F01F0459F82320012326
:10414000A34013420CBF222521257AE6C9F80010AE
:104150004B4669B1043362E7074B0848029ADE21F7
:1041600001F0C8FA044B05483A46842101F0C2FA2E
:10417000029B1961DAE700BFE42B0108F82B010864
:1041800010B4046809E014F8013FA3F1410CBCF13C
:10419000190F98BF2033934209D111F8012B002A3F
:1041A000F1D10134046001205DF8044B7047002018
:1041B0005DF8044B704700BF2DE9F04F096885B0EA
:1041C0004B1111F01F01029002EB8303039140F0A9
:1041D0008E801D1F0193029B01991C68002341F8EA
:1041E000043C61780134002900F09780DFF8709179
:1041F000A846AC469A461E460EE0202900F28B8067
:10420000B24506DAC44501D2072B5BDD624551D3C6
:10421000082314F8011FA1B119F801000028ECD0FF
:104220000133082B06F101063ADCDCF80010090125
:1042300000F00F000843CCF8000014F8011F00291B
:10424000EAD1002E69D0E04501D9072B73DD624524
:1042500051D2111F634653F8040B41F8040F9D42DD
:10426000F9D2A5EB0C0323F00303691C04330CF112
:10427000010C614538BF04231344002143F8041B9B
:104280009D42FBD2019B53F8043C2BB9AA4248D073
:1042900055F8043D002BF9D0052005B0BDE8F08F9E
:1042A0006245B6D200234CF8043C1946ACF1040C2C
:1042B0000123BDE70023ACF104084CF8043CB246EE
:1042C000C446A6E7C3F108018900DCF80030C1F15B
:1042D000200E60468B46416801FA0EF73B430360AF
:1042E00021FA0BF340F8043F4045F4D38EE7191D43
:1042F00001911D466FE7039B002BC3D0039B0198E0
:10430000C3F120014FF0FF33CB4050F8041C0B40A9
:1043100040F8043CB9E7292909D0042005B0BDE8DC
:10432000F08F012305202B6005B0BDE8F08F0299C6
:1043300001340C6085E7C3F108039B00DCF8001032
:10434000C3F120076446666806FA07F0014321605E
:1043500026FA03F144F8041FA045F4D877E700BF1C
:104360009C160108F0307047004870475801002043
:104370000048704758010020F0B58B890C4699071A
:1043800097B007D504F147030122C4E90432236042
:1043900017B0F0BDB4F90E10002905462DDB6A46B2
:1043A00001F002FA002827DB019E06F470464FF464
:1043B0008067A6F50056B6FA86F63946284676098D
:1043C00000F0D4FE30B3A3891A4AAA6243F08003F6
:1043D000C4E90407A3812060002ED9D0B4F90E10DF
:1043E000284601F06FFB0028D2D0A38923F00303F5
:1043F00043F00103A381CBE7A38913F0800F14BF1F
:1044000040274FF4806739462846002600F0AEFE6C
:104410000028D8D1B4F90C309A05B9D423F003039D
:1044200004F1470243F002030121C4E90421A381FE
:104430002260ADE74938000870B50C46B1F90E109E
:10444000002996B016461D4613DB6A4601F0ACF90A
:1044500000280EDB019901F47041A1F50051B1FA79
:1044600081F14FF48063490900202960336016B060
:1044700070BDB4F90C3000221B062A6004D540231D
:104480000020336016B070BD4FF4806300203360AD
:1044900016B070BD024B0146186800F067BE00BF41
:1044A00000000020024B0146186800F0FDBD00BF6F
:1044B0000000002010B4034CD4F8E440A4465DF89A
:1044C000044B60476800002082B049B15AB16BB11B
:1044D00013780B601278101E18BF012002B07047CD
:1044E00001A9002AF3D1104602B070476FF0010015
:1044F000F4E700BF00000000000000000000000022
:1045000001F0FF01102A2BDB10F0070F08D010F884
:10451000013B013A8B422DD010F0070F42B3F6D188
:10452000F0B441EA012141EA014122F007047FF0A1
:1045300000070023F0E80256083C85EA010586EAF8
:10454000010685FA47F5A3FA87F586FA47F6A5FA34
:1045500087F68EB9EED1F0BC01F0FF0102F0070240
:1045600032B110F8013B013A83EA010313B1F8D1EB
:104570000020704701387047002D06BF35460338CC
:10458000073815F0010F07D1013015F4807F02BF05
:10459000013015F4C03F0130F0BC0138704700BF56
:1045A00070B5466A05460C465EB1F368A3B153F890
:1045B0002400E8B1026843F824200023C0E9033353
:1045C00070BD1020FFF766FF06466862E8B1002361
:1045D000C0E901330360C36021220421284600F0B2
:1045E00055FD6B6AF060DB68002BE0D1002070BDE8
:1045F000012101FA04F6721D9200284600F046FDE2
:104600000028F3D0C0E90146D7E7034B0348324600
:10461000662101F06FF800BF982B0108442C0108B7
:1046200070B5456A04460E464DB13EB1636A726884
:10463000DB6853F82200306043F8226070BD102020
:10464000FFF728FF0246606220B1C0E9015505600E
:10465000C560EAE7024B03488A2101F04BF800BF2E
:10466000982B0108442C0108F0B50C69064683B06C
:104670000D4601F1140E0020DEF800101FFA81FC37
:1046800002FB0C334FEA134C090C02FB01CC013046
:104690009BB203EB0C4384424EF8043B4FEA1C43AD
:1046A000EADC3BB1AA68A24207DD05EB84020134D3
:1046B00053612C61284603B0F0BD69680193013154
:1046C0003046FFF76DFF019B0746A0B12A690193B1
:1046D0000232920005F10C010C30FBF7EBFD29468C
:1046E00030463D46FFF79CFF05EB8402019B53617A
:1046F00001342C61DEE7034B03483A46B52100F054
:10470000F9FF00BFE42B0108442C01082DE9F84310
:104710000C4628491F46164603F1080281FB023168
:10472000092F4FEAE2730546C3EB610339DD4FF011
:10473000010C00214FEA4C0C634501F10101F9DC49
:104740002846FFF72DFF014668B3089B4361092EF9
:104750004FF00103036112DC0A340926B7420BDD76
:10476000BE1B264414F8013B0A22303B2846FFF7C3
:104770007BFFA6420146F5D10846BDE8F88304F167
:104780000909C846344418F8013B0A22303B284640
:10479000FFF76AFFA0450146F5D1A6F108044C4495
:1047A000DCE70021CCE70A46034B0448CE2100F0A9
:1047B000A1FF00BF398EE338E42B0108442C010827
:1047C000030C1B04D3B90004102310F07F4F04BF67
:1047D0000002083310F0704F04BF0001043310F0E2
:1047E000404F04BF80000233002805DB10F0804FEB
:1047F00003F1010308BF2023184670470023E4E7B4
:10480000036813F00702014607D0DA071FD49807A0
:1048100021D55B080B600120704798B2A0B110460B
:10482000DAB20AB908301B0A1A0704BF1B090430A0
:104830009A0704BF9B080230DA0703D45B0800F133
:10484000010006D00B6070471B0C1020E8E7002029
:104850007047202070479B080B600220704700BF04
:1048600010B50C460121FFF79BFE024618B101234B
:10487000C0E9043410BD034B03484FF4A07100F0AD
:1048800039FF00BFE42B0108442C01082DE9F04F4B
:104890000E691569AE4285B08846144605DB2A4686
:1048A000234635460C4616469846A3686168AF19FC
:1048B000BB42B8BF0131FFF773FE0190002800F042
:1048C0008780019B03F1140909EB870AD14505D2C2
:1048D0004B46002243F8042B9A45FBD808F11408F4
:1048E00008EB860B04F11403D8451A4603EB850543
:1048F0005FD22B1B153B23F0030304331534A54271
:1049000038BF0423CDE902A7AC461F46924605E016
:10491000000C29D1C34509F1040948D958F8040B02
:1049200085B2002DF4D056464C46002356F8040BB1
:10493000216882B21FFA81FE05FB02EE000C0A0C10
:10494000734405FB002202EB13429BB243EA02438D
:10495000B44544F8043B4FEA1243E7D849F807301E
:1049600058F8040C000CD5D0D9F80030544619463C
:104970004D4600222688090C00FB06110A449BB212
:1049800043EA024345F8043B54F8046B2968360CAB
:104990008BB200FB063303EB1243A4454FEA1342EC
:1049A000E8D8C34549F8073009F10409B6D8DDE96C
:1049B00002A7002F02DC05E0013F03D05AF8043DB6
:1049C000002BF9D0019B18461F6105B0BDE8F08FA0
:1049D000034B0448019A40F25D1100F08BFE00BFCA
:1049E000E42B0108442C01082DE9F04112F00303E7
:1049F00082B0144607462DD10E46A4101CD07A6A08
:104A00008AB39568002D39D0E3074FF0000806D42B
:104A1000641011D0286898B10546E307F8D53146EF
:104A20002A463846FFF732FF3146034638461E46CF
:104A3000FFF7F6FD6410EDD1304602B0BDE8F0811D
:104A40002A4629463846FFF721FF2860C0F8008033
:104A50000546E2E7013B184A52F823200023FFF7FE
:104A600003FE0646C9E71020FFF714FD02467862F0
:104A7000E0B10023C0E901330360C360012138467F
:104A80000192FFF78DFD019A054640B1012340F2E6
:104A90007121C0E90431002390600360B4E7074B43
:104AA00007482A464FF4A07100F024FE054B044845
:104AB0004FF4D77100F01EFEA8170108E42B01087F
:104AC000442C0108982B01082DE9F0470D4691462A
:104AD0002F69AB68496807EB62177C1C9C428046D3
:104AE0004FEA621A04DD5B009C4201F10101FADC2D
:104AF0004046FFF755FD064600284DD0BAF1000F9D
:104B000000F114000EDD0AF105024FEA820C0346A3
:104B100006EB8202002143F8041B9342FBD1ACF167
:104B200014031844296905F1140319F01F0903EB54
:104B3000810129D0C9F1200E84464FF0000A1A687D
:104B400002FA09F242EA0A024CF8042B53F8042B49
:104B5000994222FA0EFAF2D84B1B153B23F00303BD
:104B6000043305F11502914238BF0423BAF1000F56
:104B700018BF274640F803A0404637612946FFF793
:104B80004FFD3046BDE8F087043853F8042B40F859
:104B9000042F9942F9D8EFE7034B0448324640F21C
:104BA000D91100F0A7FD00BFE42B0108442C010837
:104BB0000B6984460069C01A16D10CF1140C14312B
:104BC0000CEB830210B401EB830301E0944508D29F
:104BD00052F8044D53F8041D8C42F7D005D24FF023
:104BE000FF305DF8044B7047704701205DF8044BBF
:104BF000704700BF2DE9F84F0F691369FF1A002FA6
:104C00000E4690467AD101F11405143202EB83026C
:104C100005EB830301E09D4273D253F8041D52F863
:104C2000044DA142F7D064D37168FFF7B9FC814607
:104C3000002872D03569D8F81020C76008F1140E2A
:104C400006F1140009F1140A06F1100C0EEB8202B1
:104C500000EB8507564600215EF8044B5CF804BF64
:104C6000A3B211FA8BF1CB1A210CC1EB1B4101EB62
:104C700023419BB243EA0143724546F8043B4FEAA5
:104C80002141E9D8A2EB0804153C08F1150842457A
:104C900024F0030606F1040638BF0426304424F04D
:104CA000030238BF002287425244B24416D9564606
:104CB000044654F8043B11FA83F10A1402EB134240
:104CC00089B241EA0243A74246F8043B4FEA224137
:104CD000EFD87A1E101A20F00302524423B952F87A
:104CE000043D013D002BFAD0C9F810504846BDE8FC
:104CF000F88F334601274646984695E7F9DB0027AB
:104D000092E70021FFF74CFC814668B101220023A5
:104D1000C9E904234846BDE8F88F074B07484A46CF
:104D20004FF4107100F0E6FC034B04484A4640F291
:104D3000322100F0DFFC00BFE42B0108442C010805
:104D400082B08DED000B154B019A1340A3F1507307
:104D5000002B05DD0020194641EC100B02B0704716
:104D60005B42B3F1A07F4FEA235208DA4FF40023ED
:104D7000002043FA02F141EC100B02B07047143AE4
:104D80001E2ADABF4FF0004323FA02F2012200216B
:104D9000104641EC100B02B0704700BF0000F07FDE
:104DA000F8B5046900F1140606EB8404271F54F8D3
:104DB000045C2846FFF704FDC0F120030A280B60BD
:104DC00031DDBE421BD20B3854F8081C23D0C0F191
:104DD000200C854021FA0CF72F43A4F1080547F079
:104DE0007F53AE4243F4401336D2814054F80C0C4A
:104DF00020FA0CF00843024643EC102BF8BD0B38A8
:104E000008D005FA00F040F07F53002043F440132F
:104E10000246F1E7014645F07F5343F440130A464A
:104E200043EC102BF8BDC0F10B0C25FA0CF1BE427F
:104E300041F07F5338BF54F8081C00F1150034BF0F
:104E400021FA0CF1002105FA00F043F4401340EA86
:104E5000010243EC102BF8BD01FA00F00246CBE74B
:104E60002DE9F043884683B0012157EC106B1546BD
:104E7000FFF796FB044600284FD0C7F30A59C7F343
:104E80001303B9F1000F01D043F48013002E0193F6
:104E900024D068460096FFF7B3FC002839D0DDE93E
:104EA0000013C0F1200203FA02F20A43C340626118
:104EB0000193002B14BF02220122A3612261B9F1E8
:104EC000000F16D0A9F233430344C0F13500C8F8EF
:104ED00000302860204603B0BDE8F08301A8FFF74A
:104EE0008FFC019B6361012220302261B9F1000F28
:104EF000E8D104EB8203A0F23240C8F80000186940
:104F0000FFF75EFCC0EB42102860204603B0BDE80E
:104F1000F083009B6361019BCBE7034B0348224670
:104F200040F20A3100F0E6FBE42B0108442C0108B2
:104F30002DE9F04383B00E4669460746FFF730FF80
:104F400001A9304655EC104BFFF72AFF3B69316948
:104F5000591ADDE90023D31A03EB4113002B51EC5E
:104F6000100B0DDD05EB03594D4602460B4620465E
:104F7000294602F043FC41EC100B03B0BDE8F0837E
:104F8000C3EB033301EB03573946EEE7172870B53F
:104F900006460CDD0A490B4D0020002422462B4614
:104FA00002F002FB013EF9D141EC100B70BD064B43
:104FB00003EBC006D6E9040141EC100B70BD00BF45
:104FC0000000F03F00002440A817010801394911F2
:104FD00001F1010C116902F1140303EB81018B4211
:104FE00000EB8C0C16D210B5A0F1040E53F8044B54
:104FF0004EF8044F9942F9D88B1A153B23F003035E
:1050000004331844844504D9002340F8043B844504
:10501000FBD810BD844505D9002340F8043B8445E6
:10502000FBD87047704700BF03694A11934200F1F3
:10503000140009DA00EB830302E053F8042DCAB927
:105040008342FAD80020704711DD11F01F010ED005
:1050500010B450F8224000EB820324FA01F202FA65
:1050600001F18C420CD001205DF8044B704700EB3D
:105070008203E5E70120704753F8042D002AF2D19E
:105080008342F9D800205DF8044B704738B502FB25
:1050900001F5294600F06AF8044618B12A460021B5
:1050A000FBF7A2F9204638BD002958D030B551F899
:1050B000043C83B0002BA1F10404B8BFE4180190B4
:1050C00000F0A4FD284A0198136833B1A3420DD91A
:1050D000216804EB010C63452FD06360146003B0BA
:1050E000BDE8304000F094BDA34210D81A465B687A
:1050F000002BF9D1116802EB010C644519D02FD3B4
:105100006360546003B0BDE8304000F081BD1168B9
:1051100002EB010CA44516D022D8216804EB010C47
:105120006345EDD11D685B682944C4E900135460F0
:10513000D5E7236819441160D1E71D685B682944ED
:10514000C4E90013CAE7246821445418A34211603B
:10515000C5D1D3E900432144C2E90013BFE770473A
:105160000C230360BBE700BF28020020F8B5CD1C6C
:1051700025F0030508350C2D38BF0C25002D0646FB
:1051800023DBA94221D8254F00F040FD3A6822B325
:10519000144603E063682246FBB11C4623685B1B90
:1051A000F8D40B2B15D8636894420CBF3B60536056
:1051B000304600F02DFD04F10B00231D20F0070008
:1051C000C21A01D01B1AA350F8BD0C233360002073
:1051D000F8BD23601C442560EAE77968C9B1294617
:1051E000304600F0B9F9431C0CD0C41C24F0030471
:1051F000A04205D0211A304600F0AEF9013001D0AE
:105200002560D5E70C233046336000F001FD002017
:10521000F8BD304600F0A0F97860E0E728020020F1
:105220009368013B002B936011DA10B49469A34298
:1052300009DB0A2907D01368581C1060197008464A
:105240005DF8044B70475DF8044BFDF7CFB8136869
:10525000581C106019700846704700BF9BB1F8B524
:10526000134406460F46541E5D1E01E0AC4208D0B2
:1052700014F8011F3A463046FFF7D2FF431CF5D120
:10528000F8BD0020F8BD0020704700BF936810B53E
:10529000144613B95360184610BD00F09BFA002362
:1052A000C4E9013310BD00BF2DE9F04F88469FB01F
:1052B00015461C46814618B18369002B00F0A28078
:1052C000924B984500F0A480914B984500F0B18036
:1052D000904B984508BFD9F80C80B8F80C301807E7
:1052E00040F19D80D8F81030002B00F0988000230A
:1052F0000B932978884E059420238DF83130302384
:105300008DF832300127002974D02C460B4604E07A
:1053100014F8013F002B00F08F80252BF8D1B4EB5F
:10532000050B40F08C802378002B63D000234FF0D6
:10533000FF32CDE90723069309938DF85B301C9368
:10534000013404E0069A07FA03F313430693254653
:10535000052214F8011B3046FFF7D2F8831B002802
:10536000F0D1069BD90644BF20228DF85B20297816
:105370001A0744BF2B228DF85B202A2970D1059A89
:105380001168043200290592C0F29B800991697866
:1053900001352E2976D0614C03222046FFF7B0F864
:1053A00038B1069B001B402404FA00F00343069327
:1053B000013515F8011B5A488DF830100622FFF709
:1053C0009FF8002800F08380564B002B6DD005AA73
:1053D0000092554B424606A94846FBF723F9039035
:1053E000039B013306D00B9B039A297813440B933C
:1053F00000298AD1B8F80C305B0617D40B981FB07F
:10540000BDE8F08FFEF71AFB404B98457FF45CAF88
:10541000D9F80480B8F80C3018073FF563AF41465F
:105420004846FDF747F800283FF461AF4FF0FF30E2
:10543000E5E7D9F8088050E7B4EB050BDAD0AA46C7
:10544000C5F1010503E0934536D91AF8011F42461C
:105450004846FFF7E5FE013005EB0A02F3D1C9E744
:10546000A1F13002092A94D8099B15F8011F03EB1A
:10547000830302EB4303A1F13002092AF5D92E2957
:10548000099388D169782A292BD1059BA9781A68B4
:1054900007920433002A05F102000593B8BF4FF0CC
:1054A000FF330546B8BF079375E7059B073323F025
:1054B00007030833059396E70B9A23785A440B9217
:1054C00032E7494243F00203099106935FE705AAD8
:1054D0000092154B424606A94846FBF7D3FB0390C2
:1054E0007EE7A1F130020023092A079305F10105A7
:1054F0003FF651AF15F8011F03EB830302EB4303A3
:10550000A1F13002092AF5D9079344E77C16010876
:105510005C1601083C160108782C0108802C010853
:10552000842C0108250600085D52000810B4054CC3
:105530008446134620685DF8044B0A466146FFF72F
:10554000B3BE00BF000000209FED010B704700BFFD
:10555000000000000000F87F38B5074D0022044627
:1055600008462A6006F01EF9431C00D038BD2B689F
:10557000002BFBD0236038BD300200209FED010AD4
:10558000704700BF0000C07F10B50C46B1F90E1087
:1055900000F068FB002803DB636D0344636510BD06
:1055A000A38923F48053A38110BD00BF002070475E
:1055B0002DE9F0410C46B1F90C101F46CB0505460C
:1055C00016460BD421F48051A1813B46B4F90E104C
:1055D00032462846BDE8F04100F076B8B4F90E1026
:1055E0000223002200F080FAB4F90C10EAE700BFB1
:1055F00010B50C46B1F90E1000F076FAA389421CE2
:105600000EBF23F4805343F480536065A38110BD23
:10561000B1F90E1000F094B8A2B330B540EA01041D
:10562000A40784460B462AD09CF800000C788442DC
:105630002FD1012A0DD0E64660B11EF8010F11F8F6
:10564000014F6FEA0E03A042134422D11CEB030367
:10565000F2D1002030BD0468194653F8045BA4F170
:10566000013EAC4284462EEA040E00F104000BD148
:10567000043A84461946ECD01EF0803FE9D1032A53
:10568000E9D8D1E7104670479CF800000C78A0429A
:10569000D1D0001B30BD00BF10B4034CD4F8E040A3
:1056A000A4465DF8044B60476800002049B1FF2A1A
:1056B00002D80A70012070478A2303604FF0FF3040
:1056C00070470846704700BF38B50C46084D844601
:1056D000114620461A4600232B60644606F0A6F8C1
:1056E000431C00D038BD2B68002BFBD0236038BD95
:1056F0003002002000B50B4C25681446EE681A46AF
:1057000085B003460D464CB107490095CDE901141B
:105710003046064900F034F800F0BAFA04490C4665
:10572000F3E700BF000000208C2C01089C2C01082E
:10573000E01F010808B513460022FFF7DBFF00BF9A
:1057400038B5074D0022044608462A6006F07CF86A
:10575000431C00D038BD2B68002BFBD0236038BD24
:10576000300200200CB400B583B004AB53F8042B16
:105770000193FFF799FD03B05DF804EB02B07047A9
:105780000EB410B583B005AB064C53F8042B01934F
:1057900001462068FFF788FD03B0BDE8104003B064
:1057A000704700BF0000002070B50C46084D03464E
:1057B0000026204611461C462E6006F048F8431C81
:1057C00000D070BD2B68002BFBD0236070BD00BFE4
:1057D000300200209368002B00F085802DE9F04F07
:1057E000B1F90C300C461907804683B0174698B2C1
:1057F00025D523691BB310F002033D682DD04FF06F
:10580000000ADFF8BCB25646B9465E4533465246FA
:1058100028BF5B464046002E52D0216AA76AB8478F
:10582000002856DDD9F808301B1A8244361AC9F808
:105830000830002BE9D1002003B0BDE8F08F2146ED
:105840004046FCF737FE002840F03681B4F90C30B2
:105850003D6898B210F00203D1D110F0010944D193
:105860004E46009746B38205D4F808B040F18380D5
:10587000B3455A4600F2B28010F4906F40F0BF80FA
:1058800020680192494600F045F9A368019AA3EB0C
:105890000B012368A1601344B24623600026009BDD
:1058A0009868A0EB0A00D14498600028C3D0B4F9EE
:1058B0000C0080B2002ED6D1D5E900960835D1E78C
:1058C000D5E900A60835A0E721464046FDF750FF80
:1058D00080B3B4F90C3043F040034FF0FF30A381A4
:1058E00003B0BDE8F08F002070471E46AA469946D7
:1058F00018461D46009756B388B34A46D4E90413A8
:105900002068B24228BF3246884205D9A16803EB1D
:10591000010B5A4500F3A680934263DC216AA76A13
:105920002A464046B847B0F1000BD2DDB9EB0B096F
:10593000CAD00120009A9368A3EB0B035D44A6EB49
:105940000B069360002B3FF476AF002ED4D10AF102
:10595000080353E902569A460833002EF9D032461E
:105960000A212846FEF7CCFD002800F09C8001307B
:10597000A0EB0509C1E720682369984216D863693E
:10598000B34213D86FF00042B24228BF3246216AB8
:1059900092FBF3F2A76A02FB03F340464A46B8477C
:1059A000B0F1000A95DDA6EB0A0678E7B345DA46C2
:1059B00028BFB2465246494600F0ACF8A3682268B8
:1059C000A3EB0A035244A3602260002BEBD12146D3
:1059D0004046FDF7CDFE0028E5D07AE72068B346C3
:1059E00032464EE72946019200F094F8019AA368E6
:1059F0009B1AA360236813442360934696E72368A9
:105A00002169A3EB010B636903EB430A0AEBDA7A22
:105A10000BF101034FEA6A0A33445345524684BFEF
:105A20009A46524643052CD511464046FFF79EFB49
:105A300000283BD05A4621690190FAF73BFCA28925
:105A4000019B22F4906242F08002A28103EB0B00E2
:105A50002361AAEB0B03C4F814A0A3602060B34633
:105A600032460EE729465A4600F054F823685B4454
:105A7000236021464046FDF77BFE00283FF456AFE9
:105A800027E7404600F0C6F803460028DED121692A
:105A90004046FFF709FBB4F90C300C2223F08003D9
:105AA000C8F8002017E7721C914627E70C22B4F9CA
:105AB0000C30C8F800200EE74FF0FF30BCE600BF06
:105AC00000FCFF7F38B5074D0022044608462A60D7
:105AD00005F0C2FE431C00D038BD2B68002BFBD064
:105AE000236038BD3002002038B50C46084D84468E
:105AF000114620461A4600232B60644605F0AEFE90
:105B0000431C00D038BD2B68002BFBD0236038BD70
